{
  "_format": "hh-sol-artifact-1",
  "contractName": "BurnTokens",
  "sourceName": "contracts/BurnAddress.sol",
  "abi": [
    {
      "inputs": [
        {
          "internalType": "contract CanvaToken",
          "name": "_burnToken",
          "type": "address"
        }
      ],
      "stateMutability": "nonpayable",
      "type": "constructor"
    },
    {
      "anonymous": false,
      "inputs": [
        {
          "indexed": true,
          "internalType": "address",
          "name": "previousOwner",
          "type": "address"
        },
        {
          "indexed": true,
          "internalType": "address",
          "name": "newOwner",
          "type": "address"
        }
      ],
      "name": "OwnershipTransferred",
      "type": "event"
    },
    {
      "inputs": [
        {
          "internalType": "uint256",
          "name": "_amount",
          "type": "uint256"
        }
      ],
      "name": "burn",
      "outputs": [],
      "stateMutability": "nonpayable",
      "type": "function"
    },
    {
      "inputs": [],
      "name": "burnToken",
      "outputs": [
        {
          "internalType": "contract CanvaToken",
          "name": "",
          "type": "address"
        }
      ],
      "stateMutability": "view",
      "type": "function"
    },
    {
      "inputs": [],
      "name": "burnedAmount",
      "outputs": [
        {
          "internalType": "uint256",
          "name": "",
          "type": "uint256"
        }
      ],
      "stateMutability": "view",
      "type": "function"
    },
    {
      "inputs": [],
      "name": "owner",
      "outputs": [
        {
          "internalType": "address",
          "name": "",
          "type": "address"
        }
      ],
      "stateMutability": "view",
      "type": "function"
    },
    {
      "inputs": [],
      "name": "renounceOwnership",
      "outputs": [],
      "stateMutability": "nonpayable",
      "type": "function"
    },
    {
      "inputs": [
        {
          "internalType": "address",
          "name": "_targetAddress",
          "type": "address"
        },
        {
          "internalType": "bool",
          "name": "_isWhitelisted",
          "type": "bool"
        }
      ],
      "name": "setWhitelistAddress",
      "outputs": [],
      "stateMutability": "nonpayable",
      "type": "function"
    },
    {
      "inputs": [
        {
          "internalType": "address",
          "name": "_to",
          "type": "address"
        },
        {
          "internalType": "uint256",
          "name": "_amount",
          "type": "uint256"
        }
      ],
      "name": "transfer",
      "outputs": [],
      "stateMutability": "nonpayable",
      "type": "function"
    },
    {
      "inputs": [
        {
          "internalType": "address",
          "name": "newOwner",
          "type": "address"
        }
      ],
      "name": "transferOwnership",
      "outputs": [],
      "stateMutability": "nonpayable",
      "type": "function"
    },
    {
      "inputs": [
        {
          "internalType": "address",
          "name": "",
          "type": "address"
        }
      ],
      "name": "whitelist",
      "outputs": [
        {
          "internalType": "bool",
          "name": "",
          "type": "bool"
        }
      ],
      "stateMutability": "view",
      "type": "function"
    }
  ],
  "bytecode": "0x60806040523480156200001157600080fd5b5060405162000ec338038062000ec38339818101604052810190620000379190620001e9565b620000576200004b6200009f60201b60201c565b620000a760201b60201c565b80600360006101000a81548173ffffffffffffffffffffffffffffffffffffffff021916908373ffffffffffffffffffffffffffffffffffffffff160217905550506200021b565b600033905090565b60008060009054906101000a900473ffffffffffffffffffffffffffffffffffffffff169050816000806101000a81548173ffffffffffffffffffffffffffffffffffffffff021916908373ffffffffffffffffffffffffffffffffffffffff1602179055508173ffffffffffffffffffffffffffffffffffffffff168173ffffffffffffffffffffffffffffffffffffffff167f8be0079c531659141344cd1fd0a4f28419497f9722a3daafe3b4186f6b6457e060405160405180910390a35050565b600080fd5b600073ffffffffffffffffffffffffffffffffffffffff82169050919050565b60006200019d8262000170565b9050919050565b6000620001b18262000190565b9050919050565b620001c381620001a4565b8114620001cf57600080fd5b50565b600081519050620001e381620001b8565b92915050565b6000602082840312156200020257620002016200016b565b5b60006200021284828501620001d2565b91505092915050565b610c98806200022b6000396000f3fe608060405234801561001057600080fd5b50600436106100935760003560e01c80638da5cb5b116100665780638da5cb5b146100f85780639b19251a14610116578063a9059cbb14610146578063f2fde38b14610162578063faa0a2641461017e57610093565b80633f914aef1461009857806342966c68146100b457806350e15fdd146100d0578063715018a6146100ee575b600080fd5b6100b260048036038101906100ad91906107eb565b61019c565b005b6100ce60048036038101906100c99190610861565b6101ff565b005b6100d8610373565b6040516100e5919061089d565b60405180910390f35b6100f6610379565b005b61010061038d565b60405161010d91906108c7565b60405180910390f35b610130600480360381019061012b91906108e2565b6103b6565b60405161013d919061091e565b60405180910390f35b610160600480360381019061015b9190610939565b6103d6565b005b61017c600480360381019061017791906108e2565b61055d565b005b6101866105e0565b60405161019391906109d8565b60405180910390f35b6101a4610606565b80600160008473ffffffffffffffffffffffffffffffffffffffff1673ffffffffffffffffffffffffffffffffffffffff16815260200190815260200160002060006101000a81548160ff0219169083151502179055505050565b600160003373ffffffffffffffffffffffffffffffffffffffff1673ffffffffffffffffffffffffffffffffffffffff16815260200190815260200160002060009054906101000a900460ff1680610289575061025a61038d565b73ffffffffffffffffffffffffffffffffffffffff163373ffffffffffffffffffffffffffffffffffffffff16145b6102c8576040517f08c379a00000000000000000000000000000000000000000000000000000000081526004016102bf90610a76565b60405180910390fd5b80600260008282546102da9190610ac5565b92505081905550600360009054906101000a900473ffffffffffffffffffffffffffffffffffffffff1673ffffffffffffffffffffffffffffffffffffffff16636161eb1830836040518363ffffffff1660e01b815260040161033e929190610af9565b600060405180830381600087803b15801561035857600080fd5b505af115801561036c573d6000803e3d6000fd5b5050505050565b60025481565b610381610606565b61038b6000610684565b565b60008060009054906101000a900473ffffffffffffffffffffffffffffffffffffffff16905090565b60016020528060005260406000206000915054906101000a900460ff1681565b600160003373ffffffffffffffffffffffffffffffffffffffff1673ffffffffffffffffffffffffffffffffffffffff16815260200190815260200160002060009054906101000a900460ff1680610460575061043161038d565b73ffffffffffffffffffffffffffffffffffffffff163373ffffffffffffffffffffffffffffffffffffffff16145b61049f576040517f08c379a000000000000000000000000000000000000000000000000000000000815260040161049690610a76565b60405180910390fd5b80600260008282546104b19190610ac5565b92505081905550600360009054906101000a900473ffffffffffffffffffffffffffffffffffffffff1673ffffffffffffffffffffffffffffffffffffffff1663a9059cbb83836040518363ffffffff1660e01b8152600401610515929190610af9565b6020604051808303816000875af1158015610534573d6000803e3d6000fd5b505050506040513d601f19601f820116820180604052508101906105589190610b37565b505050565b610565610606565b600073ffffffffffffffffffffffffffffffffffffffff168173ffffffffffffffffffffffffffffffffffffffff16036105d4576040517f08c379a00000000000000000000000000000000000000000000000000000000081526004016105cb90610bd6565b60405180910390fd5b6105dd81610684565b50565b600360009054906101000a900473ffffffffffffffffffffffffffffffffffffffff1681565b61060e610748565b73ffffffffffffffffffffffffffffffffffffffff1661062c61038d565b73ffffffffffffffffffffffffffffffffffffffff1614610682576040517f08c379a000000000000000000000000000000000000000000000000000000000815260040161067990610c42565b60405180910390fd5b565b60008060009054906101000a900473ffffffffffffffffffffffffffffffffffffffff169050816000806101000a81548173ffffffffffffffffffffffffffffffffffffffff021916908373ffffffffffffffffffffffffffffffffffffffff1602179055508173ffffffffffffffffffffffffffffffffffffffff168173ffffffffffffffffffffffffffffffffffffffff167f8be0079c531659141344cd1fd0a4f28419497f9722a3daafe3b4186f6b6457e060405160405180910390a35050565b600033905090565b600080fd5b600073ffffffffffffffffffffffffffffffffffffffff82169050919050565b600061078082610755565b9050919050565b61079081610775565b811461079b57600080fd5b50565b6000813590506107ad81610787565b92915050565b60008115159050919050565b6107c8816107b3565b81146107d357600080fd5b50565b6000813590506107e5816107bf565b92915050565b6000806040838503121561080257610801610750565b5b60006108108582860161079e565b9250506020610821858286016107d6565b9150509250929050565b6000819050919050565b61083e8161082b565b811461084957600080fd5b50565b60008135905061085b81610835565b92915050565b60006020828403121561087757610876610750565b5b60006108858482850161084c565b91505092915050565b6108978161082b565b82525050565b60006020820190506108b2600083018461088e565b92915050565b6108c181610775565b82525050565b60006020820190506108dc60008301846108b8565b92915050565b6000602082840312156108f8576108f7610750565b5b60006109068482850161079e565b91505092915050565b610918816107b3565b82525050565b6000602082019050610933600083018461090f565b92915050565b600080604083850312156109505761094f610750565b5b600061095e8582860161079e565b925050602061096f8582860161084c565b9150509250929050565b6000819050919050565b600061099e61099961099484610755565b610979565b610755565b9050919050565b60006109b082610983565b9050919050565b60006109c2826109a5565b9050919050565b6109d2816109b7565b82525050565b60006020820190506109ed60008301846109c9565b92915050565b600082825260208201905092915050565b7f4275726e546f6b656e733a20796f7520646f6e2774206861766520726967687460008201527f7300000000000000000000000000000000000000000000000000000000000000602082015250565b6000610a606021836109f3565b9150610a6b82610a04565b604082019050919050565b60006020820190508181036000830152610a8f81610a53565b9050919050565b7f4e487b7100000000000000000000000000000000000000000000000000000000600052601160045260246000fd5b6000610ad08261082b565b9150610adb8361082b565b9250828201905080821115610af357610af2610a96565b5b92915050565b6000604082019050610b0e60008301856108b8565b610b1b602083018461088e565b9392505050565b600081519050610b31816107bf565b92915050565b600060208284031215610b4d57610b4c610750565b5b6000610b5b84828501610b22565b91505092915050565b7f4f776e61626c653a206e6577206f776e657220697320746865207a65726f206160008201527f6464726573730000000000000000000000000000000000000000000000000000602082015250565b6000610bc06026836109f3565b9150610bcb82610b64565b604082019050919050565b60006020820190508181036000830152610bef81610bb3565b9050919050565b7f4f776e61626c653a2063616c6c6572206973206e6f7420746865206f776e6572600082015250565b6000610c2c6020836109f3565b9150610c3782610bf6565b602082019050919050565b60006020820190508181036000830152610c5b81610c1f565b905091905056fea264697066735822122001c4b4737c9999fb9c01ed080233d0f33a0afc0da495e4a6d421071839e25c9364736f6c63430008110033",
  "linkReferences": {},
  "deployedLinkReferences": {}
}