{
  "_format": "hh-sol-artifact-1",
  "contractName": "CanvaToken",
  "sourceName": "contracts/CanvaToken.sol",
  "abi": [
    {
      "inputs": [
        {
          "internalType": "string",
          "name": "_tokenFullName",
          "type": "string"
        },
        {
          "internalType": "string",
          "name": "_tokenTicker",
          "type": "string"
        },
        {
          "internalType": "address",
          "name": "_burnAddress",
          "type": "address"
        },
        {
          "internalType": "uint256",
          "name": "_tokensPerBlock",
          "type": "uint256"
        },
        {
          "internalType": "address",
          "name": "_toMint",
          "type": "address"
        }
      ],
      "stateMutability": "nonpayable",
      "type": "constructor"
    },
    {
      "anonymous": false,
      "inputs": [
        {
          "indexed": true,
          "internalType": "address",
          "name": "owner",
          "type": "address"
        },
        {
          "indexed": true,
          "internalType": "address",
          "name": "spender",
          "type": "address"
        },
        {
          "indexed": false,
          "internalType": "uint256",
          "name": "value",
          "type": "uint256"
        }
      ],
      "name": "Approval",
      "type": "event"
    },
    {
      "anonymous": false,
      "inputs": [
        {
          "indexed": true,
          "internalType": "address",
          "name": "previousOwner",
          "type": "address"
        },
        {
          "indexed": true,
          "internalType": "address",
          "name": "newOwner",
          "type": "address"
        }
      ],
      "name": "OwnershipTransferred",
      "type": "event"
    },
    {
      "anonymous": false,
      "inputs": [
        {
          "indexed": false,
          "internalType": "address",
          "name": "account",
          "type": "address"
        }
      ],
      "name": "Paused",
      "type": "event"
    },
    {
      "anonymous": false,
      "inputs": [
        {
          "indexed": true,
          "internalType": "address",
          "name": "from",
          "type": "address"
        },
        {
          "indexed": true,
          "internalType": "address",
          "name": "to",
          "type": "address"
        },
        {
          "indexed": false,
          "internalType": "uint256",
          "name": "value",
          "type": "uint256"
        }
      ],
      "name": "Transfer",
      "type": "event"
    },
    {
      "anonymous": false,
      "inputs": [
        {
          "indexed": false,
          "internalType": "address",
          "name": "account",
          "type": "address"
        }
      ],
      "name": "Unpaused",
      "type": "event"
    },
    {
      "inputs": [
        {
          "internalType": "address",
          "name": "account",
          "type": "address"
        },
        {
          "internalType": "uint256",
          "name": "amount",
          "type": "uint256"
        }
      ],
      "name": "_burn",
      "outputs": [],
      "stateMutability": "nonpayable",
      "type": "function"
    },
    {
      "inputs": [
        {
          "internalType": "address",
          "name": "owner",
          "type": "address"
        },
        {
          "internalType": "address",
          "name": "spender",
          "type": "address"
        }
      ],
      "name": "allowance",
      "outputs": [
        {
          "internalType": "uint256",
          "name": "",
          "type": "uint256"
        }
      ],
      "stateMutability": "view",
      "type": "function"
    },
    {
      "inputs": [
        {
          "internalType": "address",
          "name": "spender",
          "type": "address"
        },
        {
          "internalType": "uint256",
          "name": "amount",
          "type": "uint256"
        }
      ],
      "name": "approve",
      "outputs": [
        {
          "internalType": "bool",
          "name": "",
          "type": "bool"
        }
      ],
      "stateMutability": "nonpayable",
      "type": "function"
    },
    {
      "inputs": [
        {
          "internalType": "address",
          "name": "account",
          "type": "address"
        }
      ],
      "name": "balanceOf",
      "outputs": [
        {
          "internalType": "uint256",
          "name": "",
          "type": "uint256"
        }
      ],
      "stateMutability": "view",
      "type": "function"
    },
    {
      "inputs": [],
      "name": "burnAddress",
      "outputs": [
        {
          "internalType": "address",
          "name": "",
          "type": "address"
        }
      ],
      "stateMutability": "view",
      "type": "function"
    },
    {
      "inputs": [],
      "name": "decimals",
      "outputs": [
        {
          "internalType": "uint8",
          "name": "",
          "type": "uint8"
        }
      ],
      "stateMutability": "view",
      "type": "function"
    },
    {
      "inputs": [
        {
          "internalType": "address",
          "name": "spender",
          "type": "address"
        },
        {
          "internalType": "uint256",
          "name": "subtractedValue",
          "type": "uint256"
        }
      ],
      "name": "decreaseAllowance",
      "outputs": [
        {
          "internalType": "bool",
          "name": "",
          "type": "bool"
        }
      ],
      "stateMutability": "nonpayable",
      "type": "function"
    },
    {
      "inputs": [
        {
          "internalType": "address",
          "name": "spender",
          "type": "address"
        },
        {
          "internalType": "uint256",
          "name": "addedValue",
          "type": "uint256"
        }
      ],
      "name": "increaseAllowance",
      "outputs": [
        {
          "internalType": "bool",
          "name": "",
          "type": "bool"
        }
      ],
      "stateMutability": "nonpayable",
      "type": "function"
    },
    {
      "inputs": [
        {
          "internalType": "address",
          "name": "_to",
          "type": "address"
        },
        {
          "internalType": "uint256",
          "name": "_amount",
          "type": "uint256"
        },
        {
          "internalType": "enum CanvaToken.Target",
          "name": "_target",
          "type": "uint8"
        }
      ],
      "name": "mintByContract",
      "outputs": [],
      "stateMutability": "nonpayable",
      "type": "function"
    },
    {
      "inputs": [
        {
          "internalType": "address",
          "name": "_to",
          "type": "address"
        },
        {
          "internalType": "uint256",
          "name": "_amount",
          "type": "uint256"
        },
        {
          "internalType": "enum CanvaToken.Target",
          "name": "_target",
          "type": "uint8"
        }
      ],
      "name": "mintByOwner",
      "outputs": [],
      "stateMutability": "nonpayable",
      "type": "function"
    },
    {
      "inputs": [],
      "name": "name",
      "outputs": [
        {
          "internalType": "string",
          "name": "",
          "type": "string"
        }
      ],
      "stateMutability": "view",
      "type": "function"
    },
    {
      "inputs": [],
      "name": "owner",
      "outputs": [
        {
          "internalType": "address",
          "name": "",
          "type": "address"
        }
      ],
      "stateMutability": "view",
      "type": "function"
    },
    {
      "inputs": [],
      "name": "pause",
      "outputs": [],
      "stateMutability": "nonpayable",
      "type": "function"
    },
    {
      "inputs": [],
      "name": "paused",
      "outputs": [
        {
          "internalType": "bool",
          "name": "",
          "type": "bool"
        }
      ],
      "stateMutability": "view",
      "type": "function"
    },
    {
      "inputs": [],
      "name": "renounceOwnership",
      "outputs": [],
      "stateMutability": "nonpayable",
      "type": "function"
    },
    {
      "inputs": [
        {
          "internalType": "address",
          "name": "_newBurnAddress",
          "type": "address"
        }
      ],
      "name": "setBurnAddress",
      "outputs": [],
      "stateMutability": "nonpayable",
      "type": "function"
    },
    {
      "inputs": [
        {
          "internalType": "enum CanvaToken.Target",
          "name": "_target",
          "type": "uint8"
        },
        {
          "components": [
            {
              "internalType": "uint256",
              "name": "capAmount",
              "type": "uint256"
            },
            {
              "internalType": "uint256",
              "name": "distributedAmount",
              "type": "uint256"
            },
            {
              "internalType": "uint256",
              "name": "lastHarvestedAtBlock",
              "type": "uint256"
            },
            {
              "internalType": "uint256",
              "name": "tokensPerBlockRate",
              "type": "uint256"
            },
            {
              "internalType": "bool",
              "name": "isInitialized",
              "type": "bool"
            }
          ],
          "internalType": "struct CanvaToken.TargetInfo",
          "name": "_targetInfo",
          "type": "tuple"
        }
      ],
      "name": "setTargetInfo",
      "outputs": [],
      "stateMutability": "nonpayable",
      "type": "function"
    },
    {
      "inputs": [
        {
          "internalType": "uint256",
          "name": "_tokensPerBlock",
          "type": "uint256"
        }
      ],
      "name": "setTokensPerBlock",
      "outputs": [],
      "stateMutability": "nonpayable",
      "type": "function"
    },
    {
      "inputs": [
        {
          "internalType": "address",
          "name": "_targetAddress",
          "type": "address"
        },
        {
          "internalType": "bool",
          "name": "_isWhitelisted",
          "type": "bool"
        }
      ],
      "name": "setWhitelistAddress",
      "outputs": [],
      "stateMutability": "nonpayable",
      "type": "function"
    },
    {
      "inputs": [],
      "name": "symbol",
      "outputs": [
        {
          "internalType": "string",
          "name": "",
          "type": "string"
        }
      ],
      "stateMutability": "view",
      "type": "function"
    },
    {
      "inputs": [
        {
          "internalType": "enum CanvaToken.Target",
          "name": "",
          "type": "uint8"
        }
      ],
      "name": "targets",
      "outputs": [
        {
          "internalType": "uint256",
          "name": "capAmount",
          "type": "uint256"
        },
        {
          "internalType": "uint256",
          "name": "distributedAmount",
          "type": "uint256"
        },
        {
          "internalType": "uint256",
          "name": "lastHarvestedAtBlock",
          "type": "uint256"
        },
        {
          "internalType": "uint256",
          "name": "tokensPerBlockRate",
          "type": "uint256"
        },
        {
          "internalType": "bool",
          "name": "isInitialized",
          "type": "bool"
        }
      ],
      "stateMutability": "view",
      "type": "function"
    },
    {
      "inputs": [],
      "name": "tokensPerBlock",
      "outputs": [
        {
          "internalType": "uint256",
          "name": "",
          "type": "uint256"
        }
      ],
      "stateMutability": "view",
      "type": "function"
    },
    {
      "inputs": [],
      "name": "totalSupply",
      "outputs": [
        {
          "internalType": "uint256",
          "name": "",
          "type": "uint256"
        }
      ],
      "stateMutability": "view",
      "type": "function"
    },
    {
      "inputs": [
        {
          "internalType": "address",
          "name": "to",
          "type": "address"
        },
        {
          "internalType": "uint256",
          "name": "amount",
          "type": "uint256"
        }
      ],
      "name": "transfer",
      "outputs": [
        {
          "internalType": "bool",
          "name": "",
          "type": "bool"
        }
      ],
      "stateMutability": "nonpayable",
      "type": "function"
    },
    {
      "inputs": [
        {
          "internalType": "address",
          "name": "from",
          "type": "address"
        },
        {
          "internalType": "address",
          "name": "to",
          "type": "address"
        },
        {
          "internalType": "uint256",
          "name": "amount",
          "type": "uint256"
        }
      ],
      "name": "transferFrom",
      "outputs": [
        {
          "internalType": "bool",
          "name": "",
          "type": "bool"
        }
      ],
      "stateMutability": "nonpayable",
      "type": "function"
    },
    {
      "inputs": [
        {
          "internalType": "address",
          "name": "newOwner",
          "type": "address"
        }
      ],
      "name": "transferOwnership",
      "outputs": [],
      "stateMutability": "nonpayable",
      "type": "function"
    },
    {
      "inputs": [],
      "name": "unpause",
      "outputs": [],
      "stateMutability": "nonpayable",
      "type": "function"
    },
    {
      "inputs": [
        {
          "internalType": "address",
          "name": "",
          "type": "address"
        }
      ],
      "name": "whitelist",
      "outputs": [
        {
          "internalType": "bool",
          "name": "",
          "type": "bool"
        }
      ],
      "stateMutability": "view",
      "type": "function"
    }
  ],
  "bytecode": "0x60806040523480156200001157600080fd5b5060405162003bca38038062003bca8339818101604052810190620000379190620005ac565b8484620000596200004d6200012c60201b60201c565b6200013460201b60201c565b60008060146101000a81548160ff0219169083151502179055508160049081620000849190620008b3565b508060059081620000969190620008b3565b50505082600660006101000a81548173ffffffffffffffffffffffffffffffffffffffff021916908373ffffffffffffffffffffffffffffffffffffffff160217905550816008819055506200012181620000f6620001f860201b60201c565b600a62000104919062000b2a565b63068e778062000115919062000b7b565b6200020160201b60201c565b505050505062000cb2565b600033905090565b60008060009054906101000a900473ffffffffffffffffffffffffffffffffffffffff169050816000806101000a81548173ffffffffffffffffffffffffffffffffffffffff021916908373ffffffffffffffffffffffffffffffffffffffff1602179055508173ffffffffffffffffffffffffffffffffffffffff168173ffffffffffffffffffffffffffffffffffffffff167f8be0079c531659141344cd1fd0a4f28419497f9722a3daafe3b4186f6b6457e060405160405180910390a35050565b60006012905090565b600073ffffffffffffffffffffffffffffffffffffffff168273ffffffffffffffffffffffffffffffffffffffff160362000273576040517f08c379a00000000000000000000000000000000000000000000000000000000081526004016200026a9062000c27565b60405180910390fd5b62000287600083836200036f60201b60201c565b80600360008282546200029b919062000c49565b9250508190555080600160008473ffffffffffffffffffffffffffffffffffffffff1673ffffffffffffffffffffffffffffffffffffffff168152602001908152602001600020600082825401925050819055508173ffffffffffffffffffffffffffffffffffffffff16600073ffffffffffffffffffffffffffffffffffffffff167fddf252ad1be2c89b69c2b068fc378daa952ba7f163c4a11628f55a4df523b3ef836040516200034f919062000c95565b60405180910390a36200036b600083836200037460201b60201c565b5050565b505050565b505050565b6000604051905090565b600080fd5b600080fd5b600080fd5b600080fd5b6000601f19601f8301169050919050565b7f4e487b7100000000000000000000000000000000000000000000000000000000600052604160045260246000fd5b620003e28262000397565b810181811067ffffffffffffffff82111715620004045762000403620003a8565b5b80604052505050565b60006200041962000379565b9050620004278282620003d7565b919050565b600067ffffffffffffffff8211156200044a5762000449620003a8565b5b620004558262000397565b9050602081019050919050565b60005b838110156200048257808201518184015260208101905062000465565b60008484015250505050565b6000620004a56200049f846200042c565b6200040d565b905082815260208101848484011115620004c457620004c362000392565b5b620004d184828562000462565b509392505050565b600082601f830112620004f157620004f06200038d565b5b8151620005038482602086016200048e565b91505092915050565b600073ffffffffffffffffffffffffffffffffffffffff82169050919050565b600062000539826200050c565b9050919050565b6200054b816200052c565b81146200055757600080fd5b50565b6000815190506200056b8162000540565b92915050565b6000819050919050565b620005868162000571565b81146200059257600080fd5b50565b600081519050620005a6816200057b565b92915050565b600080600080600060a08688031215620005cb57620005ca62000383565b5b600086015167ffffffffffffffff811115620005ec57620005eb62000388565b5b620005fa88828901620004d9565b955050602086015167ffffffffffffffff8111156200061e576200061d62000388565b5b6200062c88828901620004d9565b94505060406200063f888289016200055a565b9350506060620006528882890162000595565b925050608062000665888289016200055a565b9150509295509295909350565b600081519050919050565b7f4e487b7100000000000000000000000000000000000000000000000000000000600052602260045260246000fd5b60006002820490506001821680620006c557607f821691505b602082108103620006db57620006da6200067d565b5b50919050565b60008190508160005260206000209050919050565b60006020601f8301049050919050565b600082821b905092915050565b600060088302620007457fffffffffffffffffffffffffffffffffffffffffffffffffffffffffffffffff8262000706565b62000751868362000706565b95508019841693508086168417925050509392505050565b6000819050919050565b6000620007946200078e620007888462000571565b62000769565b62000571565b9050919050565b6000819050919050565b620007b08362000773565b620007c8620007bf826200079b565b84845462000713565b825550505050565b600090565b620007df620007d0565b620007ec818484620007a5565b505050565b5b81811015620008145762000808600082620007d5565b600181019050620007f2565b5050565b601f82111562000863576200082d81620006e1565b6200083884620006f6565b8101602085101562000848578190505b620008606200085785620006f6565b830182620007f1565b50505b505050565b600082821c905092915050565b6000620008886000198460080262000868565b1980831691505092915050565b6000620008a3838362000875565b9150826002028217905092915050565b620008be8262000672565b67ffffffffffffffff811115620008da57620008d9620003a8565b5b620008e68254620006ac565b620008f382828562000818565b600060209050601f8311600181146200092b576000841562000916578287015190505b62000922858262000895565b86555062000992565b601f1984166200093b86620006e1565b60005b8281101562000965578489015182556001820191506020850194506020810190506200093e565b8683101562000985578489015162000981601f89168262000875565b8355505b6001600288020188555050505b505050505050565b7f4e487b7100000000000000000000000000000000000000000000000000000000600052601160045260246000fd5b60008160011c9050919050565b6000808291508390505b600185111562000a285780860481111562000a0057620009ff6200099a565b5b600185161562000a105780820291505b808102905062000a2085620009c9565b9450620009e0565b94509492505050565b60008262000a43576001905062000b16565b8162000a53576000905062000b16565b816001811462000a6c576002811462000a775762000aad565b600191505062000b16565b60ff84111562000a8c5762000a8b6200099a565b5b8360020a91508482111562000aa65762000aa56200099a565b5b5062000b16565b5060208310610133831016604e8410600b841016171562000ae75782820a90508381111562000ae15762000ae06200099a565b5b62000b16565b62000af68484846001620009d6565b9250905081840481111562000b105762000b0f6200099a565b5b81810290505b9392505050565b600060ff82169050919050565b600062000b378262000571565b915062000b448362000b1d565b925062000b737fffffffffffffffffffffffffffffffffffffffffffffffffffffffffffffffff848462000a31565b905092915050565b600062000b888262000571565b915062000b958362000571565b925082820262000ba58162000571565b9150828204841483151762000bbf5762000bbe6200099a565b5b5092915050565b600082825260208201905092915050565b7f45524332303a206d696e7420746f20746865207a65726f206164647265737300600082015250565b600062000c0f601f8362000bc6565b915062000c1c8262000bd7565b602082019050919050565b6000602082019050818103600083015262000c428162000c00565b9050919050565b600062000c568262000571565b915062000c638362000571565b925082820190508082111562000c7e5762000c7d6200099a565b5b92915050565b62000c8f8162000571565b82525050565b600060208201905062000cac600083018462000c84565b92915050565b612f088062000cc26000396000f3fe608060405234801561001057600080fd5b50600436106101c45760003560e01c806370d5ae05116100f9578063a457c2d711610097578063d349948e11610071578063d349948e146104e7578063dd62ed3e14610503578063e24d4aa514610533578063f2fde38b1461054f576101c4565b8063a457c2d714610453578063a9059cbb14610483578063ac423ce1146104b3576101c4565b80638da5cb5b116100d35780638da5cb5b146103cb578063913d05fe146103e957806395d89b41146104055780639b19251a14610423576101c4565b806370d5ae0514610399578063715018a6146103b75780638456cb59146103c1576101c4565b80633f4ba83a116101665780634b0e7216116101405780634b0e7216146103135780635c975abb1461032f5780636161eb181461034d57806370a0823114610369576101c4565b80633f4ba83a146102d15780633f914aef146102db57806346436e1b146102f7576101c4565b80631a1cb01f116101a25780631a1cb01f1461023557806323b872dd14610253578063313ce5671461028357806339509351146102a1576101c4565b806306fdde03146101c9578063095ea7b3146101e757806318160ddd14610217575b600080fd5b6101d161056b565b6040516101de9190611e93565b60405180910390f35b61020160048036038101906101fc9190611f58565b6105fd565b60405161020e9190611fb3565b60405180910390f35b61021f610620565b60405161022c9190611fdd565b60405180910390f35b61023d61062a565b60405161024a9190611fdd565b60405180910390f35b61026d60048036038101906102689190611ff8565b610630565b60405161027a9190611fb3565b60405180910390f35b61028b61065f565b6040516102989190612067565b60405180910390f35b6102bb60048036038101906102b69190611f58565b610668565b6040516102c89190611fb3565b60405180910390f35b6102d961069f565b005b6102f560048036038101906102f091906120ae565b610709565b005b610311600480360381019061030c9190612113565b61076c565b005b61032d60048036038101906103289190612166565b610a41565b005b610337610a8d565b6040516103449190611fb3565b60405180910390f35b61036760048036038101906103629190611f58565b610aa3565b005b610383600480360381019061037e9190612166565b610c7a565b6040516103909190611fdd565b60405180910390f35b6103a1610cc3565b6040516103ae91906121a2565b60405180910390f35b6103bf610ce9565b005b6103c9610cfd565b005b6103d3610d68565b6040516103e091906121a2565b60405180910390f35b61040360048036038101906103fe91906121bd565b610d91565b005b61040d610da3565b60405161041a9190611e93565b60405180910390f35b61043d60048036038101906104389190612166565b610e35565b60405161044a9190611fb3565b60405180910390f35b61046d60048036038101906104689190611f58565b610e55565b60405161047a9190611fb3565b60405180910390f35b61049d60048036038101906104989190611f58565b610ecc565b6040516104aa9190611fb3565b60405180910390f35b6104cd60048036038101906104c891906121ea565b610eef565b6040516104de959493929190612217565b60405180910390f35b61050160048036038101906104fc9190612113565b610f32565b005b61051d6004803603810190610518919061226a565b61128b565b60405161052a9190611fdd565b60405180910390f35b61054d600480360381019061054891906123b6565b611312565b005b61056960048036038101906105649190612166565b611429565b005b60606004805461057a90612425565b80601f01602080910402602001604051908101604052809291908181526020018280546105a690612425565b80156105f35780601f106105c8576101008083540402835291602001916105f3565b820191906000526020600020905b8154815290600101906020018083116105d657829003601f168201915b5050505050905090565b6000806106086114ac565b90506106158185856114b4565b600191505092915050565b6000600354905090565b60085481565b60008061063b6114ac565b905061064885828561167d565b610653858585611709565b60019150509392505050565b60006012905090565b6000806106736114ac565b9050610694818585610685858961128b565b61068f9190612485565b6114b4565b600191505092915050565b6106a7611982565b6106af611a00565b60008060146101000a81548160ff0219169083151502179055507f5db9ee0a495bf2e6ff9c91a7834c1ba4fdd244a5e8aa4e537bd38aeae4b073aa6106f26114ac565b6040516106ff91906121a2565b60405180910390a1565b610711611982565b80600760008473ffffffffffffffffffffffffffffffffffffffff1673ffffffffffffffffffffffffffffffffffffffff16815260200190815260200160002060006101000a81548160ff0219169083151502179055505050565b60096000806007811115610783576107826124b9565b5b6007811115610795576107946124b9565b5b815260200190815260200160002060040160009054906101000a900460ff168015610805575060096000600160078111156107d3576107d26124b9565b5b60078111156107e5576107e46124b9565b5b815260200190815260200160002060040160009054906101000a900460ff165b801561085657506009600060026007811115610824576108236124b9565b5b6007811115610836576108356124b9565b5b815260200190815260200160002060040160009054906101000a900460ff165b80156108a757506009600060036007811115610875576108746124b9565b5b6007811115610887576108866124b9565b5b815260200190815260200160002060040160009054906101000a900460ff165b80156108f8575060096000600460078111156108c6576108c56124b9565b5b60078111156108d8576108d76124b9565b5b815260200190815260200160002060040160009054906101000a900460ff165b801561094957506009600060056007811115610917576109166124b9565b5b6007811115610929576109286124b9565b5b815260200190815260200160002060040160009054906101000a900460ff165b801561099a57506009600060066007811115610968576109676124b9565b5b600781111561097a576109796124b9565b5b815260200190815260200160002060040160009054906101000a900460ff165b80156109ea5750600960006007808111156109b8576109b76124b9565b5b60078111156109ca576109c96124b9565b5b815260200190815260200160002060040160009054906101000a900460ff165b610a29576040517f08c379a0000000000000000000000000000000000000000000000000000000008152600401610a2090612534565b60405180910390fd5b610a31611982565b610a3c838383611a49565b505050565b610a49611982565b80600660006101000a81548173ffffffffffffffffffffffffffffffffffffffff021916908373ffffffffffffffffffffffffffffffffffffffff16021790555050565b60008060149054906101000a900460ff16905090565b610aab611982565b600073ffffffffffffffffffffffffffffffffffffffff168273ffffffffffffffffffffffffffffffffffffffff1603610b1a576040517f08c379a0000000000000000000000000000000000000000000000000000000008152600401610b11906125c6565b60405180910390fd5b610b2682600083611b94565b6000600160008473ffffffffffffffffffffffffffffffffffffffff1673ffffffffffffffffffffffffffffffffffffffff16815260200190815260200160002054905081811015610bad576040517f08c379a0000000000000000000000000000000000000000000000000000000008152600401610ba490612658565b60405180910390fd5b818103600160008573ffffffffffffffffffffffffffffffffffffffff1673ffffffffffffffffffffffffffffffffffffffff1681526020019081526020016000208190555081600360008282540392505081905550600073ffffffffffffffffffffffffffffffffffffffff168373ffffffffffffffffffffffffffffffffffffffff167fddf252ad1be2c89b69c2b068fc378daa952ba7f163c4a11628f55a4df523b3ef84604051610c619190611fdd565b60405180910390a3610c7583600084611b99565b505050565b6000600160008373ffffffffffffffffffffffffffffffffffffffff1673ffffffffffffffffffffffffffffffffffffffff168152602001908152602001600020549050919050565b600660009054906101000a900473ffffffffffffffffffffffffffffffffffffffff1681565b610cf1611982565b610cfb6000611b9e565b565b610d05611982565b610d0d611c62565b6001600060146101000a81548160ff0219169083151502179055507f62e78cea01bee320cd4e420270b5ea74000d11b0c9f74754ebdbfc544b05a258610d516114ac565b604051610d5e91906121a2565b60405180910390a1565b60008060009054906101000a900473ffffffffffffffffffffffffffffffffffffffff16905090565b610d99611982565b8060088190555050565b606060058054610db290612425565b80601f0160208091040260200160405190810160405280929190818152602001828054610dde90612425565b8015610e2b5780601f10610e0057610100808354040283529160200191610e2b565b820191906000526020600020905b815481529060010190602001808311610e0e57829003601f168201915b5050505050905090565b60076020528060005260406000206000915054906101000a900460ff1681565b600080610e606114ac565b90506000610e6e828661128b565b905083811015610eb3576040517f08c379a0000000000000000000000000000000000000000000000000000000008152600401610eaa906126ea565b60405180910390fd5b610ec082868684036114b4565b60019250505092915050565b600080610ed76114ac565b9050610ee4818585611709565b600191505092915050565b60096020528060005260406000206000915090508060000154908060010154908060020154908060030154908060040160009054906101000a900460ff16905085565b60096000806007811115610f4957610f486124b9565b5b6007811115610f5b57610f5a6124b9565b5b815260200190815260200160002060040160009054906101000a900460ff168015610fcb57506009600060016007811115610f9957610f986124b9565b5b6007811115610fab57610faa6124b9565b5b815260200190815260200160002060040160009054906101000a900460ff165b801561101c57506009600060026007811115610fea57610fe96124b9565b5b6007811115610ffc57610ffb6124b9565b5b815260200190815260200160002060040160009054906101000a900460ff165b801561106d5750600960006003600781111561103b5761103a6124b9565b5b600781111561104d5761104c6124b9565b5b815260200190815260200160002060040160009054906101000a900460ff165b80156110be5750600960006004600781111561108c5761108b6124b9565b5b600781111561109e5761109d6124b9565b5b815260200190815260200160002060040160009054906101000a900460ff165b801561110f575060096000600560078111156110dd576110dc6124b9565b5b60078111156110ef576110ee6124b9565b5b815260200190815260200160002060040160009054906101000a900460ff165b80156111605750600960006006600781111561112e5761112d6124b9565b5b60078111156111405761113f6124b9565b5b815260200190815260200160002060040160009054906101000a900460ff165b80156111b057506009600060078081111561117e5761117d6124b9565b5b60078111156111905761118f6124b9565b5b815260200190815260200160002060040160009054906101000a900460ff165b6111ef576040517f08c379a00000000000000000000000000000000000000000000000000000000081526004016111e690612534565b60405180910390fd5b600760003373ffffffffffffffffffffffffffffffffffffffff1673ffffffffffffffffffffffffffffffffffffffff16815260200190815260200160002060009054906101000a900460ff1661127b576040517f08c379a000000000000000000000000000000000000000000000000000000000815260040161127290612756565b60405180910390fd5b611286838383611a49565b505050565b6000600260008473ffffffffffffffffffffffffffffffffffffffff1673ffffffffffffffffffffffffffffffffffffffff16815260200190815260200160002060008373ffffffffffffffffffffffffffffffffffffffff1673ffffffffffffffffffffffffffffffffffffffff16815260200190815260200160002054905092915050565b61131a611982565b60096000836007811115611331576113306124b9565b5b6007811115611343576113426124b9565b5b815260200190815260200160002060040160009054906101000a900460ff16156113a2576040517f08c379a0000000000000000000000000000000000000000000000000000000008152600401611399906127c2565b60405180910390fd5b80600960008460078111156113ba576113b96124b9565b5b60078111156113cc576113cb6124b9565b5b81526020019081526020016000206000820151816000015560208201518160010155604082015181600201556060820151816003015560808201518160040160006101000a81548160ff0219169083151502179055509050505050565b611431611982565b600073ffffffffffffffffffffffffffffffffffffffff168173ffffffffffffffffffffffffffffffffffffffff16036114a0576040517f08c379a000000000000000000000000000000000000000000000000000000000815260040161149790612854565b60405180910390fd5b6114a981611b9e565b50565b600033905090565b600073ffffffffffffffffffffffffffffffffffffffff168373ffffffffffffffffffffffffffffffffffffffff1603611523576040517f08c379a000000000000000000000000000000000000000000000000000000000815260040161151a906128e6565b60405180910390fd5b600073ffffffffffffffffffffffffffffffffffffffff168273ffffffffffffffffffffffffffffffffffffffff1603611592576040517f08c379a000000000000000000000000000000000000000000000000000000000815260040161158990612978565b60405180910390fd5b80600260008573ffffffffffffffffffffffffffffffffffffffff1673ffffffffffffffffffffffffffffffffffffffff16815260200190815260200160002060008473ffffffffffffffffffffffffffffffffffffffff1673ffffffffffffffffffffffffffffffffffffffff168152602001908152602001600020819055508173ffffffffffffffffffffffffffffffffffffffff168373ffffffffffffffffffffffffffffffffffffffff167f8c5be1e5ebec7d5bd14f71427d1e84f3dd0314c0f7b2291e5b200ac8c7c3b925836040516116709190611fdd565b60405180910390a3505050565b6000611689848461128b565b90507fffffffffffffffffffffffffffffffffffffffffffffffffffffffffffffffff811461170357818110156116f5576040517f08c379a00000000000000000000000000000000000000000000000000000000081526004016116ec906129e4565b60405180910390fd5b61170284848484036114b4565b5b50505050565b600073ffffffffffffffffffffffffffffffffffffffff168373ffffffffffffffffffffffffffffffffffffffff1603611778576040517f08c379a000000000000000000000000000000000000000000000000000000000815260040161176f90612a76565b60405180910390fd5b600073ffffffffffffffffffffffffffffffffffffffff168273ffffffffffffffffffffffffffffffffffffffff16036117e7576040517f08c379a00000000000000000000000000000000000000000000000000000000081526004016117de90612b08565b60405180910390fd5b6117f2838383611b94565b6000600160008573ffffffffffffffffffffffffffffffffffffffff1673ffffffffffffffffffffffffffffffffffffffff16815260200190815260200160002054905081811015611879576040517f08c379a000000000000000000000000000000000000000000000000000000000815260040161187090612b9a565b60405180910390fd5b818103600160008673ffffffffffffffffffffffffffffffffffffffff1673ffffffffffffffffffffffffffffffffffffffff1681526020019081526020016000208190555081600160008573ffffffffffffffffffffffffffffffffffffffff1673ffffffffffffffffffffffffffffffffffffffff168152602001908152602001600020600082825401925050819055508273ffffffffffffffffffffffffffffffffffffffff168473ffffffffffffffffffffffffffffffffffffffff167fddf252ad1be2c89b69c2b068fc378daa952ba7f163c4a11628f55a4df523b3ef846040516119699190611fdd565b60405180910390a361197c848484611b99565b50505050565b61198a6114ac565b73ffffffffffffffffffffffffffffffffffffffff166119a8610d68565b73ffffffffffffffffffffffffffffffffffffffff16146119fe576040517f08c379a00000000000000000000000000000000000000000000000000000000081526004016119f590612c06565b60405180910390fd5b565b611a08610a8d565b611a47576040517f08c379a0000000000000000000000000000000000000000000000000000000008152600401611a3e90612c72565b60405180910390fd5b565b611a51611c62565b600060096000836007811115611a6a57611a696124b9565b5b6007811115611a7c57611a7b6124b9565b5b815260200190815260200160002090508060010154816000015403611ad6576040517f08c379a0000000000000000000000000000000000000000000000000000000008152600401611acd90612d04565b60405180910390fd5b8060000154838260010154611aeb9190612485565b1115611b085780600101548160000154611b059190612d24565b92505b6000816002015414611b69576000620f42408260030154600854846002015443611b329190612d24565b611b3c9190612d58565b611b469190612d58565b611b509190612dc9565b905083811015611b5e578093505b438260020181905550505b82816001016000828254611b7d9190612485565b92505081905550611b8e8484611cac565b50505050565b505050565b505050565b60008060009054906101000a900473ffffffffffffffffffffffffffffffffffffffff169050816000806101000a81548173ffffffffffffffffffffffffffffffffffffffff021916908373ffffffffffffffffffffffffffffffffffffffff1602179055508173ffffffffffffffffffffffffffffffffffffffff168173ffffffffffffffffffffffffffffffffffffffff167f8be0079c531659141344cd1fd0a4f28419497f9722a3daafe3b4186f6b6457e060405160405180910390a35050565b611c6a610a8d565b15611caa576040517f08c379a0000000000000000000000000000000000000000000000000000000008152600401611ca190612e46565b60405180910390fd5b565b600073ffffffffffffffffffffffffffffffffffffffff168273ffffffffffffffffffffffffffffffffffffffff1603611d1b576040517f08c379a0000000000000000000000000000000000000000000000000000000008152600401611d1290612eb2565b60405180910390fd5b611d2760008383611b94565b8060036000828254611d399190612485565b9250508190555080600160008473ffffffffffffffffffffffffffffffffffffffff1673ffffffffffffffffffffffffffffffffffffffff168152602001908152602001600020600082825401925050819055508173ffffffffffffffffffffffffffffffffffffffff16600073ffffffffffffffffffffffffffffffffffffffff167fddf252ad1be2c89b69c2b068fc378daa952ba7f163c4a11628f55a4df523b3ef83604051611deb9190611fdd565b60405180910390a3611dff60008383611b99565b5050565b600081519050919050565b600082825260208201905092915050565b60005b83811015611e3d578082015181840152602081019050611e22565b60008484015250505050565b6000601f19601f8301169050919050565b6000611e6582611e03565b611e6f8185611e0e565b9350611e7f818560208601611e1f565b611e8881611e49565b840191505092915050565b60006020820190508181036000830152611ead8184611e5a565b905092915050565b6000604051905090565b600080fd5b600073ffffffffffffffffffffffffffffffffffffffff82169050919050565b6000611eef82611ec4565b9050919050565b611eff81611ee4565b8114611f0a57600080fd5b50565b600081359050611f1c81611ef6565b92915050565b6000819050919050565b611f3581611f22565b8114611f4057600080fd5b50565b600081359050611f5281611f2c565b92915050565b60008060408385031215611f6f57611f6e611ebf565b5b6000611f7d85828601611f0d565b9250506020611f8e85828601611f43565b9150509250929050565b60008115159050919050565b611fad81611f98565b82525050565b6000602082019050611fc86000830184611fa4565b92915050565b611fd781611f22565b82525050565b6000602082019050611ff26000830184611fce565b92915050565b60008060006060848603121561201157612010611ebf565b5b600061201f86828701611f0d565b935050602061203086828701611f0d565b925050604061204186828701611f43565b9150509250925092565b600060ff82169050919050565b6120618161204b565b82525050565b600060208201905061207c6000830184612058565b92915050565b61208b81611f98565b811461209657600080fd5b50565b6000813590506120a881612082565b92915050565b600080604083850312156120c5576120c4611ebf565b5b60006120d385828601611f0d565b92505060206120e485828601612099565b9150509250929050565b600881106120fb57600080fd5b50565b60008135905061210d816120ee565b92915050565b60008060006060848603121561212c5761212b611ebf565b5b600061213a86828701611f0d565b935050602061214b86828701611f43565b925050604061215c868287016120fe565b9150509250925092565b60006020828403121561217c5761217b611ebf565b5b600061218a84828501611f0d565b91505092915050565b61219c81611ee4565b82525050565b60006020820190506121b76000830184612193565b92915050565b6000602082840312156121d3576121d2611ebf565b5b60006121e184828501611f43565b91505092915050565b600060208284031215612200576121ff611ebf565b5b600061220e848285016120fe565b91505092915050565b600060a08201905061222c6000830188611fce565b6122396020830187611fce565b6122466040830186611fce565b6122536060830185611fce565b6122606080830184611fa4565b9695505050505050565b6000806040838503121561228157612280611ebf565b5b600061228f85828601611f0d565b92505060206122a085828601611f0d565b9150509250929050565b600080fd5b7f4e487b7100000000000000000000000000000000000000000000000000000000600052604160045260246000fd5b6122e782611e49565b810181811067ffffffffffffffff82111715612306576123056122af565b5b80604052505050565b6000612319611eb5565b905061232582826122de565b919050565b600060a082840312156123405761233f6122aa565b5b61234a60a061230f565b9050600061235a84828501611f43565b600083015250602061236e84828501611f43565b602083015250604061238284828501611f43565b604083015250606061239684828501611f43565b60608301525060806123aa84828501612099565b60808301525092915050565b60008060c083850312156123cd576123cc611ebf565b5b60006123db858286016120fe565b92505060206123ec8582860161232a565b9150509250929050565b7f4e487b7100000000000000000000000000000000000000000000000000000000600052602260045260246000fd5b6000600282049050600182168061243d57607f821691505b6020821081036124505761244f6123f6565b5b50919050565b7f4e487b7100000000000000000000000000000000000000000000000000000000600052601160045260246000fd5b600061249082611f22565b915061249b83611f22565b92508282019050808211156124b3576124b2612456565b5b92915050565b7f4e487b7100000000000000000000000000000000000000000000000000000000600052602160045260246000fd5b7f544152474554535f4e4f545f494e495449414c495a4544000000000000000000600082015250565b600061251e601783611e0e565b9150612529826124e8565b602082019050919050565b6000602082019050818103600083015261254d81612511565b9050919050565b7f45524332303a206275726e2066726f6d20746865207a65726f2061646472657360008201527f7300000000000000000000000000000000000000000000000000000000000000602082015250565b60006125b0602183611e0e565b91506125bb82612554565b604082019050919050565b600060208201905081810360008301526125df816125a3565b9050919050565b7f45524332303a206275726e20616d6f756e7420657863656564732062616c616e60008201527f6365000000000000000000000000000000000000000000000000000000000000602082015250565b6000612642602283611e0e565b915061264d826125e6565b604082019050919050565b6000602082019050818103600083015261267181612635565b9050919050565b7f45524332303a2064656372656173656420616c6c6f77616e63652062656c6f7760008201527f207a65726f000000000000000000000000000000000000000000000000000000602082015250565b60006126d4602583611e0e565b91506126df82612678565b604082019050919050565b60006020820190508181036000830152612703816126c7565b9050919050565b7f4e4f545f414c4c4f574544000000000000000000000000000000000000000000600082015250565b6000612740600b83611e0e565b915061274b8261270a565b602082019050919050565b6000602082019050818103600083015261276f81612733565b9050919050565b7f414c52454144595f494e495449414c495a454400000000000000000000000000600082015250565b60006127ac601383611e0e565b91506127b782612776565b602082019050919050565b600060208201905081810360008301526127db8161279f565b9050919050565b7f4f776e61626c653a206e6577206f776e657220697320746865207a65726f206160008201527f6464726573730000000000000000000000000000000000000000000000000000602082015250565b600061283e602683611e0e565b9150612849826127e2565b604082019050919050565b6000602082019050818103600083015261286d81612831565b9050919050565b7f45524332303a20617070726f76652066726f6d20746865207a65726f2061646460008201527f7265737300000000000000000000000000000000000000000000000000000000602082015250565b60006128d0602483611e0e565b91506128db82612874565b604082019050919050565b600060208201905081810360008301526128ff816128c3565b9050919050565b7f45524332303a20617070726f766520746f20746865207a65726f20616464726560008201527f7373000000000000000000000000000000000000000000000000000000000000602082015250565b6000612962602283611e0e565b915061296d82612906565b604082019050919050565b6000602082019050818103600083015261299181612955565b9050919050565b7f45524332303a20696e73756666696369656e7420616c6c6f77616e6365000000600082015250565b60006129ce601d83611e0e565b91506129d982612998565b602082019050919050565b600060208201905081810360008301526129fd816129c1565b9050919050565b7f45524332303a207472616e736665722066726f6d20746865207a65726f20616460008201527f6472657373000000000000000000000000000000000000000000000000000000602082015250565b6000612a60602583611e0e565b9150612a6b82612a04565b604082019050919050565b60006020820190508181036000830152612a8f81612a53565b9050919050565b7f45524332303a207472616e7366657220746f20746865207a65726f206164647260008201527f6573730000000000000000000000000000000000000000000000000000000000602082015250565b6000612af2602383611e0e565b9150612afd82612a96565b604082019050919050565b60006020820190508181036000830152612b2181612ae5565b9050919050565b7f45524332303a207472616e7366657220616d6f756e742065786365656473206260008201527f616c616e63650000000000000000000000000000000000000000000000000000602082015250565b6000612b84602683611e0e565b9150612b8f82612b28565b604082019050919050565b60006020820190508181036000830152612bb381612b77565b9050919050565b7f4f776e61626c653a2063616c6c6572206973206e6f7420746865206f776e6572600082015250565b6000612bf0602083611e0e565b9150612bfb82612bba565b602082019050919050565b60006020820190508181036000830152612c1f81612be3565b9050919050565b7f5061757361626c653a206e6f7420706175736564000000000000000000000000600082015250565b6000612c5c601483611e0e565b9150612c6782612c26565b602082019050919050565b60006020820190508181036000830152612c8b81612c4f565b9050919050565b7f544845524520415245204e4f20544f4b454e5320464f52204d494e5420464f5260008201527f205448495320505552504f534500000000000000000000000000000000000000602082015250565b6000612cee602d83611e0e565b9150612cf982612c92565b604082019050919050565b60006020820190508181036000830152612d1d81612ce1565b9050919050565b6000612d2f82611f22565b9150612d3a83611f22565b9250828203905081811115612d5257612d51612456565b5b92915050565b6000612d6382611f22565b9150612d6e83611f22565b9250828202612d7c81611f22565b91508282048414831517612d9357612d92612456565b5b5092915050565b7f4e487b7100000000000000000000000000000000000000000000000000000000600052601260045260246000fd5b6000612dd482611f22565b9150612ddf83611f22565b925082612def57612dee612d9a565b5b828204905092915050565b7f5061757361626c653a2070617573656400000000000000000000000000000000600082015250565b6000612e30601083611e0e565b9150612e3b82612dfa565b602082019050919050565b60006020820190508181036000830152612e5f81612e23565b9050919050565b7f45524332303a206d696e7420746f20746865207a65726f206164647265737300600082015250565b6000612e9c601f83611e0e565b9150612ea782612e66565b602082019050919050565b60006020820190508181036000830152612ecb81612e8f565b905091905056fea264697066735822122075e49244e469d45377b3187a40fd340be22ad9b4e5e974c1228aaf98cefb049264736f6c63430008110033",
  "linkReferences": {},
  "deployedLinkReferences": {}
}