{
  "_format": "hh-sol-artifact-1",
  "contractName": "CanvaToken",
  "sourceName": "contracts/CanvaToken.sol",
  "abi": [
    {
      "inputs": [
        {
          "internalType": "string",
          "name": "_tokenFullName",
          "type": "string"
        },
        {
          "internalType": "string",
          "name": "_tokenTicker",
          "type": "string"
        },
        {
          "internalType": "address",
          "name": "_burnAddress",
          "type": "address"
        },
        {
          "internalType": "uint256",
          "name": "_tokensPerBlock",
          "type": "uint256"
        },
        {
          "internalType": "address",
          "name": "_toMint",
          "type": "address"
        }
      ],
      "stateMutability": "nonpayable",
      "type": "constructor"
    },
    {
      "anonymous": false,
      "inputs": [
        {
          "indexed": true,
          "internalType": "address",
          "name": "owner",
          "type": "address"
        },
        {
          "indexed": true,
          "internalType": "address",
          "name": "spender",
          "type": "address"
        },
        {
          "indexed": false,
          "internalType": "uint256",
          "name": "value",
          "type": "uint256"
        }
      ],
      "name": "Approval",
      "type": "event"
    },
    {
      "anonymous": false,
      "inputs": [
        {
          "indexed": true,
          "internalType": "address",
          "name": "previousOwner",
          "type": "address"
        },
        {
          "indexed": true,
          "internalType": "address",
          "name": "newOwner",
          "type": "address"
        }
      ],
      "name": "OwnershipTransferred",
      "type": "event"
    },
    {
      "anonymous": false,
      "inputs": [
        {
          "indexed": false,
          "internalType": "address",
          "name": "account",
          "type": "address"
        }
      ],
      "name": "Paused",
      "type": "event"
    },
    {
      "anonymous": false,
      "inputs": [
        {
          "indexed": true,
          "internalType": "bytes32",
          "name": "role",
          "type": "bytes32"
        },
        {
          "indexed": true,
          "internalType": "bytes32",
          "name": "previousAdminRole",
          "type": "bytes32"
        },
        {
          "indexed": true,
          "internalType": "bytes32",
          "name": "newAdminRole",
          "type": "bytes32"
        }
      ],
      "name": "RoleAdminChanged",
      "type": "event"
    },
    {
      "anonymous": false,
      "inputs": [
        {
          "indexed": true,
          "internalType": "bytes32",
          "name": "role",
          "type": "bytes32"
        },
        {
          "indexed": true,
          "internalType": "address",
          "name": "account",
          "type": "address"
        },
        {
          "indexed": true,
          "internalType": "address",
          "name": "sender",
          "type": "address"
        }
      ],
      "name": "RoleGranted",
      "type": "event"
    },
    {
      "anonymous": false,
      "inputs": [
        {
          "indexed": true,
          "internalType": "bytes32",
          "name": "role",
          "type": "bytes32"
        },
        {
          "indexed": true,
          "internalType": "address",
          "name": "account",
          "type": "address"
        },
        {
          "indexed": true,
          "internalType": "address",
          "name": "sender",
          "type": "address"
        }
      ],
      "name": "RoleRevoked",
      "type": "event"
    },
    {
      "anonymous": false,
      "inputs": [
        {
          "indexed": true,
          "internalType": "address",
          "name": "from",
          "type": "address"
        },
        {
          "indexed": true,
          "internalType": "address",
          "name": "to",
          "type": "address"
        },
        {
          "indexed": false,
          "internalType": "uint256",
          "name": "value",
          "type": "uint256"
        }
      ],
      "name": "Transfer",
      "type": "event"
    },
    {
      "anonymous": false,
      "inputs": [
        {
          "indexed": false,
          "internalType": "address",
          "name": "account",
          "type": "address"
        }
      ],
      "name": "Unpaused",
      "type": "event"
    },
    {
      "inputs": [],
      "name": "BURN_ALLOW",
      "outputs": [
        {
          "internalType": "bytes32",
          "name": "",
          "type": "bytes32"
        }
      ],
      "stateMutability": "view",
      "type": "function"
    },
    {
      "inputs": [],
      "name": "DEFAULT_ADMIN_ROLE",
      "outputs": [
        {
          "internalType": "bytes32",
          "name": "",
          "type": "bytes32"
        }
      ],
      "stateMutability": "view",
      "type": "function"
    },
    {
      "inputs": [
        {
          "internalType": "address",
          "name": "account",
          "type": "address"
        },
        {
          "internalType": "uint256",
          "name": "amount",
          "type": "uint256"
        }
      ],
      "name": "_burn",
      "outputs": [],
      "stateMutability": "nonpayable",
      "type": "function"
    },
    {
      "inputs": [
        {
          "internalType": "address",
          "name": "owner",
          "type": "address"
        },
        {
          "internalType": "address",
          "name": "spender",
          "type": "address"
        }
      ],
      "name": "allowance",
      "outputs": [
        {
          "internalType": "uint256",
          "name": "",
          "type": "uint256"
        }
      ],
      "stateMutability": "view",
      "type": "function"
    },
    {
      "inputs": [
        {
          "internalType": "address",
          "name": "spender",
          "type": "address"
        },
        {
          "internalType": "uint256",
          "name": "amount",
          "type": "uint256"
        }
      ],
      "name": "approve",
      "outputs": [
        {
          "internalType": "bool",
          "name": "",
          "type": "bool"
        }
      ],
      "stateMutability": "nonpayable",
      "type": "function"
    },
    {
      "inputs": [
        {
          "internalType": "address",
          "name": "account",
          "type": "address"
        }
      ],
      "name": "balanceOf",
      "outputs": [
        {
          "internalType": "uint256",
          "name": "",
          "type": "uint256"
        }
      ],
      "stateMutability": "view",
      "type": "function"
    },
    {
      "inputs": [],
      "name": "burnAddress",
      "outputs": [
        {
          "internalType": "address",
          "name": "",
          "type": "address"
        }
      ],
      "stateMutability": "view",
      "type": "function"
    },
    {
      "inputs": [],
      "name": "decimals",
      "outputs": [
        {
          "internalType": "uint8",
          "name": "",
          "type": "uint8"
        }
      ],
      "stateMutability": "view",
      "type": "function"
    },
    {
      "inputs": [
        {
          "internalType": "address",
          "name": "spender",
          "type": "address"
        },
        {
          "internalType": "uint256",
          "name": "subtractedValue",
          "type": "uint256"
        }
      ],
      "name": "decreaseAllowance",
      "outputs": [
        {
          "internalType": "bool",
          "name": "",
          "type": "bool"
        }
      ],
      "stateMutability": "nonpayable",
      "type": "function"
    },
    {
      "inputs": [
        {
          "internalType": "bytes32",
          "name": "role",
          "type": "bytes32"
        }
      ],
      "name": "getRoleAdmin",
      "outputs": [
        {
          "internalType": "bytes32",
          "name": "",
          "type": "bytes32"
        }
      ],
      "stateMutability": "view",
      "type": "function"
    },
    {
      "inputs": [
        {
          "internalType": "address",
          "name": "_burnAllow",
          "type": "address"
        }
      ],
      "name": "grantBurnRole",
      "outputs": [],
      "stateMutability": "nonpayable",
      "type": "function"
    },
    {
      "inputs": [
        {
          "internalType": "bytes32",
          "name": "role",
          "type": "bytes32"
        },
        {
          "internalType": "address",
          "name": "account",
          "type": "address"
        }
      ],
      "name": "grantRole",
      "outputs": [],
      "stateMutability": "nonpayable",
      "type": "function"
    },
    {
      "inputs": [
        {
          "internalType": "bytes32",
          "name": "role",
          "type": "bytes32"
        },
        {
          "internalType": "address",
          "name": "account",
          "type": "address"
        }
      ],
      "name": "hasRole",
      "outputs": [
        {
          "internalType": "bool",
          "name": "",
          "type": "bool"
        }
      ],
      "stateMutability": "view",
      "type": "function"
    },
    {
      "inputs": [
        {
          "internalType": "address",
          "name": "spender",
          "type": "address"
        },
        {
          "internalType": "uint256",
          "name": "addedValue",
          "type": "uint256"
        }
      ],
      "name": "increaseAllowance",
      "outputs": [
        {
          "internalType": "bool",
          "name": "",
          "type": "bool"
        }
      ],
      "stateMutability": "nonpayable",
      "type": "function"
    },
    {
      "inputs": [
        {
          "internalType": "address",
          "name": "_to",
          "type": "address"
        },
        {
          "internalType": "uint256",
          "name": "_amount",
          "type": "uint256"
        },
        {
          "internalType": "enum CanvaToken.Target",
          "name": "_target",
          "type": "uint8"
        }
      ],
      "name": "mintByContract",
      "outputs": [],
      "stateMutability": "nonpayable",
      "type": "function"
    },
    {
      "inputs": [
        {
          "internalType": "address",
          "name": "_to",
          "type": "address"
        },
        {
          "internalType": "uint256",
          "name": "_amount",
          "type": "uint256"
        },
        {
          "internalType": "enum CanvaToken.Target",
          "name": "_target",
          "type": "uint8"
        }
      ],
      "name": "mintByOwner",
      "outputs": [],
      "stateMutability": "nonpayable",
      "type": "function"
    },
    {
      "inputs": [],
      "name": "name",
      "outputs": [
        {
          "internalType": "string",
          "name": "",
          "type": "string"
        }
      ],
      "stateMutability": "view",
      "type": "function"
    },
    {
      "inputs": [],
      "name": "owner",
      "outputs": [
        {
          "internalType": "address",
          "name": "",
          "type": "address"
        }
      ],
      "stateMutability": "view",
      "type": "function"
    },
    {
      "inputs": [],
      "name": "pause",
      "outputs": [],
      "stateMutability": "nonpayable",
      "type": "function"
    },
    {
      "inputs": [],
      "name": "paused",
      "outputs": [
        {
          "internalType": "bool",
          "name": "",
          "type": "bool"
        }
      ],
      "stateMutability": "view",
      "type": "function"
    },
    {
      "inputs": [],
      "name": "renounceOwnership",
      "outputs": [],
      "stateMutability": "nonpayable",
      "type": "function"
    },
    {
      "inputs": [
        {
          "internalType": "bytes32",
          "name": "role",
          "type": "bytes32"
        },
        {
          "internalType": "address",
          "name": "account",
          "type": "address"
        }
      ],
      "name": "renounceRole",
      "outputs": [],
      "stateMutability": "nonpayable",
      "type": "function"
    },
    {
      "inputs": [
        {
          "internalType": "bytes32",
          "name": "role",
          "type": "bytes32"
        },
        {
          "internalType": "address",
          "name": "account",
          "type": "address"
        }
      ],
      "name": "revokeRole",
      "outputs": [],
      "stateMutability": "nonpayable",
      "type": "function"
    },
    {
      "inputs": [
        {
          "internalType": "address",
          "name": "_newBurnAddress",
          "type": "address"
        }
      ],
      "name": "setBurnAddress",
      "outputs": [],
      "stateMutability": "nonpayable",
      "type": "function"
    },
    {
      "inputs": [
        {
          "internalType": "enum CanvaToken.Target",
          "name": "_target",
          "type": "uint8"
        },
        {
          "components": [
            {
              "internalType": "uint256",
              "name": "capAmount",
              "type": "uint256"
            },
            {
              "internalType": "uint256",
              "name": "distributedAmount",
              "type": "uint256"
            },
            {
              "internalType": "uint256",
              "name": "lastHarvestedAtBlock",
              "type": "uint256"
            },
            {
              "internalType": "uint256",
              "name": "tokensPerBlockRate",
              "type": "uint256"
            },
            {
              "internalType": "bool",
              "name": "isInitialized",
              "type": "bool"
            }
          ],
          "internalType": "struct CanvaToken.TargetInfo",
          "name": "_targetInfo",
          "type": "tuple"
        }
      ],
      "name": "setTargetInfo",
      "outputs": [],
      "stateMutability": "nonpayable",
      "type": "function"
    },
    {
      "inputs": [
        {
          "internalType": "uint256",
          "name": "_tokensPerBlock",
          "type": "uint256"
        }
      ],
      "name": "setTokensPerBlock",
      "outputs": [],
      "stateMutability": "nonpayable",
      "type": "function"
    },
    {
      "inputs": [
        {
          "internalType": "address",
          "name": "_targetAddress",
          "type": "address"
        },
        {
          "internalType": "bool",
          "name": "_isWhitelisted",
          "type": "bool"
        }
      ],
      "name": "setWhitelistAddress",
      "outputs": [],
      "stateMutability": "nonpayable",
      "type": "function"
    },
    {
      "inputs": [
        {
          "internalType": "bytes4",
          "name": "interfaceId",
          "type": "bytes4"
        }
      ],
      "name": "supportsInterface",
      "outputs": [
        {
          "internalType": "bool",
          "name": "",
          "type": "bool"
        }
      ],
      "stateMutability": "view",
      "type": "function"
    },
    {
      "inputs": [],
      "name": "symbol",
      "outputs": [
        {
          "internalType": "string",
          "name": "",
          "type": "string"
        }
      ],
      "stateMutability": "view",
      "type": "function"
    },
    {
      "inputs": [
        {
          "internalType": "enum CanvaToken.Target",
          "name": "",
          "type": "uint8"
        }
      ],
      "name": "targets",
      "outputs": [
        {
          "internalType": "uint256",
          "name": "capAmount",
          "type": "uint256"
        },
        {
          "internalType": "uint256",
          "name": "distributedAmount",
          "type": "uint256"
        },
        {
          "internalType": "uint256",
          "name": "lastHarvestedAtBlock",
          "type": "uint256"
        },
        {
          "internalType": "uint256",
          "name": "tokensPerBlockRate",
          "type": "uint256"
        },
        {
          "internalType": "bool",
          "name": "isInitialized",
          "type": "bool"
        }
      ],
      "stateMutability": "view",
      "type": "function"
    },
    {
      "inputs": [],
      "name": "tokensPerBlock",
      "outputs": [
        {
          "internalType": "uint256",
          "name": "",
          "type": "uint256"
        }
      ],
      "stateMutability": "view",
      "type": "function"
    },
    {
      "inputs": [],
      "name": "totalSupply",
      "outputs": [
        {
          "internalType": "uint256",
          "name": "",
          "type": "uint256"
        }
      ],
      "stateMutability": "view",
      "type": "function"
    },
    {
      "inputs": [
        {
          "internalType": "address",
          "name": "to",
          "type": "address"
        },
        {
          "internalType": "uint256",
          "name": "amount",
          "type": "uint256"
        }
      ],
      "name": "transfer",
      "outputs": [
        {
          "internalType": "bool",
          "name": "",
          "type": "bool"
        }
      ],
      "stateMutability": "nonpayable",
      "type": "function"
    },
    {
      "inputs": [
        {
          "internalType": "address",
          "name": "from",
          "type": "address"
        },
        {
          "internalType": "address",
          "name": "to",
          "type": "address"
        },
        {
          "internalType": "uint256",
          "name": "amount",
          "type": "uint256"
        }
      ],
      "name": "transferFrom",
      "outputs": [
        {
          "internalType": "bool",
          "name": "",
          "type": "bool"
        }
      ],
      "stateMutability": "nonpayable",
      "type": "function"
    },
    {
      "inputs": [
        {
          "internalType": "address",
          "name": "newOwner",
          "type": "address"
        }
      ],
      "name": "transferOwnership",
      "outputs": [],
      "stateMutability": "nonpayable",
      "type": "function"
    },
    {
      "inputs": [],
      "name": "unpause",
      "outputs": [],
      "stateMutability": "nonpayable",
      "type": "function"
    },
    {
      "inputs": [
        {
          "internalType": "address",
          "name": "",
          "type": "address"
        }
      ],
      "name": "whitelist",
      "outputs": [
        {
          "internalType": "bool",
          "name": "",
          "type": "bool"
        }
      ],
      "stateMutability": "view",
      "type": "function"
    }
  ],
  "bytecode": "0x60806040523480156200001157600080fd5b506040516200486d3803806200486d833981810160405281019062000037919062000722565b8484620000596200004d6200012660201b60201c565b6200012e60201b60201c565b60008060146101000a81548160ff021916908315150217905550816005908162000084919062000a29565b50806006908162000096919062000a29565b50620000bb6000801b620000af620001f260201b60201c565b6200021b60201b60201c565b505082600760006101000a81548173ffffffffffffffffffffffffffffffffffffffff021916908373ffffffffffffffffffffffffffffffffffffffff160217905550816009819055506200011b8163068e77806200030c60201b60201c565b505050505062000c2b565b600033905090565b60008060009054906101000a900473ffffffffffffffffffffffffffffffffffffffff169050816000806101000a81548173ffffffffffffffffffffffffffffffffffffffff021916908373ffffffffffffffffffffffffffffffffffffffff1602179055508173ffffffffffffffffffffffffffffffffffffffff168173ffffffffffffffffffffffffffffffffffffffff167f8be0079c531659141344cd1fd0a4f28419497f9722a3daafe3b4186f6b6457e060405160405180910390a35050565b60008060009054906101000a900473ffffffffffffffffffffffffffffffffffffffff16905090565b6200022d82826200047a60201b60201c565b6200030857600180600084815260200190815260200160002060000160008373ffffffffffffffffffffffffffffffffffffffff1673ffffffffffffffffffffffffffffffffffffffff16815260200190815260200160002060006101000a81548160ff021916908315150217905550620002ad6200012660201b60201c565b73ffffffffffffffffffffffffffffffffffffffff168173ffffffffffffffffffffffffffffffffffffffff16837f2f8788117e7eff1d82e926ec794901d17c78024a50270940304540a733656f0d60405160405180910390a45b5050565b600073ffffffffffffffffffffffffffffffffffffffff168273ffffffffffffffffffffffffffffffffffffffff16036200037e576040517f08c379a0000000000000000000000000000000000000000000000000000000008152600401620003759062000b71565b60405180910390fd5b6200039260008383620004e560201b60201c565b8060046000828254620003a6919062000bc2565b9250508190555080600260008473ffffffffffffffffffffffffffffffffffffffff1673ffffffffffffffffffffffffffffffffffffffff168152602001908152602001600020600082825401925050819055508173ffffffffffffffffffffffffffffffffffffffff16600073ffffffffffffffffffffffffffffffffffffffff167fddf252ad1be2c89b69c2b068fc378daa952ba7f163c4a11628f55a4df523b3ef836040516200045a919062000c0e565b60405180910390a36200047660008383620004ea60201b60201c565b5050565b60006001600084815260200190815260200160002060000160008373ffffffffffffffffffffffffffffffffffffffff1673ffffffffffffffffffffffffffffffffffffffff16815260200190815260200160002060009054906101000a900460ff16905092915050565b505050565b505050565b6000604051905090565b600080fd5b600080fd5b600080fd5b600080fd5b6000601f19601f8301169050919050565b7f4e487b7100000000000000000000000000000000000000000000000000000000600052604160045260246000fd5b62000558826200050d565b810181811067ffffffffffffffff821117156200057a57620005796200051e565b5b80604052505050565b60006200058f620004ef565b90506200059d82826200054d565b919050565b600067ffffffffffffffff821115620005c057620005bf6200051e565b5b620005cb826200050d565b9050602081019050919050565b60005b83811015620005f8578082015181840152602081019050620005db565b60008484015250505050565b60006200061b6200061584620005a2565b62000583565b9050828152602081018484840111156200063a576200063962000508565b5b62000647848285620005d8565b509392505050565b600082601f83011262000667576200066662000503565b5b81516200067984826020860162000604565b91505092915050565b600073ffffffffffffffffffffffffffffffffffffffff82169050919050565b6000620006af8262000682565b9050919050565b620006c181620006a2565b8114620006cd57600080fd5b50565b600081519050620006e181620006b6565b92915050565b6000819050919050565b620006fc81620006e7565b81146200070857600080fd5b50565b6000815190506200071c81620006f1565b92915050565b600080600080600060a08688031215620007415762000740620004f9565b5b600086015167ffffffffffffffff811115620007625762000761620004fe565b5b62000770888289016200064f565b955050602086015167ffffffffffffffff811115620007945762000793620004fe565b5b620007a2888289016200064f565b9450506040620007b588828901620006d0565b9350506060620007c8888289016200070b565b9250506080620007db88828901620006d0565b9150509295509295909350565b600081519050919050565b7f4e487b7100000000000000000000000000000000000000000000000000000000600052602260045260246000fd5b600060028204905060018216806200083b57607f821691505b602082108103620008515762000850620007f3565b5b50919050565b60008190508160005260206000209050919050565b60006020601f8301049050919050565b600082821b905092915050565b600060088302620008bb7fffffffffffffffffffffffffffffffffffffffffffffffffffffffffffffffff826200087c565b620008c786836200087c565b95508019841693508086168417925050509392505050565b6000819050919050565b60006200090a62000904620008fe84620006e7565b620008df565b620006e7565b9050919050565b6000819050919050565b6200092683620008e9565b6200093e620009358262000911565b84845462000889565b825550505050565b600090565b6200095562000946565b620009628184846200091b565b505050565b5b818110156200098a576200097e6000826200094b565b60018101905062000968565b5050565b601f821115620009d957620009a38162000857565b620009ae846200086c565b81016020851015620009be578190505b620009d6620009cd856200086c565b83018262000967565b50505b505050565b600082821c905092915050565b6000620009fe60001984600802620009de565b1980831691505092915050565b600062000a198383620009eb565b9150826002028217905092915050565b62000a3482620007e8565b67ffffffffffffffff81111562000a505762000a4f6200051e565b5b62000a5c825462000822565b62000a698282856200098e565b600060209050601f83116001811462000aa1576000841562000a8c578287015190505b62000a98858262000a0b565b86555062000b08565b601f19841662000ab18662000857565b60005b8281101562000adb5784890151825560018201915060208501945060208101905062000ab4565b8683101562000afb578489015162000af7601f891682620009eb565b8355505b6001600288020188555050505b505050505050565b600082825260208201905092915050565b7f45524332303a206d696e7420746f20746865207a65726f206164647265737300600082015250565b600062000b59601f8362000b10565b915062000b668262000b21565b602082019050919050565b6000602082019050818103600083015262000b8c8162000b4a565b9050919050565b7f4e487b7100000000000000000000000000000000000000000000000000000000600052601160045260246000fd5b600062000bcf82620006e7565b915062000bdc83620006e7565b925082820190508082111562000bf75762000bf662000b93565b5b92915050565b62000c0881620006e7565b82525050565b600060208201905062000c25600083018462000bfd565b92915050565b613c328062000c3b6000396000f3fe608060405234801561001057600080fd5b50600436106102275760003560e01c806370d5ae0511610130578063a457c2d7116100b8578063d349948e1161007c578063d349948e1461066a578063d547741f14610686578063dd62ed3e146106a2578063e24d4aa5146106d2578063f2fde38b146106ee57610227565b8063a457c2d71461059c578063a9059cbb146105cc578063ac423ce1146105fc578063af7ac8c914610630578063c64d0ebc1461064e57610227565b8063913d05fe116100ff578063913d05fe146104e457806391d148541461050057806395d89b41146105305780639b19251a1461054e578063a217fddf1461057e57610227565b806370d5ae0514610494578063715018a6146104b25780638456cb59146104bc5780638da5cb5b146104c657610227565b806336568abe116101b357806346436e1b1161018257806346436e1b146103f25780634b0e72161461040e5780635c975abb1461042a5780636161eb181461044857806370a082311461046457610227565b806336568abe14610380578063395093511461039c5780633f4ba83a146103cc5780633f914aef146103d657610227565b80631a1cb01f116101fa5780631a1cb01f146102c857806323b872dd146102e6578063248a9ca3146103165780632f2ff15d14610346578063313ce5671461036257610227565b806301ffc9a71461022c57806306fdde031461025c578063095ea7b31461027a57806318160ddd146102aa575b600080fd5b610246600480360381019061024191906127de565b61070a565b6040516102539190612826565b60405180910390f35b610264610784565b60405161027191906128d1565b60405180910390f35b610294600480360381019061028f9190612987565b610816565b6040516102a19190612826565b60405180910390f35b6102b2610839565b6040516102bf91906129d6565b60405180910390f35b6102d0610843565b6040516102dd91906129d6565b60405180910390f35b61030060048036038101906102fb91906129f1565b610849565b60405161030d9190612826565b60405180910390f35b610330600480360381019061032b9190612a7a565b610878565b60405161033d9190612ab6565b60405180910390f35b610360600480360381019061035b9190612ad1565b610898565b005b61036a6108b9565b6040516103779190612b2d565b60405180910390f35b61039a60048036038101906103959190612ad1565b6108c2565b005b6103b660048036038101906103b19190612987565b610945565b6040516103c39190612826565b60405180910390f35b6103d461097c565b005b6103f060048036038101906103eb9190612b74565b6109e6565b005b61040c60048036038101906104079190612bd9565b610a49565b005b61042860048036038101906104239190612c2c565b610d1e565b005b610432610d6a565b60405161043f9190612826565b60405180910390f35b610462600480360381019061045d9190612987565b610d80565b005b61047e60048036038101906104799190612c2c565b610f96565b60405161048b91906129d6565b60405180910390f35b61049c610fdf565b6040516104a99190612c68565b60405180910390f35b6104ba611005565b005b6104c4611019565b005b6104ce611084565b6040516104db9190612c68565b60405180910390f35b6104fe60048036038101906104f99190612c83565b6110ad565b005b61051a60048036038101906105159190612ad1565b6110bf565b6040516105279190612826565b60405180910390f35b61053861112a565b60405161054591906128d1565b60405180910390f35b61056860048036038101906105639190612c2c565b6111bc565b6040516105759190612826565b60405180910390f35b6105866111dc565b6040516105939190612ab6565b60405180910390f35b6105b660048036038101906105b19190612987565b6111e3565b6040516105c39190612826565b60405180910390f35b6105e660048036038101906105e19190612987565b61125a565b6040516105f39190612826565b60405180910390f35b61061660048036038101906106119190612cb0565b61127d565b604051610627959493929190612cdd565b60405180910390f35b6106386112c0565b6040516106459190612ab6565b60405180910390f35b61066860048036038101906106639190612c2c565b611300565b005b610684600480360381019061067f9190612bd9565b611357565b005b6106a0600480360381019061069b9190612ad1565b6116b0565b005b6106bc60048036038101906106b79190612d30565b6116d1565b6040516106c991906129d6565b60405180910390f35b6106ec60048036038101906106e79190612e7c565b611758565b005b61070860048036038101906107039190612c2c565b61186f565b005b60007f7965db0b000000000000000000000000000000000000000000000000000000007bffffffffffffffffffffffffffffffffffffffffffffffffffffffff1916827bffffffffffffffffffffffffffffffffffffffffffffffffffffffff1916148061077d575061077c826118f2565b5b9050919050565b60606005805461079390612eeb565b80601f01602080910402602001604051908101604052809291908181526020018280546107bf90612eeb565b801561080c5780601f106107e15761010080835404028352916020019161080c565b820191906000526020600020905b8154815290600101906020018083116107ef57829003601f168201915b5050505050905090565b60008061082161195c565b905061082e818585611964565b600191505092915050565b6000600454905090565b60095481565b60008061085461195c565b9050610861858285611b2d565b61086c858585611bb9565b60019150509392505050565b600060016000838152602001908152602001600020600101549050919050565b6108a182610878565b6108aa81611e32565b6108b48383611e46565b505050565b60006012905090565b6108ca61195c565b73ffffffffffffffffffffffffffffffffffffffff168173ffffffffffffffffffffffffffffffffffffffff1614610937576040517f08c379a000000000000000000000000000000000000000000000000000000000815260040161092e90612f8e565b60405180910390fd5b6109418282611f26565b5050565b60008061095061195c565b905061097181858561096285896116d1565b61096c9190612fdd565b611964565b600191505092915050565b610984612008565b61098c612086565b60008060146101000a81548160ff0219169083151502179055507f5db9ee0a495bf2e6ff9c91a7834c1ba4fdd244a5e8aa4e537bd38aeae4b073aa6109cf61195c565b6040516109dc9190612c68565b60405180910390a1565b6109ee612008565b80600860008473ffffffffffffffffffffffffffffffffffffffff1673ffffffffffffffffffffffffffffffffffffffff16815260200190815260200160002060006101000a81548160ff0219169083151502179055505050565b600a6000806007811115610a6057610a5f613011565b5b6007811115610a7257610a71613011565b5b815260200190815260200160002060040160009054906101000a900460ff168015610ae25750600a600060016007811115610ab057610aaf613011565b5b6007811115610ac257610ac1613011565b5b815260200190815260200160002060040160009054906101000a900460ff165b8015610b335750600a600060026007811115610b0157610b00613011565b5b6007811115610b1357610b12613011565b5b815260200190815260200160002060040160009054906101000a900460ff165b8015610b845750600a600060036007811115610b5257610b51613011565b5b6007811115610b6457610b63613011565b5b815260200190815260200160002060040160009054906101000a900460ff165b8015610bd55750600a600060046007811115610ba357610ba2613011565b5b6007811115610bb557610bb4613011565b5b815260200190815260200160002060040160009054906101000a900460ff165b8015610c265750600a600060056007811115610bf457610bf3613011565b5b6007811115610c0657610c05613011565b5b815260200190815260200160002060040160009054906101000a900460ff165b8015610c775750600a600060066007811115610c4557610c44613011565b5b6007811115610c5757610c56613011565b5b815260200190815260200160002060040160009054906101000a900460ff165b8015610cc75750600a6000600780811115610c9557610c94613011565b5b6007811115610ca757610ca6613011565b5b815260200190815260200160002060040160009054906101000a900460ff165b610d06576040517f08c379a0000000000000000000000000000000000000000000000000000000008152600401610cfd9061308c565b60405180910390fd5b610d0e612008565b610d198383836120cf565b505050565b610d26612008565b80600760006101000a81548173ffffffffffffffffffffffffffffffffffffffff021916908373ffffffffffffffffffffffffffffffffffffffff16021790555050565b60008060149054906101000a900460ff16905090565b6040518060400160405280600a81526020017f4255524e5f414c4c4f570000000000000000000000000000000000000000000081525080519060200120610dc681611e32565b600073ffffffffffffffffffffffffffffffffffffffff168373ffffffffffffffffffffffffffffffffffffffff1603610e35576040517f08c379a0000000000000000000000000000000000000000000000000000000008152600401610e2c9061311e565b60405180910390fd5b610e418360008461221a565b6000600260008573ffffffffffffffffffffffffffffffffffffffff1673ffffffffffffffffffffffffffffffffffffffff16815260200190815260200160002054905082811015610ec8576040517f08c379a0000000000000000000000000000000000000000000000000000000008152600401610ebf906131b0565b60405180910390fd5b828103600260008673ffffffffffffffffffffffffffffffffffffffff1673ffffffffffffffffffffffffffffffffffffffff1681526020019081526020016000208190555082600460008282540392505081905550600073ffffffffffffffffffffffffffffffffffffffff168473ffffffffffffffffffffffffffffffffffffffff167fddf252ad1be2c89b69c2b068fc378daa952ba7f163c4a11628f55a4df523b3ef85604051610f7c91906129d6565b60405180910390a3610f908460008561221f565b50505050565b6000600260008373ffffffffffffffffffffffffffffffffffffffff1673ffffffffffffffffffffffffffffffffffffffff168152602001908152602001600020549050919050565b600760009054906101000a900473ffffffffffffffffffffffffffffffffffffffff1681565b61100d612008565b6110176000612224565b565b611021612008565b6110296122e8565b6001600060146101000a81548160ff0219169083151502179055507f62e78cea01bee320cd4e420270b5ea74000d11b0c9f74754ebdbfc544b05a25861106d61195c565b60405161107a9190612c68565b60405180910390a1565b60008060009054906101000a900473ffffffffffffffffffffffffffffffffffffffff16905090565b6110b5612008565b8060098190555050565b60006001600084815260200190815260200160002060000160008373ffffffffffffffffffffffffffffffffffffffff1673ffffffffffffffffffffffffffffffffffffffff16815260200190815260200160002060009054906101000a900460ff16905092915050565b60606006805461113990612eeb565b80601f016020809104026020016040519081016040528092919081815260200182805461116590612eeb565b80156111b25780601f10611187576101008083540402835291602001916111b2565b820191906000526020600020905b81548152906001019060200180831161119557829003601f168201915b5050505050905090565b60086020528060005260406000206000915054906101000a900460ff1681565b6000801b81565b6000806111ee61195c565b905060006111fc82866116d1565b905083811015611241576040517f08c379a000000000000000000000000000000000000000000000000000000000815260040161123890613242565b60405180910390fd5b61124e8286868403611964565b60019250505092915050565b60008061126561195c565b9050611272818585611bb9565b600191505092915050565b600a6020528060005260406000206000915090508060000154908060010154908060020154908060030154908060040160009054906101000a900460ff16905085565b6040518060400160405280600a81526020017f4255524e5f414c4c4f57000000000000000000000000000000000000000000008152508051906020012081565b6000801b61130d81611e32565b6113536040518060400160405280600a81526020017f4255524e5f414c4c4f57000000000000000000000000000000000000000000008152508051906020012083611e46565b5050565b600a600080600781111561136e5761136d613011565b5b60078111156113805761137f613011565b5b815260200190815260200160002060040160009054906101000a900460ff1680156113f05750600a6000600160078111156113be576113bd613011565b5b60078111156113d0576113cf613011565b5b815260200190815260200160002060040160009054906101000a900460ff165b80156114415750600a60006002600781111561140f5761140e613011565b5b600781111561142157611420613011565b5b815260200190815260200160002060040160009054906101000a900460ff165b80156114925750600a6000600360078111156114605761145f613011565b5b600781111561147257611471613011565b5b815260200190815260200160002060040160009054906101000a900460ff165b80156114e35750600a6000600460078111156114b1576114b0613011565b5b60078111156114c3576114c2613011565b5b815260200190815260200160002060040160009054906101000a900460ff165b80156115345750600a60006005600781111561150257611501613011565b5b600781111561151457611513613011565b5b815260200190815260200160002060040160009054906101000a900460ff165b80156115855750600a60006006600781111561155357611552613011565b5b600781111561156557611564613011565b5b815260200190815260200160002060040160009054906101000a900460ff165b80156115d55750600a60006007808111156115a3576115a2613011565b5b60078111156115b5576115b4613011565b5b815260200190815260200160002060040160009054906101000a900460ff165b611614576040517f08c379a000000000000000000000000000000000000000000000000000000000815260040161160b9061308c565b60405180910390fd5b600860003373ffffffffffffffffffffffffffffffffffffffff1673ffffffffffffffffffffffffffffffffffffffff16815260200190815260200160002060009054906101000a900460ff166116a0576040517f08c379a0000000000000000000000000000000000000000000000000000000008152600401611697906132ae565b60405180910390fd5b6116ab8383836120cf565b505050565b6116b982610878565b6116c281611e32565b6116cc8383611f26565b505050565b6000600360008473ffffffffffffffffffffffffffffffffffffffff1673ffffffffffffffffffffffffffffffffffffffff16815260200190815260200160002060008373ffffffffffffffffffffffffffffffffffffffff1673ffffffffffffffffffffffffffffffffffffffff16815260200190815260200160002054905092915050565b611760612008565b600a600083600781111561177757611776613011565b5b600781111561178957611788613011565b5b815260200190815260200160002060040160009054906101000a900460ff16156117e8576040517f08c379a00000000000000000000000000000000000000000000000000000000081526004016117df9061331a565b60405180910390fd5b80600a6000846007811115611800576117ff613011565b5b600781111561181257611811613011565b5b81526020019081526020016000206000820151816000015560208201518160010155604082015181600201556060820151816003015560808201518160040160006101000a81548160ff0219169083151502179055509050505050565b611877612008565b600073ffffffffffffffffffffffffffffffffffffffff168173ffffffffffffffffffffffffffffffffffffffff16036118e6576040517f08c379a00000000000000000000000000000000000000000000000000000000081526004016118dd906133ac565b60405180910390fd5b6118ef81612224565b50565b60007f01ffc9a7000000000000000000000000000000000000000000000000000000007bffffffffffffffffffffffffffffffffffffffffffffffffffffffff1916827bffffffffffffffffffffffffffffffffffffffffffffffffffffffff1916149050919050565b600033905090565b600073ffffffffffffffffffffffffffffffffffffffff168373ffffffffffffffffffffffffffffffffffffffff16036119d3576040517f08c379a00000000000000000000000000000000000000000000000000000000081526004016119ca9061343e565b60405180910390fd5b600073ffffffffffffffffffffffffffffffffffffffff168273ffffffffffffffffffffffffffffffffffffffff1603611a42576040517f08c379a0000000000000000000000000000000000000000000000000000000008152600401611a39906134d0565b60405180910390fd5b80600360008573ffffffffffffffffffffffffffffffffffffffff1673ffffffffffffffffffffffffffffffffffffffff16815260200190815260200160002060008473ffffffffffffffffffffffffffffffffffffffff1673ffffffffffffffffffffffffffffffffffffffff168152602001908152602001600020819055508173ffffffffffffffffffffffffffffffffffffffff168373ffffffffffffffffffffffffffffffffffffffff167f8c5be1e5ebec7d5bd14f71427d1e84f3dd0314c0f7b2291e5b200ac8c7c3b92583604051611b2091906129d6565b60405180910390a3505050565b6000611b3984846116d1565b90507fffffffffffffffffffffffffffffffffffffffffffffffffffffffffffffffff8114611bb35781811015611ba5576040517f08c379a0000000000000000000000000000000000000000000000000000000008152600401611b9c9061353c565b60405180910390fd5b611bb28484848403611964565b5b50505050565b600073ffffffffffffffffffffffffffffffffffffffff168373ffffffffffffffffffffffffffffffffffffffff1603611c28576040517f08c379a0000000000000000000000000000000000000000000000000000000008152600401611c1f906135ce565b60405180910390fd5b600073ffffffffffffffffffffffffffffffffffffffff168273ffffffffffffffffffffffffffffffffffffffff1603611c97576040517f08c379a0000000000000000000000000000000000000000000000000000000008152600401611c8e90613660565b60405180910390fd5b611ca283838361221a565b6000600260008573ffffffffffffffffffffffffffffffffffffffff1673ffffffffffffffffffffffffffffffffffffffff16815260200190815260200160002054905081811015611d29576040517f08c379a0000000000000000000000000000000000000000000000000000000008152600401611d20906136f2565b60405180910390fd5b818103600260008673ffffffffffffffffffffffffffffffffffffffff1673ffffffffffffffffffffffffffffffffffffffff1681526020019081526020016000208190555081600260008573ffffffffffffffffffffffffffffffffffffffff1673ffffffffffffffffffffffffffffffffffffffff168152602001908152602001600020600082825401925050819055508273ffffffffffffffffffffffffffffffffffffffff168473ffffffffffffffffffffffffffffffffffffffff167fddf252ad1be2c89b69c2b068fc378daa952ba7f163c4a11628f55a4df523b3ef84604051611e1991906129d6565b60405180910390a3611e2c84848461221f565b50505050565b611e4381611e3e61195c565b612332565b50565b611e5082826110bf565b611f2257600180600084815260200190815260200160002060000160008373ffffffffffffffffffffffffffffffffffffffff1673ffffffffffffffffffffffffffffffffffffffff16815260200190815260200160002060006101000a81548160ff021916908315150217905550611ec761195c565b73ffffffffffffffffffffffffffffffffffffffff168173ffffffffffffffffffffffffffffffffffffffff16837f2f8788117e7eff1d82e926ec794901d17c78024a50270940304540a733656f0d60405160405180910390a45b5050565b611f3082826110bf565b156120045760006001600084815260200190815260200160002060000160008373ffffffffffffffffffffffffffffffffffffffff1673ffffffffffffffffffffffffffffffffffffffff16815260200190815260200160002060006101000a81548160ff021916908315150217905550611fa961195c565b73ffffffffffffffffffffffffffffffffffffffff168173ffffffffffffffffffffffffffffffffffffffff16837ff6391f5c32d9c69d2a47ea670b442974b53935d1edc7fd64eb21e047a839171b60405160405180910390a45b5050565b61201061195c565b73ffffffffffffffffffffffffffffffffffffffff1661202e611084565b73ffffffffffffffffffffffffffffffffffffffff1614612084576040517f08c379a000000000000000000000000000000000000000000000000000000000815260040161207b9061375e565b60405180910390fd5b565b61208e610d6a565b6120cd576040517f08c379a00000000000000000000000000000000000000000000000000000000081526004016120c4906137ca565b60405180910390fd5b565b6120d76122e8565b6000600a60008360078111156120f0576120ef613011565b5b600781111561210257612101613011565b5b81526020019081526020016000209050806001015481600001540361215c576040517f08c379a00000000000000000000000000000000000000000000000000000000081526004016121539061385c565b60405180910390fd5b80600001548382600101546121719190612fdd565b111561218e578060010154816000015461218b919061387c565b92505b60008160020154146121ef576000620f424082600301546009548460020154436121b8919061387c565b6121c291906138b0565b6121cc91906138b0565b6121d69190613921565b9050838110156121e4578093505b438260020181905550505b828160010160008282546122039190612fdd565b9250508190555061221484846123b7565b50505050565b505050565b505050565b60008060009054906101000a900473ffffffffffffffffffffffffffffffffffffffff169050816000806101000a81548173ffffffffffffffffffffffffffffffffffffffff021916908373ffffffffffffffffffffffffffffffffffffffff1602179055508173ffffffffffffffffffffffffffffffffffffffff168173ffffffffffffffffffffffffffffffffffffffff167f8be0079c531659141344cd1fd0a4f28419497f9722a3daafe3b4186f6b6457e060405160405180910390a35050565b6122f0610d6a565b15612330576040517f08c379a00000000000000000000000000000000000000000000000000000000081526004016123279061399e565b60405180910390fd5b565b61233c82826110bf565b6123b3576123498161250e565b6123578360001c602061253b565b604051602001612368929190613a92565b6040516020818303038152906040526040517f08c379a00000000000000000000000000000000000000000000000000000000081526004016123aa91906128d1565b60405180910390fd5b5050565b600073ffffffffffffffffffffffffffffffffffffffff168273ffffffffffffffffffffffffffffffffffffffff1603612426576040517f08c379a000000000000000000000000000000000000000000000000000000000815260040161241d90613b18565b60405180910390fd5b6124326000838361221a565b80600460008282546124449190612fdd565b9250508190555080600260008473ffffffffffffffffffffffffffffffffffffffff1673ffffffffffffffffffffffffffffffffffffffff168152602001908152602001600020600082825401925050819055508173ffffffffffffffffffffffffffffffffffffffff16600073ffffffffffffffffffffffffffffffffffffffff167fddf252ad1be2c89b69c2b068fc378daa952ba7f163c4a11628f55a4df523b3ef836040516124f691906129d6565b60405180910390a361250a6000838361221f565b5050565b60606125348273ffffffffffffffffffffffffffffffffffffffff16601460ff1661253b565b9050919050565b60606000600283600261254e91906138b0565b6125589190612fdd565b67ffffffffffffffff81111561257157612570612d75565b5b6040519080825280601f01601f1916602001820160405280156125a35781602001600182028036833780820191505090505b5090507f3000000000000000000000000000000000000000000000000000000000000000816000815181106125db576125da613b38565b5b60200101907effffffffffffffffffffffffffffffffffffffffffffffffffffffffffffff1916908160001a9053507f78000000000000000000000000000000000000000000000000000000000000008160018151811061263f5761263e613b38565b5b60200101907effffffffffffffffffffffffffffffffffffffffffffffffffffffffffffff1916908160001a9053506000600184600261267f91906138b0565b6126899190612fdd565b90505b6001811115612729577f3031323334353637383961626364656600000000000000000000000000000000600f8616601081106126cb576126ca613b38565b5b1a60f81b8282815181106126e2576126e1613b38565b5b60200101907effffffffffffffffffffffffffffffffffffffffffffffffffffffffffffff1916908160001a905350600485901c94508061272290613b67565b905061268c565b506000841461276d576040517f08c379a000000000000000000000000000000000000000000000000000000000815260040161276490613bdc565b60405180910390fd5b8091505092915050565b6000604051905090565b600080fd5b60007fffffffff0000000000000000000000000000000000000000000000000000000082169050919050565b6127bb81612786565b81146127c657600080fd5b50565b6000813590506127d8816127b2565b92915050565b6000602082840312156127f4576127f3612781565b5b6000612802848285016127c9565b91505092915050565b60008115159050919050565b6128208161280b565b82525050565b600060208201905061283b6000830184612817565b92915050565b600081519050919050565b600082825260208201905092915050565b60005b8381101561287b578082015181840152602081019050612860565b60008484015250505050565b6000601f19601f8301169050919050565b60006128a382612841565b6128ad818561284c565b93506128bd81856020860161285d565b6128c681612887565b840191505092915050565b600060208201905081810360008301526128eb8184612898565b905092915050565b600073ffffffffffffffffffffffffffffffffffffffff82169050919050565b600061291e826128f3565b9050919050565b61292e81612913565b811461293957600080fd5b50565b60008135905061294b81612925565b92915050565b6000819050919050565b61296481612951565b811461296f57600080fd5b50565b6000813590506129818161295b565b92915050565b6000806040838503121561299e5761299d612781565b5b60006129ac8582860161293c565b92505060206129bd85828601612972565b9150509250929050565b6129d081612951565b82525050565b60006020820190506129eb60008301846129c7565b92915050565b600080600060608486031215612a0a57612a09612781565b5b6000612a188682870161293c565b9350506020612a298682870161293c565b9250506040612a3a86828701612972565b9150509250925092565b6000819050919050565b612a5781612a44565b8114612a6257600080fd5b50565b600081359050612a7481612a4e565b92915050565b600060208284031215612a9057612a8f612781565b5b6000612a9e84828501612a65565b91505092915050565b612ab081612a44565b82525050565b6000602082019050612acb6000830184612aa7565b92915050565b60008060408385031215612ae857612ae7612781565b5b6000612af685828601612a65565b9250506020612b078582860161293c565b9150509250929050565b600060ff82169050919050565b612b2781612b11565b82525050565b6000602082019050612b426000830184612b1e565b92915050565b612b518161280b565b8114612b5c57600080fd5b50565b600081359050612b6e81612b48565b92915050565b60008060408385031215612b8b57612b8a612781565b5b6000612b998582860161293c565b9250506020612baa85828601612b5f565b9150509250929050565b60088110612bc157600080fd5b50565b600081359050612bd381612bb4565b92915050565b600080600060608486031215612bf257612bf1612781565b5b6000612c008682870161293c565b9350506020612c1186828701612972565b9250506040612c2286828701612bc4565b9150509250925092565b600060208284031215612c4257612c41612781565b5b6000612c508482850161293c565b91505092915050565b612c6281612913565b82525050565b6000602082019050612c7d6000830184612c59565b92915050565b600060208284031215612c9957612c98612781565b5b6000612ca784828501612972565b91505092915050565b600060208284031215612cc657612cc5612781565b5b6000612cd484828501612bc4565b91505092915050565b600060a082019050612cf260008301886129c7565b612cff60208301876129c7565b612d0c60408301866129c7565b612d1960608301856129c7565b612d266080830184612817565b9695505050505050565b60008060408385031215612d4757612d46612781565b5b6000612d558582860161293c565b9250506020612d668582860161293c565b9150509250929050565b600080fd5b7f4e487b7100000000000000000000000000000000000000000000000000000000600052604160045260246000fd5b612dad82612887565b810181811067ffffffffffffffff82111715612dcc57612dcb612d75565b5b80604052505050565b6000612ddf612777565b9050612deb8282612da4565b919050565b600060a08284031215612e0657612e05612d70565b5b612e1060a0612dd5565b90506000612e2084828501612972565b6000830152506020612e3484828501612972565b6020830152506040612e4884828501612972565b6040830152506060612e5c84828501612972565b6060830152506080612e7084828501612b5f565b60808301525092915050565b60008060c08385031215612e9357612e92612781565b5b6000612ea185828601612bc4565b9250506020612eb285828601612df0565b9150509250929050565b7f4e487b7100000000000000000000000000000000000000000000000000000000600052602260045260246000fd5b60006002820490506001821680612f0357607f821691505b602082108103612f1657612f15612ebc565b5b50919050565b7f416363657373436f6e74726f6c3a2063616e206f6e6c792072656e6f756e636560008201527f20726f6c657320666f722073656c660000000000000000000000000000000000602082015250565b6000612f78602f8361284c565b9150612f8382612f1c565b604082019050919050565b60006020820190508181036000830152612fa781612f6b565b9050919050565b7f4e487b7100000000000000000000000000000000000000000000000000000000600052601160045260246000fd5b6000612fe882612951565b9150612ff383612951565b925082820190508082111561300b5761300a612fae565b5b92915050565b7f4e487b7100000000000000000000000000000000000000000000000000000000600052602160045260246000fd5b7f544152474554535f4e4f545f494e495449414c495a4544000000000000000000600082015250565b600061307660178361284c565b915061308182613040565b602082019050919050565b600060208201905081810360008301526130a581613069565b9050919050565b7f45524332303a206275726e2066726f6d20746865207a65726f2061646472657360008201527f7300000000000000000000000000000000000000000000000000000000000000602082015250565b600061310860218361284c565b9150613113826130ac565b604082019050919050565b60006020820190508181036000830152613137816130fb565b9050919050565b7f45524332303a206275726e20616d6f756e7420657863656564732062616c616e60008201527f6365000000000000000000000000000000000000000000000000000000000000602082015250565b600061319a60228361284c565b91506131a58261313e565b604082019050919050565b600060208201905081810360008301526131c98161318d565b9050919050565b7f45524332303a2064656372656173656420616c6c6f77616e63652062656c6f7760008201527f207a65726f000000000000000000000000000000000000000000000000000000602082015250565b600061322c60258361284c565b9150613237826131d0565b604082019050919050565b6000602082019050818103600083015261325b8161321f565b9050919050565b7f4e4f545f414c4c4f574544000000000000000000000000000000000000000000600082015250565b6000613298600b8361284c565b91506132a382613262565b602082019050919050565b600060208201905081810360008301526132c78161328b565b9050919050565b7f414c52454144595f494e495449414c495a454400000000000000000000000000600082015250565b600061330460138361284c565b915061330f826132ce565b602082019050919050565b60006020820190508181036000830152613333816132f7565b9050919050565b7f4f776e61626c653a206e6577206f776e657220697320746865207a65726f206160008201527f6464726573730000000000000000000000000000000000000000000000000000602082015250565b600061339660268361284c565b91506133a18261333a565b604082019050919050565b600060208201905081810360008301526133c581613389565b9050919050565b7f45524332303a20617070726f76652066726f6d20746865207a65726f2061646460008201527f7265737300000000000000000000000000000000000000000000000000000000602082015250565b600061342860248361284c565b9150613433826133cc565b604082019050919050565b600060208201905081810360008301526134578161341b565b9050919050565b7f45524332303a20617070726f766520746f20746865207a65726f20616464726560008201527f7373000000000000000000000000000000000000000000000000000000000000602082015250565b60006134ba60228361284c565b91506134c58261345e565b604082019050919050565b600060208201905081810360008301526134e9816134ad565b9050919050565b7f45524332303a20696e73756666696369656e7420616c6c6f77616e6365000000600082015250565b6000613526601d8361284c565b9150613531826134f0565b602082019050919050565b6000602082019050818103600083015261355581613519565b9050919050565b7f45524332303a207472616e736665722066726f6d20746865207a65726f20616460008201527f6472657373000000000000000000000000000000000000000000000000000000602082015250565b60006135b860258361284c565b91506135c38261355c565b604082019050919050565b600060208201905081810360008301526135e7816135ab565b9050919050565b7f45524332303a207472616e7366657220746f20746865207a65726f206164647260008201527f6573730000000000000000000000000000000000000000000000000000000000602082015250565b600061364a60238361284c565b9150613655826135ee565b604082019050919050565b600060208201905081810360008301526136798161363d565b9050919050565b7f45524332303a207472616e7366657220616d6f756e742065786365656473206260008201527f616c616e63650000000000000000000000000000000000000000000000000000602082015250565b60006136dc60268361284c565b91506136e782613680565b604082019050919050565b6000602082019050818103600083015261370b816136cf565b9050919050565b7f4f776e61626c653a2063616c6c6572206973206e6f7420746865206f776e6572600082015250565b600061374860208361284c565b915061375382613712565b602082019050919050565b600060208201905081810360008301526137778161373b565b9050919050565b7f5061757361626c653a206e6f7420706175736564000000000000000000000000600082015250565b60006137b460148361284c565b91506137bf8261377e565b602082019050919050565b600060208201905081810360008301526137e3816137a7565b9050919050565b7f544845524520415245204e4f20544f4b454e5320464f52204d494e5420464f5260008201527f205448495320505552504f534500000000000000000000000000000000000000602082015250565b6000613846602d8361284c565b9150613851826137ea565b604082019050919050565b6000602082019050818103600083015261387581613839565b9050919050565b600061388782612951565b915061389283612951565b92508282039050818111156138aa576138a9612fae565b5b92915050565b60006138bb82612951565b91506138c683612951565b92508282026138d481612951565b915082820484148315176138eb576138ea612fae565b5b5092915050565b7f4e487b7100000000000000000000000000000000000000000000000000000000600052601260045260246000fd5b600061392c82612951565b915061393783612951565b925082613947576139466138f2565b5b828204905092915050565b7f5061757361626c653a2070617573656400000000000000000000000000000000600082015250565b600061398860108361284c565b915061399382613952565b602082019050919050565b600060208201905081810360008301526139b78161397b565b9050919050565b600081905092915050565b7f416363657373436f6e74726f6c3a206163636f756e7420000000000000000000600082015250565b60006139ff6017836139be565b9150613a0a826139c9565b601782019050919050565b6000613a2082612841565b613a2a81856139be565b9350613a3a81856020860161285d565b80840191505092915050565b7f206973206d697373696e6720726f6c6520000000000000000000000000000000600082015250565b6000613a7c6011836139be565b9150613a8782613a46565b601182019050919050565b6000613a9d826139f2565b9150613aa98285613a15565b9150613ab482613a6f565b9150613ac08284613a15565b91508190509392505050565b7f45524332303a206d696e7420746f20746865207a65726f206164647265737300600082015250565b6000613b02601f8361284c565b9150613b0d82613acc565b602082019050919050565b60006020820190508181036000830152613b3181613af5565b9050919050565b7f4e487b7100000000000000000000000000000000000000000000000000000000600052603260045260246000fd5b6000613b7282612951565b915060008203613b8557613b84612fae565b5b600182039050919050565b7f537472696e67733a20686578206c656e67746820696e73756666696369656e74600082015250565b6000613bc660208361284c565b9150613bd182613b90565b602082019050919050565b60006020820190508181036000830152613bf581613bb9565b905091905056fea264697066735822122020bc9a0393034df9fb64c750c1d8a9af358fc412909dacb9d8ddfb02e55d1f9164736f6c63430008110033",
  "linkReferences": {},
  "deployedLinkReferences": {}
}