{
  "_format": "hh-sol-artifact-1",
  "contractName": "ReferralProgram",
  "sourceName": "contracts/ReferralProgram.sol",
  "abi": [
    {
      "inputs": [
        {
          "internalType": "contract CanvaToken",
          "name": "_rewardToken",
          "type": "address"
        }
      ],
      "stateMutability": "nonpayable",
      "type": "constructor"
    },
    {
      "anonymous": false,
      "inputs": [
        {
          "indexed": true,
          "internalType": "address",
          "name": "previousOwner",
          "type": "address"
        },
        {
          "indexed": true,
          "internalType": "address",
          "name": "newOwner",
          "type": "address"
        }
      ],
      "name": "OwnershipTransferred",
      "type": "event"
    },
    {
      "anonymous": false,
      "inputs": [
        {
          "indexed": true,
          "internalType": "bytes32",
          "name": "role",
          "type": "bytes32"
        },
        {
          "indexed": true,
          "internalType": "bytes32",
          "name": "previousAdminRole",
          "type": "bytes32"
        },
        {
          "indexed": true,
          "internalType": "bytes32",
          "name": "newAdminRole",
          "type": "bytes32"
        }
      ],
      "name": "RoleAdminChanged",
      "type": "event"
    },
    {
      "anonymous": false,
      "inputs": [
        {
          "indexed": true,
          "internalType": "bytes32",
          "name": "role",
          "type": "bytes32"
        },
        {
          "indexed": true,
          "internalType": "address",
          "name": "account",
          "type": "address"
        },
        {
          "indexed": true,
          "internalType": "address",
          "name": "sender",
          "type": "address"
        }
      ],
      "name": "RoleGranted",
      "type": "event"
    },
    {
      "anonymous": false,
      "inputs": [
        {
          "indexed": true,
          "internalType": "bytes32",
          "name": "role",
          "type": "bytes32"
        },
        {
          "indexed": true,
          "internalType": "address",
          "name": "account",
          "type": "address"
        },
        {
          "indexed": true,
          "internalType": "address",
          "name": "sender",
          "type": "address"
        }
      ],
      "name": "RoleRevoked",
      "type": "event"
    },
    {
      "inputs": [],
      "name": "DEFAULT_ADMIN_ROLE",
      "outputs": [
        {
          "internalType": "bytes32",
          "name": "",
          "type": "bytes32"
        }
      ],
      "stateMutability": "view",
      "type": "function"
    },
    {
      "inputs": [],
      "name": "STAKING_CONTRACT_ROLE",
      "outputs": [
        {
          "internalType": "bytes32",
          "name": "",
          "type": "bytes32"
        }
      ],
      "stateMutability": "view",
      "type": "function"
    },
    {
      "inputs": [
        {
          "internalType": "address",
          "name": "_beneficiaryAddress",
          "type": "address"
        }
      ],
      "name": "addBeneficiary",
      "outputs": [],
      "stateMutability": "nonpayable",
      "type": "function"
    },
    {
      "inputs": [
        {
          "internalType": "address",
          "name": "",
          "type": "address"
        }
      ],
      "name": "beneficiaries",
      "outputs": [
        {
          "internalType": "uint256",
          "name": "numberOfReferrer",
          "type": "uint256"
        },
        {
          "internalType": "uint256",
          "name": "unclaimReward",
          "type": "uint256"
        },
        {
          "internalType": "uint256",
          "name": "totalEarned",
          "type": "uint256"
        },
        {
          "internalType": "uint256",
          "name": "totalStakedReferalls",
          "type": "uint256"
        },
        {
          "internalType": "bool",
          "name": "exists",
          "type": "bool"
        }
      ],
      "stateMutability": "view",
      "type": "function"
    },
    {
      "inputs": [
        {
          "internalType": "address",
          "name": "_beneficiar",
          "type": "address"
        }
      ],
      "name": "beneficiaryInfo",
      "outputs": [
        {
          "components": [
            {
              "internalType": "uint256",
              "name": "numberOfReferrer",
              "type": "uint256"
            },
            {
              "internalType": "uint256",
              "name": "unclaimReward",
              "type": "uint256"
            },
            {
              "internalType": "uint256",
              "name": "totalEarned",
              "type": "uint256"
            },
            {
              "internalType": "uint256",
              "name": "totalStakedReferalls",
              "type": "uint256"
            },
            {
              "internalType": "address[]",
              "name": "referrels",
              "type": "address[]"
            },
            {
              "internalType": "bool",
              "name": "exists",
              "type": "bool"
            }
          ],
          "internalType": "struct ReferralProgram.beneficiary",
          "name": "",
          "type": "tuple"
        }
      ],
      "stateMutability": "view",
      "type": "function"
    },
    {
      "inputs": [],
      "name": "claimRewards",
      "outputs": [],
      "stateMutability": "nonpayable",
      "type": "function"
    },
    {
      "inputs": [
        {
          "internalType": "bytes32",
          "name": "role",
          "type": "bytes32"
        }
      ],
      "name": "getRoleAdmin",
      "outputs": [
        {
          "internalType": "bytes32",
          "name": "",
          "type": "bytes32"
        }
      ],
      "stateMutability": "view",
      "type": "function"
    },
    {
      "inputs": [
        {
          "internalType": "bytes32",
          "name": "role",
          "type": "bytes32"
        },
        {
          "internalType": "address",
          "name": "account",
          "type": "address"
        }
      ],
      "name": "grantRole",
      "outputs": [],
      "stateMutability": "nonpayable",
      "type": "function"
    },
    {
      "inputs": [
        {
          "internalType": "address",
          "name": "_staker",
          "type": "address"
        }
      ],
      "name": "grantStakerRole",
      "outputs": [],
      "stateMutability": "nonpayable",
      "type": "function"
    },
    {
      "inputs": [
        {
          "internalType": "bytes32",
          "name": "role",
          "type": "bytes32"
        },
        {
          "internalType": "address",
          "name": "account",
          "type": "address"
        }
      ],
      "name": "hasRole",
      "outputs": [
        {
          "internalType": "bool",
          "name": "",
          "type": "bool"
        }
      ],
      "stateMutability": "view",
      "type": "function"
    },
    {
      "inputs": [],
      "name": "owner",
      "outputs": [
        {
          "internalType": "address",
          "name": "",
          "type": "address"
        }
      ],
      "stateMutability": "view",
      "type": "function"
    },
    {
      "inputs": [],
      "name": "poolCanva",
      "outputs": [
        {
          "internalType": "contract StakingPool",
          "name": "",
          "type": "address"
        }
      ],
      "stateMutability": "view",
      "type": "function"
    },
    {
      "inputs": [],
      "name": "renounceOwnership",
      "outputs": [],
      "stateMutability": "nonpayable",
      "type": "function"
    },
    {
      "inputs": [
        {
          "internalType": "bytes32",
          "name": "role",
          "type": "bytes32"
        },
        {
          "internalType": "address",
          "name": "account",
          "type": "address"
        }
      ],
      "name": "renounceRole",
      "outputs": [],
      "stateMutability": "nonpayable",
      "type": "function"
    },
    {
      "inputs": [
        {
          "internalType": "bytes32",
          "name": "role",
          "type": "bytes32"
        },
        {
          "internalType": "address",
          "name": "account",
          "type": "address"
        }
      ],
      "name": "revokeRole",
      "outputs": [],
      "stateMutability": "nonpayable",
      "type": "function"
    },
    {
      "inputs": [],
      "name": "rewardToken",
      "outputs": [
        {
          "internalType": "contract CanvaToken",
          "name": "",
          "type": "address"
        }
      ],
      "stateMutability": "view",
      "type": "function"
    },
    {
      "inputs": [
        {
          "internalType": "contract StakingPool",
          "name": "_poolCanva",
          "type": "address"
        }
      ],
      "name": "setPoolAdress",
      "outputs": [],
      "stateMutability": "nonpayable",
      "type": "function"
    },
    {
      "inputs": [
        {
          "internalType": "address",
          "name": "_referral",
          "type": "address"
        }
      ],
      "name": "showBeneficiarInfo",
      "outputs": [
        {
          "internalType": "address",
          "name": "",
          "type": "address"
        }
      ],
      "stateMutability": "view",
      "type": "function"
    },
    {
      "inputs": [
        {
          "internalType": "bytes4",
          "name": "interfaceId",
          "type": "bytes4"
        }
      ],
      "name": "supportsInterface",
      "outputs": [
        {
          "internalType": "bool",
          "name": "",
          "type": "bool"
        }
      ],
      "stateMutability": "view",
      "type": "function"
    },
    {
      "inputs": [],
      "name": "token",
      "outputs": [
        {
          "internalType": "contract CanvaToken",
          "name": "",
          "type": "address"
        }
      ],
      "stateMutability": "view",
      "type": "function"
    },
    {
      "inputs": [
        {
          "internalType": "address",
          "name": "newOwner",
          "type": "address"
        }
      ],
      "name": "transferOwnership",
      "outputs": [],
      "stateMutability": "nonpayable",
      "type": "function"
    },
    {
      "inputs": [
        {
          "internalType": "address",
          "name": "_beneficiaryAddress",
          "type": "address"
        },
        {
          "internalType": "address",
          "name": "_referall",
          "type": "address"
        },
        {
          "internalType": "uint256",
          "name": "_amountDeposit",
          "type": "uint256"
        }
      ],
      "name": "updateFirstDeposit",
      "outputs": [],
      "stateMutability": "nonpayable",
      "type": "function"
    },
    {
      "inputs": [
        {
          "internalType": "address",
          "name": "_beneficiaryAddress",
          "type": "address"
        },
        {
          "internalType": "uint256",
          "name": "_amountReward",
          "type": "uint256"
        }
      ],
      "name": "updateInfoHarvest",
      "outputs": [],
      "stateMutability": "nonpayable",
      "type": "function"
    },
    {
      "inputs": [
        {
          "internalType": "address",
          "name": "_beneficiaryAddress",
          "type": "address"
        },
        {
          "internalType": "uint256",
          "name": "_amountWithdraw",
          "type": "uint256"
        },
        {
          "internalType": "uint256",
          "name": "_amountReward",
          "type": "uint256"
        }
      ],
      "name": "updateInfoWithdraw",
      "outputs": [],
      "stateMutability": "nonpayable",
      "type": "function"
    },
    {
      "inputs": [
        {
          "internalType": "address",
          "name": "_beneficiaryAddress",
          "type": "address"
        },
        {
          "internalType": "uint256",
          "name": "_amountDeposit",
          "type": "uint256"
        },
        {
          "internalType": "uint256",
          "name": "_amountReward",
          "type": "uint256"
        }
      ],
      "name": "updateNexttDeposit",
      "outputs": [],
      "stateMutability": "nonpayable",
      "type": "function"
    }
  ],
  "bytecode": "0x60806040523480156200001157600080fd5b50604051620032f6380380620032f683398181016040528101906200003791906200039a565b620000576200004b620000cb60201b60201c565b620000d360201b60201c565b600160028190555080600360006101000a81548173ffffffffffffffffffffffffffffffffffffffff021916908373ffffffffffffffffffffffffffffffffffffffff160217905550620000c46000801b620000b86200019760201b60201c565b620001c060201b60201c565b50620003cc565b600033905090565b60008060009054906101000a900473ffffffffffffffffffffffffffffffffffffffff169050816000806101000a81548173ffffffffffffffffffffffffffffffffffffffff021916908373ffffffffffffffffffffffffffffffffffffffff1602179055508173ffffffffffffffffffffffffffffffffffffffff168173ffffffffffffffffffffffffffffffffffffffff167f8be0079c531659141344cd1fd0a4f28419497f9722a3daafe3b4186f6b6457e060405160405180910390a35050565b60008060009054906101000a900473ffffffffffffffffffffffffffffffffffffffff16905090565b620001d28282620002b160201b60201c565b620002ad57600180600084815260200190815260200160002060000160008373ffffffffffffffffffffffffffffffffffffffff1673ffffffffffffffffffffffffffffffffffffffff16815260200190815260200160002060006101000a81548160ff02191690831515021790555062000252620000cb60201b60201c565b73ffffffffffffffffffffffffffffffffffffffff168173ffffffffffffffffffffffffffffffffffffffff16837f2f8788117e7eff1d82e926ec794901d17c78024a50270940304540a733656f0d60405160405180910390a45b5050565b60006001600084815260200190815260200160002060000160008373ffffffffffffffffffffffffffffffffffffffff1673ffffffffffffffffffffffffffffffffffffffff16815260200190815260200160002060009054906101000a900460ff16905092915050565b600080fd5b600073ffffffffffffffffffffffffffffffffffffffff82169050919050565b60006200034e8262000321565b9050919050565b6000620003628262000341565b9050919050565b620003748162000355565b81146200038057600080fd5b50565b600081519050620003948162000369565b92915050565b600060208284031215620003b357620003b26200031c565b5b6000620003c38482850162000383565b91505092915050565b612f1a80620003dc6000396000f3fe608060405234801561001057600080fd5b50600436106101735760003560e01c8063894c6e4d116100de578063d2cfb21711610097578063e8b6134711610071578063e8b6134714610424578063f2fde38b14610440578063f7c618c11461045c578063fc0c546a1461047a57610173565b8063d2cfb217146103ce578063d547741f146103ea578063d81246161461040657610173565b8063894c6e4d146102f85780638da5cb5b1461032857806391d14854146103465780639c614eec14610376578063a217fddf14610394578063a475fb13146103b257610173565b806336568abe1161013057806336568abe14610260578063372500ab1461027c5780635926651d146102865780636a794e68146102a2578063715018a6146102be578063818d17ff146102c857610173565b8063015677391461017857806301ffc9a7146101ac5780631d63dd32146101dc57806321adf7b2146101f8578063248a9ca3146102145780632f2ff15d14610244575b600080fd5b610192600480360381019061018d9190611fb5565b610498565b6040516101a3959493929190612016565b60405180910390f35b6101c660048036038101906101c191906120c1565b6104db565b6040516101d391906120ee565b60405180910390f35b6101f660048036038101906101f19190612135565b610555565b005b610212600480360381019061020d9190611fb5565b6106ac565b005b61022e600480360381019061022991906121be565b610703565b60405161023b91906121fa565b60405180910390f35b61025e60048036038101906102599190612215565b610723565b005b61027a60048036038101906102759190612215565b610744565b005b6102846107c7565b005b6102a0600480360381019061029b9190611fb5565b6109ee565b005b6102bc60048036038101906102b79190612293565b610a93565b005b6102c6610ae5565b005b6102e260048036038101906102dd9190611fb5565b610af9565b6040516102ef91906122cf565b60405180910390f35b610312600480360381019061030d9190611fb5565b610b62565b60405161031f919061244f565b60405180910390f35b610330610c8c565b60405161033d91906122cf565b60405180910390f35b610360600480360381019061035b9190612215565b610cb5565b60405161036d91906120ee565b60405180910390f35b61037e610d20565b60405161038b91906124d0565b60405180910390f35b61039c610d46565b6040516103a991906121fa565b60405180910390f35b6103cc60048036038101906103c791906124eb565b610d4d565b005b6103e860048036038101906103e3919061252b565b610e4a565b005b61040460048036038101906103ff9190612215565b6112a2565b005b61040e6112c3565b60405161041b91906121fa565b60405180910390f35b61043e60048036038101906104399190612135565b611303565b005b61045a60048036038101906104559190611fb5565b61145a565b005b6104646114dd565b604051610471919061259f565b60405180910390f35b610482611503565b60405161048f919061259f565b60405180910390f35b60056020528060005260406000206000915090508060000154908060010154908060020154908060030154908060050160009054906101000a900460ff16905085565b60007f7965db0b000000000000000000000000000000000000000000000000000000007bffffffffffffffffffffffffffffffffffffffffffffffffffffffff1916827bffffffffffffffffffffffffffffffffffffffffffffffffffffffff1916148061054e575061054d8261152d565b5b9050919050565b6040518060400160405280601581526020017f5354414b494e475f434f4e54524143545f524f4c4500000000000000000000008152508051906020012061059b81611597565b81600560008673ffffffffffffffffffffffffffffffffffffffff1673ffffffffffffffffffffffffffffffffffffffff16815260200190815260200160002060010160008282546105ed91906125e9565b9250508190555081600560008673ffffffffffffffffffffffffffffffffffffffff1673ffffffffffffffffffffffffffffffffffffffff168152602001908152602001600020600201600082825461064691906125e9565b9250508190555082600560008673ffffffffffffffffffffffffffffffffffffffff1673ffffffffffffffffffffffffffffffffffffffff168152602001908152602001600020600301600082825461069f919061261d565b9250508190555050505050565b6000801b6106b981611597565b6106ff6040518060400160405280601581526020017f5354414b494e475f434f4e54524143545f524f4c45000000000000000000000081525080519060200120836115ab565b5050565b600060016000838152602001908152602001600020600101549050919050565b61072c82610703565b61073581611597565b61073f83836115ab565b505050565b61074c61168b565b73ffffffffffffffffffffffffffffffffffffffff168173ffffffffffffffffffffffffffffffffffffffff16146107b9576040517f08c379a00000000000000000000000000000000000000000000000000000000081526004016107b0906126d4565b60405180910390fd5b6107c38282611693565b5050565b6107cf611775565b600560003373ffffffffffffffffffffffffffffffffffffffff1673ffffffffffffffffffffffffffffffffffffffff16815260200190815260200160002060050160009054906101000a900460ff1661085e576040517f08c379a000000000000000000000000000000000000000000000000000000000815260040161085590612766565b60405180910390fd5b6000600560003373ffffffffffffffffffffffffffffffffffffffff1673ffffffffffffffffffffffffffffffffffffffff16815260200190815260200160002060010154116108e3576040517f08c379a00000000000000000000000000000000000000000000000000000000081526004016108da906127f8565b60405180910390fd5b6000600560003373ffffffffffffffffffffffffffffffffffffffff1673ffffffffffffffffffffffffffffffffffffffff1681526020019081526020016000206001015490506000600560003373ffffffffffffffffffffffffffffffffffffffff1673ffffffffffffffffffffffffffffffffffffffff168152602001908152602001600020600101819055506109e3600460009054906101000a900473ffffffffffffffffffffffffffffffffffffffff163383600360009054906101000a900473ffffffffffffffffffffffffffffffffffffffff1673ffffffffffffffffffffffffffffffffffffffff166117c2909392919063ffffffff16565b506109ec61184b565b565b6040518060400160405280601581526020017f5354414b494e475f434f4e54524143545f524f4c45000000000000000000000081525080519060200120610a3481611597565b6001600560008473ffffffffffffffffffffffffffffffffffffffff1673ffffffffffffffffffffffffffffffffffffffff16815260200190815260200160002060050160006101000a81548160ff0219169083151502179055505050565b6000801b610aa081611597565b81600460006101000a81548173ffffffffffffffffffffffffffffffffffffffff021916908373ffffffffffffffffffffffffffffffffffffffff1602179055505050565b610aed611855565b610af760006118d3565b565b6000600660008373ffffffffffffffffffffffffffffffffffffffff1673ffffffffffffffffffffffffffffffffffffffff16815260200190815260200160002060009054906101000a900473ffffffffffffffffffffffffffffffffffffffff169050919050565b610b6a611f1a565b600560008373ffffffffffffffffffffffffffffffffffffffff1673ffffffffffffffffffffffffffffffffffffffff1681526020019081526020016000206040518060c00160405290816000820154815260200160018201548152602001600282015481526020016003820154815260200160048201805480602002602001604051908101604052809291908181526020018280548015610c6157602002820191906000526020600020905b8160009054906101000a900473ffffffffffffffffffffffffffffffffffffffff1673ffffffffffffffffffffffffffffffffffffffff1681526020019060010190808311610c17575b505050505081526020016005820160009054906101000a900460ff1615151515815250509050919050565b60008060009054906101000a900473ffffffffffffffffffffffffffffffffffffffff16905090565b60006001600084815260200190815260200160002060000160008373ffffffffffffffffffffffffffffffffffffffff1673ffffffffffffffffffffffffffffffffffffffff16815260200190815260200160002060009054906101000a900460ff16905092915050565b600460009054906101000a900473ffffffffffffffffffffffffffffffffffffffff1681565b6000801b81565b6040518060400160405280601581526020017f5354414b494e475f434f4e54524143545f524f4c45000000000000000000000081525080519060200120610d9381611597565b81600560008573ffffffffffffffffffffffffffffffffffffffff1673ffffffffffffffffffffffffffffffffffffffff1681526020019081526020016000206001016000828254610de591906125e9565b9250508190555081600560008573ffffffffffffffffffffffffffffffffffffffff1673ffffffffffffffffffffffffffffffffffffffff1681526020019081526020016000206002016000828254610e3e91906125e9565b92505081905550505050565b6040518060400160405280601581526020017f5354414b494e475f434f4e54524143545f524f4c45000000000000000000000081525080519060200120610e9081611597565b600560008573ffffffffffffffffffffffffffffffffffffffff1673ffffffffffffffffffffffffffffffffffffffff16815260200190815260200160002060050160009054906101000a900460ff16156110be5783600660008573ffffffffffffffffffffffffffffffffffffffff1673ffffffffffffffffffffffffffffffffffffffff16815260200190815260200160002060006101000a81548173ffffffffffffffffffffffffffffffffffffffff021916908373ffffffffffffffffffffffffffffffffffffffff1602179055506001600560008673ffffffffffffffffffffffffffffffffffffffff1673ffffffffffffffffffffffffffffffffffffffff1681526020019081526020016000206000016000828254610fb691906125e9565b92505081905550600560008573ffffffffffffffffffffffffffffffffffffffff1673ffffffffffffffffffffffffffffffffffffffff168152602001908152602001600020600401839080600181540180825580915050600190039060005260206000200160009091909190916101000a81548173ffffffffffffffffffffffffffffffffffffffff021916908373ffffffffffffffffffffffffffffffffffffffff16021790555081600560008673ffffffffffffffffffffffffffffffffffffffff1673ffffffffffffffffffffffffffffffffffffffff16815260200190815260200160002060030160008282546110b291906125e9565b9250508190555061129c565b6110c7846109ee565b83600660008573ffffffffffffffffffffffffffffffffffffffff1673ffffffffffffffffffffffffffffffffffffffff16815260200190815260200160002060006101000a81548173ffffffffffffffffffffffffffffffffffffffff021916908373ffffffffffffffffffffffffffffffffffffffff1602179055506001600560008673ffffffffffffffffffffffffffffffffffffffff1673ffffffffffffffffffffffffffffffffffffffff168152602001908152602001600020600001600082825461119891906125e9565b92505081905550600560008573ffffffffffffffffffffffffffffffffffffffff1673ffffffffffffffffffffffffffffffffffffffff168152602001908152602001600020600401839080600181540180825580915050600190039060005260206000200160009091909190916101000a81548173ffffffffffffffffffffffffffffffffffffffff021916908373ffffffffffffffffffffffffffffffffffffffff16021790555081600560008673ffffffffffffffffffffffffffffffffffffffff1673ffffffffffffffffffffffffffffffffffffffff168152602001908152602001600020600301600082825461129491906125e9565b925050819055505b50505050565b6112ab82610703565b6112b481611597565b6112be8383611693565b505050565b6040518060400160405280601581526020017f5354414b494e475f434f4e54524143545f524f4c4500000000000000000000008152508051906020012081565b6040518060400160405280601581526020017f5354414b494e475f434f4e54524143545f524f4c4500000000000000000000008152508051906020012061134981611597565b81600560008673ffffffffffffffffffffffffffffffffffffffff1673ffffffffffffffffffffffffffffffffffffffff168152602001908152602001600020600101600082825461139b91906125e9565b9250508190555081600560008673ffffffffffffffffffffffffffffffffffffffff1673ffffffffffffffffffffffffffffffffffffffff16815260200190815260200160002060020160008282546113f491906125e9565b9250508190555082600560008673ffffffffffffffffffffffffffffffffffffffff1673ffffffffffffffffffffffffffffffffffffffff168152602001908152602001600020600301600082825461144d91906125e9565b9250508190555050505050565b611462611855565b600073ffffffffffffffffffffffffffffffffffffffff168173ffffffffffffffffffffffffffffffffffffffff16036114d1576040517f08c379a00000000000000000000000000000000000000000000000000000000081526004016114c89061288a565b60405180910390fd5b6114da816118d3565b50565b600360009054906101000a900473ffffffffffffffffffffffffffffffffffffffff1681565b6000600360009054906101000a900473ffffffffffffffffffffffffffffffffffffffff16905090565b60007f01ffc9a7000000000000000000000000000000000000000000000000000000007bffffffffffffffffffffffffffffffffffffffffffffffffffffffff1916827bffffffffffffffffffffffffffffffffffffffffffffffffffffffff1916149050919050565b6115a8816115a361168b565b611997565b50565b6115b58282610cb5565b61168757600180600084815260200190815260200160002060000160008373ffffffffffffffffffffffffffffffffffffffff1673ffffffffffffffffffffffffffffffffffffffff16815260200190815260200160002060006101000a81548160ff02191690831515021790555061162c61168b565b73ffffffffffffffffffffffffffffffffffffffff168173ffffffffffffffffffffffffffffffffffffffff16837f2f8788117e7eff1d82e926ec794901d17c78024a50270940304540a733656f0d60405160405180910390a45b5050565b600033905090565b61169d8282610cb5565b156117715760006001600084815260200190815260200160002060000160008373ffffffffffffffffffffffffffffffffffffffff1673ffffffffffffffffffffffffffffffffffffffff16815260200190815260200160002060006101000a81548160ff02191690831515021790555061171661168b565b73ffffffffffffffffffffffffffffffffffffffff168173ffffffffffffffffffffffffffffffffffffffff16837ff6391f5c32d9c69d2a47ea670b442974b53935d1edc7fd64eb21e047a839171b60405160405180910390a45b5050565b60028054036117b9576040517f08c379a00000000000000000000000000000000000000000000000000000000081526004016117b0906128f6565b60405180910390fd5b60028081905550565b611845846323b872dd60e01b8585856040516024016117e393929190612916565b604051602081830303815290604052907bffffffffffffffffffffffffffffffffffffffffffffffffffffffff19166020820180517bffffffffffffffffffffffffffffffffffffffffffffffffffffffff8381831617835250505050611a1c565b50505050565b6001600281905550565b61185d61168b565b73ffffffffffffffffffffffffffffffffffffffff1661187b610c8c565b73ffffffffffffffffffffffffffffffffffffffff16146118d1576040517f08c379a00000000000000000000000000000000000000000000000000000000081526004016118c890612999565b60405180910390fd5b565b60008060009054906101000a900473ffffffffffffffffffffffffffffffffffffffff169050816000806101000a81548173ffffffffffffffffffffffffffffffffffffffff021916908373ffffffffffffffffffffffffffffffffffffffff1602179055508173ffffffffffffffffffffffffffffffffffffffff168173ffffffffffffffffffffffffffffffffffffffff167f8be0079c531659141344cd1fd0a4f28419497f9722a3daafe3b4186f6b6457e060405160405180910390a35050565b6119a18282610cb5565b611a18576119ae81611ae4565b6119bc8360001c6020611b11565b6040516020016119cd929190612ac2565b6040516020818303038152906040526040517f08c379a0000000000000000000000000000000000000000000000000000000008152600401611a0f9190612b46565b60405180910390fd5b5050565b6000611a7e826040518060400160405280602081526020017f5361666545524332303a206c6f772d6c6576656c2063616c6c206661696c65648152508573ffffffffffffffffffffffffffffffffffffffff16611d4d9092919063ffffffff16565b9050600081511480611aa0575080806020019051810190611a9f9190612b94565b5b611adf576040517f08c379a0000000000000000000000000000000000000000000000000000000008152600401611ad690612c33565b60405180910390fd5b505050565b6060611b0a8273ffffffffffffffffffffffffffffffffffffffff16601460ff16611b11565b9050919050565b606060006002836002611b249190612c53565b611b2e91906125e9565b67ffffffffffffffff811115611b4757611b46612c95565b5b6040519080825280601f01601f191660200182016040528015611b795781602001600182028036833780820191505090505b5090507f300000000000000000000000000000000000000000000000000000000000000081600081518110611bb157611bb0612cc4565b5b60200101907effffffffffffffffffffffffffffffffffffffffffffffffffffffffffffff1916908160001a9053507f780000000000000000000000000000000000000000000000000000000000000081600181518110611c1557611c14612cc4565b5b60200101907effffffffffffffffffffffffffffffffffffffffffffffffffffffffffffff1916908160001a90535060006001846002611c559190612c53565b611c5f91906125e9565b90505b6001811115611cff577f3031323334353637383961626364656600000000000000000000000000000000600f861660108110611ca157611ca0612cc4565b5b1a60f81b828281518110611cb857611cb7612cc4565b5b60200101907effffffffffffffffffffffffffffffffffffffffffffffffffffffffffffff1916908160001a905350600485901c945080611cf890612cf3565b9050611c62565b5060008414611d43576040517f08c379a0000000000000000000000000000000000000000000000000000000008152600401611d3a90612d68565b60405180910390fd5b8091505092915050565b6060611d5c8484600085611d65565b90509392505050565b606082471015611daa576040517f08c379a0000000000000000000000000000000000000000000000000000000008152600401611da190612dfa565b60405180910390fd5b6000808673ffffffffffffffffffffffffffffffffffffffff168587604051611dd39190612e61565b60006040518083038185875af1925050503d8060008114611e10576040519150601f19603f3d011682016040523d82523d6000602084013e611e15565b606091505b5091509150611e2687838387611e32565b92505050949350505050565b60608315611e94576000835103611e8c57611e4c85611ea7565b611e8b576040517f08c379a0000000000000000000000000000000000000000000000000000000008152600401611e8290612ec4565b60405180910390fd5b5b829050611e9f565b611e9e8383611eca565b5b949350505050565b6000808273ffffffffffffffffffffffffffffffffffffffff163b119050919050565b600082511115611edd5781518083602001fd5b806040517f08c379a0000000000000000000000000000000000000000000000000000000008152600401611f119190612b46565b60405180910390fd5b6040518060c0016040528060008152602001600081526020016000815260200160008152602001606081526020016000151581525090565b600080fd5b600073ffffffffffffffffffffffffffffffffffffffff82169050919050565b6000611f8282611f57565b9050919050565b611f9281611f77565b8114611f9d57600080fd5b50565b600081359050611faf81611f89565b92915050565b600060208284031215611fcb57611fca611f52565b5b6000611fd984828501611fa0565b91505092915050565b6000819050919050565b611ff581611fe2565b82525050565b60008115159050919050565b61201081611ffb565b82525050565b600060a08201905061202b6000830188611fec565b6120386020830187611fec565b6120456040830186611fec565b6120526060830185611fec565b61205f6080830184612007565b9695505050505050565b60007fffffffff0000000000000000000000000000000000000000000000000000000082169050919050565b61209e81612069565b81146120a957600080fd5b50565b6000813590506120bb81612095565b92915050565b6000602082840312156120d7576120d6611f52565b5b60006120e5848285016120ac565b91505092915050565b60006020820190506121036000830184612007565b92915050565b61211281611fe2565b811461211d57600080fd5b50565b60008135905061212f81612109565b92915050565b60008060006060848603121561214e5761214d611f52565b5b600061215c86828701611fa0565b935050602061216d86828701612120565b925050604061217e86828701612120565b9150509250925092565b6000819050919050565b61219b81612188565b81146121a657600080fd5b50565b6000813590506121b881612192565b92915050565b6000602082840312156121d4576121d3611f52565b5b60006121e2848285016121a9565b91505092915050565b6121f481612188565b82525050565b600060208201905061220f60008301846121eb565b92915050565b6000806040838503121561222c5761222b611f52565b5b600061223a858286016121a9565b925050602061224b85828601611fa0565b9150509250929050565b600061226082611f77565b9050919050565b61227081612255565b811461227b57600080fd5b50565b60008135905061228d81612267565b92915050565b6000602082840312156122a9576122a8611f52565b5b60006122b78482850161227e565b91505092915050565b6122c981611f77565b82525050565b60006020820190506122e460008301846122c0565b92915050565b6122f381611fe2565b82525050565b600081519050919050565b600082825260208201905092915050565b6000819050602082019050919050565b61232e81611f77565b82525050565b60006123408383612325565b60208301905092915050565b6000602082019050919050565b6000612364826122f9565b61236e8185612304565b935061237983612315565b8060005b838110156123aa5781516123918882612334565b975061239c8361234c565b92505060018101905061237d565b5085935050505092915050565b6123c081611ffb565b82525050565b600060c0830160008301516123de60008601826122ea565b5060208301516123f160208601826122ea565b50604083015161240460408601826122ea565b50606083015161241760608601826122ea565b506080830151848203608086015261242f8282612359565b91505060a083015161244460a08601826123b7565b508091505092915050565b6000602082019050818103600083015261246981846123c6565b905092915050565b6000819050919050565b600061249661249161248c84611f57565b612471565b611f57565b9050919050565b60006124a88261247b565b9050919050565b60006124ba8261249d565b9050919050565b6124ca816124af565b82525050565b60006020820190506124e560008301846124c1565b92915050565b6000806040838503121561250257612501611f52565b5b600061251085828601611fa0565b925050602061252185828601612120565b9150509250929050565b60008060006060848603121561254457612543611f52565b5b600061255286828701611fa0565b935050602061256386828701611fa0565b925050604061257486828701612120565b9150509250925092565b60006125898261249d565b9050919050565b6125998161257e565b82525050565b60006020820190506125b46000830184612590565b92915050565b7f4e487b7100000000000000000000000000000000000000000000000000000000600052601160045260246000fd5b60006125f482611fe2565b91506125ff83611fe2565b9250828201905080821115612617576126166125ba565b5b92915050565b600061262882611fe2565b915061263383611fe2565b925082820390508181111561264b5761264a6125ba565b5b92915050565b600082825260208201905092915050565b7f416363657373436f6e74726f6c3a2063616e206f6e6c792072656e6f756e636560008201527f20726f6c657320666f722073656c660000000000000000000000000000000000602082015250565b60006126be602f83612651565b91506126c982612662565b604082019050919050565b600060208201905081810360008301526126ed816126b1565b9050919050565b7f526566657272616c50726f6772616d3a2062656e65666963696172206e6f742060008201527f7265676973746572000000000000000000000000000000000000000000000000602082015250565b6000612750602883612651565b915061275b826126f4565b604082019050919050565b6000602082019050818103600083015261277f81612743565b9050919050565b7f526566657272616c50726f6772616d3a206e6f742072657761726420666f722060008201527f636c61696d000000000000000000000000000000000000000000000000000000602082015250565b60006127e2602583612651565b91506127ed82612786565b604082019050919050565b60006020820190508181036000830152612811816127d5565b9050919050565b7f4f776e61626c653a206e6577206f776e657220697320746865207a65726f206160008201527f6464726573730000000000000000000000000000000000000000000000000000602082015250565b6000612874602683612651565b915061287f82612818565b604082019050919050565b600060208201905081810360008301526128a381612867565b9050919050565b7f5265656e7472616e637947756172643a207265656e7472616e742063616c6c00600082015250565b60006128e0601f83612651565b91506128eb826128aa565b602082019050919050565b6000602082019050818103600083015261290f816128d3565b9050919050565b600060608201905061292b60008301866122c0565b61293860208301856122c0565b6129456040830184611fec565b949350505050565b7f4f776e61626c653a2063616c6c6572206973206e6f7420746865206f776e6572600082015250565b6000612983602083612651565b915061298e8261294d565b602082019050919050565b600060208201905081810360008301526129b281612976565b9050919050565b600081905092915050565b7f416363657373436f6e74726f6c3a206163636f756e7420000000000000000000600082015250565b60006129fa6017836129b9565b9150612a05826129c4565b601782019050919050565b600081519050919050565b60005b83811015612a39578082015181840152602081019050612a1e565b60008484015250505050565b6000612a5082612a10565b612a5a81856129b9565b9350612a6a818560208601612a1b565b80840191505092915050565b7f206973206d697373696e6720726f6c6520000000000000000000000000000000600082015250565b6000612aac6011836129b9565b9150612ab782612a76565b601182019050919050565b6000612acd826129ed565b9150612ad98285612a45565b9150612ae482612a9f565b9150612af08284612a45565b91508190509392505050565b6000601f19601f8301169050919050565b6000612b1882612a10565b612b228185612651565b9350612b32818560208601612a1b565b612b3b81612afc565b840191505092915050565b60006020820190508181036000830152612b608184612b0d565b905092915050565b612b7181611ffb565b8114612b7c57600080fd5b50565b600081519050612b8e81612b68565b92915050565b600060208284031215612baa57612ba9611f52565b5b6000612bb884828501612b7f565b91505092915050565b7f5361666545524332303a204552433230206f7065726174696f6e20646964206e60008201527f6f74207375636365656400000000000000000000000000000000000000000000602082015250565b6000612c1d602a83612651565b9150612c2882612bc1565b604082019050919050565b60006020820190508181036000830152612c4c81612c10565b9050919050565b6000612c5e82611fe2565b9150612c6983611fe2565b9250828202612c7781611fe2565b91508282048414831517612c8e57612c8d6125ba565b5b5092915050565b7f4e487b7100000000000000000000000000000000000000000000000000000000600052604160045260246000fd5b7f4e487b7100000000000000000000000000000000000000000000000000000000600052603260045260246000fd5b6000612cfe82611fe2565b915060008203612d1157612d106125ba565b5b600182039050919050565b7f537472696e67733a20686578206c656e67746820696e73756666696369656e74600082015250565b6000612d52602083612651565b9150612d5d82612d1c565b602082019050919050565b60006020820190508181036000830152612d8181612d45565b9050919050565b7f416464726573733a20696e73756666696369656e742062616c616e636520666f60008201527f722063616c6c0000000000000000000000000000000000000000000000000000602082015250565b6000612de4602683612651565b9150612def82612d88565b604082019050919050565b60006020820190508181036000830152612e1381612dd7565b9050919050565b600081519050919050565b600081905092915050565b6000612e3b82612e1a565b612e458185612e25565b9350612e55818560208601612a1b565b80840191505092915050565b6000612e6d8284612e30565b915081905092915050565b7f416464726573733a2063616c6c20746f206e6f6e2d636f6e7472616374000000600082015250565b6000612eae601d83612651565b9150612eb982612e78565b602082019050919050565b60006020820190508181036000830152612edd81612ea1565b905091905056fea264697066735822122001e24163c687e163a12e8cd3ef60284ecad5eb5bcf85e6850bc81cd942f2a72764736f6c63430008110033",
  "linkReferences": {},
  "deployedLinkReferences": {}
}