{
  "_format": "hh-sol-artifact-1",
  "contractName": "StakingFactory",
  "sourceName": "contracts/StakingFactory.sol",
  "abi": [
    {
      "anonymous": false,
      "inputs": [
        {
          "indexed": true,
          "internalType": "address",
          "name": "smartChef",
          "type": "address"
        }
      ],
      "name": "NewSmartChefContract",
      "type": "event"
    },
    {
      "anonymous": false,
      "inputs": [
        {
          "indexed": true,
          "internalType": "address",
          "name": "previousOwner",
          "type": "address"
        },
        {
          "indexed": true,
          "internalType": "address",
          "name": "newOwner",
          "type": "address"
        }
      ],
      "name": "OwnershipTransferred",
      "type": "event"
    },
    {
      "inputs": [
        {
          "internalType": "uint256",
          "name": "",
          "type": "uint256"
        }
      ],
      "name": "allPools",
      "outputs": [
        {
          "internalType": "address",
          "name": "",
          "type": "address"
        }
      ],
      "stateMutability": "view",
      "type": "function"
    },
    {
      "inputs": [],
      "name": "allPoolsLength",
      "outputs": [
        {
          "internalType": "uint256",
          "name": "",
          "type": "uint256"
        }
      ],
      "stateMutability": "view",
      "type": "function"
    },
    {
      "inputs": [
        {
          "internalType": "contract ERC20",
          "name": "_stakedToken",
          "type": "address"
        },
        {
          "internalType": "contract CanvaToken",
          "name": "_rewardToken",
          "type": "address"
        },
        {
          "internalType": "uint256",
          "name": "_rewardPerBlock",
          "type": "uint256"
        },
        {
          "internalType": "uint256",
          "name": "_startBlock",
          "type": "uint256"
        },
        {
          "internalType": "uint256",
          "name": "_bonusEndBlock",
          "type": "uint256"
        },
        {
          "internalType": "uint256",
          "name": "_poolLimitPerUser",
          "type": "uint256"
        },
        {
          "internalType": "address",
          "name": "_admin",
          "type": "address"
        },
        {
          "internalType": "address",
          "name": "_referralProgramAddress",
          "type": "address"
        }
      ],
      "name": "deployPool",
      "outputs": [],
      "stateMutability": "nonpayable",
      "type": "function"
    },
    {
      "inputs": [],
      "name": "owner",
      "outputs": [
        {
          "internalType": "address",
          "name": "",
          "type": "address"
        }
      ],
      "stateMutability": "view",
      "type": "function"
    },
    {
      "inputs": [],
      "name": "renounceOwnership",
      "outputs": [],
      "stateMutability": "nonpayable",
      "type": "function"
    },
    {
      "inputs": [
        {
          "internalType": "address",
          "name": "newOwner",
          "type": "address"
        }
      ],
      "name": "transferOwnership",
      "outputs": [],
      "stateMutability": "nonpayable",
      "type": "function"
    }
  ],
  "bytecode": "0x608060405234801561001057600080fd5b5061002d61002261003260201b60201c565b61003a60201b60201c565b6100fe565b600033905090565b60008060009054906101000a900473ffffffffffffffffffffffffffffffffffffffff169050816000806101000a81548173ffffffffffffffffffffffffffffffffffffffff021916908373ffffffffffffffffffffffffffffffffffffffff1602179055508173ffffffffffffffffffffffffffffffffffffffff168173ffffffffffffffffffffffffffffffffffffffff167f8be0079c531659141344cd1fd0a4f28419497f9722a3daafe3b4186f6b6457e060405160405180910390a35050565b614f498061010d6000396000f3fe60806040523480156200001157600080fd5b50600436106200006a5760003560e01c806341d1de97146200006f57806367a264da14620000a5578063715018a614620000c55780638da5cb5b14620000d1578063efde4e6414620000f3578063f2fde38b1462000115575b600080fd5b6200008d60048036038101906200008791906200060f565b62000135565b6040516200009c919062000686565b60405180910390f35b620000c36004803603810190620000bd91906200075e565b62000175565b005b620000cf62000398565b005b620000db620003b0565b604051620000ea919062000686565b60405180910390f35b620000fd620003d9565b6040516200010c919062000838565b60405180910390f35b6200013360048036038101906200012d919062000855565b620003e6565b005b600181815481106200014657600080fd5b906000526020600020016000915054906101000a900473ffffffffffffffffffffffffffffffffffffffff1681565b6200017f62000470565b60008773ffffffffffffffffffffffffffffffffffffffff166318160ddd6040518163ffffffff1660e01b8152600401602060405180830381865afa158015620001cd573d6000803e3d6000fd5b505050506040513d601f19601f82011682018060405250810190620001f391906200089e565b1015620001ff57600080fd5b6000604051806020016200021390620005c1565b6020820181038252601f19601f82011660405250905060008989886040516020016200024293929190620009ce565b6040516020818303038152906040528051906020012090506000818351602085016000f590508073ffffffffffffffffffffffffffffffffffffffff1663493292ef8c8c8c8c8c8c8c8c6040518963ffffffff1660e01b8152600401620002b198979695949392919062000a33565b600060405180830381600087803b158015620002cc57600080fd5b505af1158015620002e1573d6000803e3d6000fd5b505050506001819080600181540180825580915050600190039060005260206000200160009091909190916101000a81548173ffffffffffffffffffffffffffffffffffffffff021916908373ffffffffffffffffffffffffffffffffffffffff1602179055508073ffffffffffffffffffffffffffffffffffffffff167fe0d103a92c6ff6c4aceb49d436f4028e0deb4884fdbcb9f32b03045eabb44a6c60405160405180910390a25050505050505050505050565b620003a262000470565b620003ae6000620004f5565b565b60008060009054906101000a900473ffffffffffffffffffffffffffffffffffffffff16905090565b6000600180549050905090565b620003f062000470565b600073ffffffffffffffffffffffffffffffffffffffff168173ffffffffffffffffffffffffffffffffffffffff160362000462576040517f08c379a0000000000000000000000000000000000000000000000000000000008152600401620004599062000b48565b60405180910390fd5b6200046d81620004f5565b50565b6200047a620005b9565b73ffffffffffffffffffffffffffffffffffffffff166200049a620003b0565b73ffffffffffffffffffffffffffffffffffffffff1614620004f3576040517f08c379a0000000000000000000000000000000000000000000000000000000008152600401620004ea9062000bba565b60405180910390fd5b565b60008060009054906101000a900473ffffffffffffffffffffffffffffffffffffffff169050816000806101000a81548173ffffffffffffffffffffffffffffffffffffffff021916908373ffffffffffffffffffffffffffffffffffffffff1602179055508173ffffffffffffffffffffffffffffffffffffffff168173ffffffffffffffffffffffffffffffffffffffff167f8be0079c531659141344cd1fd0a4f28419497f9722a3daafe3b4186f6b6457e060405160405180910390a35050565b600033905090565b6143378062000bdd83390190565b600080fd5b6000819050919050565b620005e981620005d4565b8114620005f557600080fd5b50565b6000813590506200060981620005de565b92915050565b600060208284031215620006285762000627620005cf565b5b60006200063884828501620005f8565b91505092915050565b600073ffffffffffffffffffffffffffffffffffffffff82169050919050565b60006200066e8262000641565b9050919050565b620006808162000661565b82525050565b60006020820190506200069d600083018462000675565b92915050565b6000620006b08262000661565b9050919050565b620006c281620006a3565b8114620006ce57600080fd5b50565b600081359050620006e281620006b7565b92915050565b6000620006f58262000661565b9050919050565b6200070781620006e8565b81146200071357600080fd5b50565b6000813590506200072781620006fc565b92915050565b620007388162000661565b81146200074457600080fd5b50565b60008135905062000758816200072d565b92915050565b600080600080600080600080610100898b031215620007825762000781620005cf565b5b6000620007928b828c01620006d1565b9850506020620007a58b828c0162000716565b9750506040620007b88b828c01620005f8565b9650506060620007cb8b828c01620005f8565b9550506080620007de8b828c01620005f8565b94505060a0620007f18b828c01620005f8565b93505060c0620008048b828c0162000747565b92505060e0620008178b828c0162000747565b9150509295985092959890939650565b6200083281620005d4565b82525050565b60006020820190506200084f600083018462000827565b92915050565b6000602082840312156200086e576200086d620005cf565b5b60006200087e8482850162000747565b91505092915050565b6000815190506200089881620005de565b92915050565b600060208284031215620008b757620008b6620005cf565b5b6000620008c78482850162000887565b91505092915050565b6000819050919050565b6000620008fb620008f5620008ef8462000641565b620008d0565b62000641565b9050919050565b60006200090f82620008da565b9050919050565b6000620009238262000902565b9050919050565b60008160601b9050919050565b600062000944826200092a565b9050919050565b6000620009588262000937565b9050919050565b620009746200096e8262000916565b6200094b565b82525050565b6000620009878262000902565b9050919050565b620009a36200099d826200097a565b6200094b565b82525050565b6000819050919050565b620009c8620009c282620005d4565b620009a9565b82525050565b6000620009dc82866200095f565b601482019150620009ee82856200098e565b60148201915062000a008284620009b3565b602082019150819050949350505050565b62000a1c8162000916565b82525050565b62000a2d816200097a565b82525050565b60006101008201905062000a4b600083018b62000a11565b62000a5a602083018a62000a22565b62000a69604083018962000827565b62000a78606083018862000827565b62000a87608083018762000827565b62000a9660a083018662000827565b62000aa560c083018562000675565b62000ab460e083018462000675565b9998505050505050505050565b600082825260208201905092915050565b7f4f776e61626c653a206e6577206f776e657220697320746865207a65726f206160008201527f6464726573730000000000000000000000000000000000000000000000000000602082015250565b600062000b3060268362000ac1565b915062000b3d8262000ad2565b604082019050919050565b6000602082019050818103600083015262000b638162000b21565b9050919050565b7f4f776e61626c653a2063616c6c6572206973206e6f7420746865206f776e6572600082015250565b600062000ba260208362000ac1565b915062000baf8262000b6a565b602082019050919050565b6000602082019050818103600083015262000bd58162000b93565b905091905056fe60806040526234bc00600e5562030d40600f55612710601055617530601155620111706012553480156200003257600080fd5b506200005362000047620000a160201b60201c565b620000a960201b60201c565b6001808190555033600260006101000a81548173ffffffffffffffffffffffffffffffffffffffff021916908373ffffffffffffffffffffffffffffffffffffffff1602179055506200016d565b600033905090565b60008060009054906101000a900473ffffffffffffffffffffffffffffffffffffffff169050816000806101000a81548173ffffffffffffffffffffffffffffffffffffffff021916908373ffffffffffffffffffffffffffffffffffffffff1602179055508173ffffffffffffffffffffffffffffffffffffffff168173ffffffffffffffffffffffffffffffffffffffff167f8be0079c531659141344cd1fd0a4f28419497f9722a3daafe3b4186f6b6457e060405160405180910390a35050565b6141ba806200017d6000396000f3fe608060405234801561001057600080fd5b50600436106102115760003560e01c80638ae39cac11610125578063bb2d16ce116100ad578063ccd34cd51161007c578063ccd34cd514610572578063db2e21bc14610590578063f2fde38b1461059a578063f40f0f52146105b6578063f7c618c1146105e657610211565b8063bb2d16ce146104fc578063bd6171911461051a578063c6616ba114610538578063cc7a262e1461055457610211565b806392e8990e116100f457806392e8990e1461046a5780639513997f14610488578063a0b40905146104a4578063a9f8d181146104c0578063b5962917146104de57610211565b80638ae39cac146103f25780638da5cb5b146104105780638ea97d261461042e5780638f6629151461044c57610211565b80633f138d4b116101a857806366fe9f8a1161017757806366fe9f8a146103745780636e553f6514610392578063715018a6146103ae578063800cb1b9146103b8578063809c532b146103d457610211565b80633f138d4b1461031457806348cd4cb114610330578063493292ef1461034e5780635a34928e1461036a57610211565b80631aed6553116101e45780631aed6553146102a05780632e1a7d4d146102be5780633279beab146102da578063392e53cd146102f657610211565b806301f8a976146102165780630711306d146102325780630f5a2a4d146102505780631959a0021461026e575b600080fd5b610230600480360381019061022b9190612c57565b610604565b005b61023a610655565b6040516102479190612c93565b60405180910390f35b61025861065b565b6040516102659190612c93565b60405180910390f35b61028860048036038101906102839190612d0c565b610661565b60405161029793929190612d39565b60405180910390f35b6102a861068b565b6040516102b59190612c93565b60405180910390f35b6102d860048036038101906102d39190612c57565b610691565b005b6102f460048036038101906102ef9190612c57565b610ca6565b005b6102fe610cfe565b60405161030b9190612d8b565b60405180910390f35b61032e60048036038101906103299190612da6565b610d11565b005b610338610ea1565b6040516103459190612c93565b60405180910390f35b61036860048036038101906103639190612e62565b610ea7565b005b610372611288565b005b61037c611690565b6040516103899190612c93565b60405180910390f35b6103ac60048036038101906103a79190612f18565b611696565b005b6103b6611c02565b005b6103d260048036038101906103cd9190612f84565b611c16565b005b6103dc611c3c565b6040516103e99190612fd3565b60405180910390f35b6103fa611c62565b6040516104079190612c93565b60405180910390f35b610418611c68565b6040516104259190612fd3565b60405180910390f35b610436611c91565b6040516104439190612c93565b60405180910390f35b610454611c97565b6040516104619190612c93565b60405180910390f35b610472611c9d565b60405161047f9190612d8b565b60405180910390f35b6104a2600480360381019061049d9190612fee565b611cb0565b005b6104be60048036038101906104b9919061302e565b611dd4565b005b6104c8611ee1565b6040516104d59190612c93565b60405180910390f35b6104e6611ee7565b6040516104f39190612c93565b60405180910390f35b610504611eed565b6040516105119190612c93565b60405180910390f35b610522611ef3565b60405161052f9190612fd3565b60405180910390f35b610552600480360381019061054d919061306e565b611f19565b005b61055c611f43565b6040516105699190613134565b60405180910390f35b61057a611f69565b6040516105879190612c93565b60405180910390f35b610598611f6f565b005b6105b460048036038101906105af9190612d0c565b6121bb565b005b6105d060048036038101906105cb9190612d0c565b61223e565b6040516105dd9190612c93565b60405180910390f35b6105ee61243b565b6040516105fb9190613170565b60405180910390f35b61060c612461565b6106146124df565b80600a819055507f0c4d677eef92893ac7ec52faf8140fc6c851ab4736302b4f3a89dfb20696a0df8160405161064a9190612c93565b60405180910390a150565b600f5481565b60125481565b60136020528060005260406000206000915090508060000154908060010154908060020154905083565b60065481565b6106996126a7565b6000601360003373ffffffffffffffffffffffffffffffffffffffff1673ffffffffffffffffffffffffffffffffffffffff16815260200190815260200160002090508181600001541015610723576040517f08c379a000000000000000000000000000000000000000000000000000000000815260040161071a906131e8565b60405180910390fd5b6000600360009054906101000a900473ffffffffffffffffffffffffffffffffffffffff1673ffffffffffffffffffffffffffffffffffffffff1663818d17ff336040518263ffffffff1660e01b81526004016107809190612fd3565b602060405180830381865afa15801561079d573d6000803e3d6000fd5b505050506040513d601f19601f820116820180604052508101906107c1919061321d565b90506107cb6124df565b60006108108360010154610802600b546107f460055488600001546126f690919063ffffffff16565b61270c90919063ffffffff16565b61272290919063ffffffff16565b905060008411156109ce5761083284846000015461272290919063ffffffff16565b83600001819055506000600e5484600201544261084f9190613279565b101561085d57600f54610861565b6010545b9050600061088d620f424061087f84896126f690919063ffffffff16565b61270c90919063ffffffff16565b905061096c600c60009054906101000a900473ffffffffffffffffffffffffffffffffffffffff1673ffffffffffffffffffffffffffffffffffffffff166370d5ae056040518163ffffffff1660e01b8152600401602060405180830381865afa1580156108ff573d6000803e3d6000fd5b505050506040513d601f19601f82011682018060405250810190610923919061321d565b82600d60009054906101000a900473ffffffffffffffffffffffffffffffffffffffff1673ffffffffffffffffffffffffffffffffffffffff166127389092919063ffffffff16565b6109cb33610983838961272290919063ffffffff16565b600d60009054906101000a900473ffffffffffffffffffffffffffffffffffffffff1673ffffffffffffffffffffffffffffffffffffffff166127389092919063ffffffff16565b50505b6000811115610b84576000610a03620f42406109f5601154856126f690919063ffffffff16565b61270c90919063ffffffff16565b90506000610a31620f4240610a23601254866126f690919063ffffffff16565b61270c90919063ffffffff16565b9050610b10600c60009054906101000a900473ffffffffffffffffffffffffffffffffffffffff1673ffffffffffffffffffffffffffffffffffffffff166370d5ae056040518163ffffffff1660e01b8152600401602060405180830381865afa158015610aa3573d6000803e3d6000fd5b505050506040513d601f19601f82011682018060405250810190610ac7919061321d565b83600c60009054906101000a900473ffffffffffffffffffffffffffffffffffffffff1673ffffffffffffffffffffffffffffffffffffffff166127389092919063ffffffff16565b610b8133610b3983610b2b868861272290919063ffffffff16565b61272290919063ffffffff16565b600c60009054906101000a900473ffffffffffffffffffffffffffffffffffffffff1673ffffffffffffffffffffffffffffffffffffffff166127389092919063ffffffff16565b50505b600360009054906101000a900473ffffffffffffffffffffffffffffffffffffffff1673ffffffffffffffffffffffffffffffffffffffff16631d63dd328386846040518463ffffffff1660e01b8152600401610be3939291906132ad565b600060405180830381600087803b158015610bfd57600080fd5b505af1158015610c11573d6000803e3d6000fd5b50505050610c42600b54610c3460055486600001546126f690919063ffffffff16565b61270c90919063ffffffff16565b83600101819055503373ffffffffffffffffffffffffffffffffffffffff167f884edad9ce6fa2440d8a54cc123490eb96d2768479d49ff9c7366125a942436485604051610c909190612c93565b60405180910390a2505050610ca36127be565b50565b610cae612461565b610cfb3382600c60009054906101000a900473ffffffffffffffffffffffffffffffffffffffff1673ffffffffffffffffffffffffffffffffffffffff166127389092919063ffffffff16565b50565b600460159054906101000a900460ff1681565b610d19612461565b600d60009054906101000a900473ffffffffffffffffffffffffffffffffffffffff1673ffffffffffffffffffffffffffffffffffffffff168273ffffffffffffffffffffffffffffffffffffffff1603610da9576040517f08c379a0000000000000000000000000000000000000000000000000000000008152600401610da090613330565b60405180910390fd5b600c60009054906101000a900473ffffffffffffffffffffffffffffffffffffffff1673ffffffffffffffffffffffffffffffffffffffff168273ffffffffffffffffffffffffffffffffffffffff1603610e39576040517f08c379a0000000000000000000000000000000000000000000000000000000008152600401610e309061339c565b60405180910390fd5b610e6433828473ffffffffffffffffffffffffffffffffffffffff166127389092919063ffffffff16565b7f74545154aac348a3eac92596bd1971957ca94795f4e954ec5f613b55fab781298282604051610e959291906133bc565b60405180910390a15050565b60075481565b600460159054906101000a900460ff1615610ef7576040517f08c379a0000000000000000000000000000000000000000000000000000000008152600401610eee90613431565b60405180910390fd5b600260009054906101000a900473ffffffffffffffffffffffffffffffffffffffff1673ffffffffffffffffffffffffffffffffffffffff163373ffffffffffffffffffffffffffffffffffffffff1614610f87576040517f08c379a0000000000000000000000000000000000000000000000000000000008152600401610f7e9061349d565b60405180910390fd5b8673ffffffffffffffffffffffffffffffffffffffff1663095ea7b38263010b07606040518363ffffffff1660e01b8152600401610fc69291906134f8565b6020604051808303816000875af1158015610fe5573d6000803e3d6000fd5b505050506040513d601f19601f820116820180604052508101906110099190613536565b506001600460156101000a81548160ff02191690831515021790555087600d60006101000a81548173ffffffffffffffffffffffffffffffffffffffff021916908373ffffffffffffffffffffffffffffffffffffffff16021790555086600c60006101000a81548173ffffffffffffffffffffffffffffffffffffffff021916908373ffffffffffffffffffffffffffffffffffffffff16021790555085600a81905550846007819055508360068190555080600360006101000a81548173ffffffffffffffffffffffffffffffffffffffff021916908373ffffffffffffffffffffffffffffffffffffffff1602179055506000831115611129576001600460146101000a81548160ff021916908315150217905550826009819055505b6000600c60009054906101000a900473ffffffffffffffffffffffffffffffffffffffff1673ffffffffffffffffffffffffffffffffffffffff1663313ce5676040518163ffffffff1660e01b8152600401602060405180830381865afa158015611198573d6000803e3d6000fd5b505050506040513d601f19601f820116820180604052508101906111bc919061359c565b60ff169050601e8110611204576040517f08c379a00000000000000000000000000000000000000000000000000000000081526004016111fb90613615565b60405180910390fd5b61121881601e61272290919063ffffffff16565b600a6112249190613768565b600b8190555060075460088190555082600460006101000a81548173ffffffffffffffffffffffffffffffffffffffff021916908373ffffffffffffffffffffffffffffffffffffffff16021790555061127d836121bb565b505050505050505050565b6112906126a7565b6000601360003373ffffffffffffffffffffffffffffffffffffffff1673ffffffffffffffffffffffffffffffffffffffff1681526020019081526020016000209050600081600001541161131a576040517f08c379a0000000000000000000000000000000000000000000000000000000008152600401611311906137ff565b60405180910390fd5b6000600360009054906101000a900473ffffffffffffffffffffffffffffffffffffffff1673ffffffffffffffffffffffffffffffffffffffff1663818d17ff336040518263ffffffff1660e01b81526004016113779190612fd3565b602060405180830381865afa158015611394573d6000803e3d6000fd5b505050506040513d601f19601f820116820180604052508101906113b8919061321d565b90506113c26124df565b600061140783600101546113f9600b546113eb60055488600001546126f690919063ffffffff16565b61270c90919063ffffffff16565b61272290919063ffffffff16565b905060008111156115bf57600061143e620f4240611430601154856126f690919063ffffffff16565b61270c90919063ffffffff16565b9050600061146c620f424061145e601254866126f690919063ffffffff16565b61270c90919063ffffffff16565b905061154b600c60009054906101000a900473ffffffffffffffffffffffffffffffffffffffff1673ffffffffffffffffffffffffffffffffffffffff166370d5ae056040518163ffffffff1660e01b8152600401602060405180830381865afa1580156114de573d6000803e3d6000fd5b505050506040513d601f19601f82011682018060405250810190611502919061321d565b83600c60009054906101000a900473ffffffffffffffffffffffffffffffffffffffff1673ffffffffffffffffffffffffffffffffffffffff166127389092919063ffffffff16565b6115bc3361157483611566868861272290919063ffffffff16565b61272290919063ffffffff16565b600c60009054906101000a900473ffffffffffffffffffffffffffffffffffffffff1673ffffffffffffffffffffffffffffffffffffffff166127389092919063ffffffff16565b50505b600360009054906101000a900473ffffffffffffffffffffffffffffffffffffffff1673ffffffffffffffffffffffffffffffffffffffff1663a475fb1383836040518363ffffffff1660e01b815260040161161c9291906133bc565b600060405180830381600087803b15801561163657600080fd5b505af115801561164a573d6000803e3d6000fd5b5050505061167b600b5461166d60055486600001546126f690919063ffffffff16565b61270c90919063ffffffff16565b836001018190555050505061168e6127be565b565b60095481565b61169e6126a7565b6000601360003373ffffffffffffffffffffffffffffffffffffffff1673ffffffffffffffffffffffffffffffffffffffff168152602001908152602001600020905060008073ffffffffffffffffffffffffffffffffffffffff168373ffffffffffffffffffffffffffffffffffffffff160361174057600460009054906101000a900473ffffffffffffffffffffffffffffffffffffffff169050611744565b8290505b600460149054906101000a900460ff16156117b5576009546117738360000154866127c790919063ffffffff16565b11156117b4576040517f08c379a00000000000000000000000000000000000000000000000000000000081526004016117ab9061386b565b60405180910390fd5b5b6117bd6124df565b600082600001541115611a5e57600061180f8360010154611801600b546117f360055488600001546126f690919063ffffffff16565b61270c90919063ffffffff16565b61272290919063ffffffff16565b90506000811115611a58576000611846620f4240611838601154856126f690919063ffffffff16565b61270c90919063ffffffff16565b90506000611874620f4240611866601254866126f690919063ffffffff16565b61270c90919063ffffffff16565b9050611953600c60009054906101000a900473ffffffffffffffffffffffffffffffffffffffff1673ffffffffffffffffffffffffffffffffffffffff166370d5ae056040518163ffffffff1660e01b8152600401602060405180830381865afa1580156118e6573d6000803e3d6000fd5b505050506040513d601f19601f8201168201806040525081019061190a919061321d565b83600c60009054906101000a900473ffffffffffffffffffffffffffffffffffffffff1673ffffffffffffffffffffffffffffffffffffffff166127389092919063ffffffff16565b6119c43361197c8361196e868861272290919063ffffffff16565b61272290919063ffffffff16565b600c60009054906101000a900473ffffffffffffffffffffffffffffffffffffffff1673ffffffffffffffffffffffffffffffffffffffff166127389092919063ffffffff16565b600360009054906101000a900473ffffffffffffffffffffffffffffffffffffffff1673ffffffffffffffffffffffffffffffffffffffff1663e8b613478589846040518463ffffffff1660e01b8152600401611a23939291906132ad565b600060405180830381600087803b158015611a3d57600080fd5b505af1158015611a51573d6000803e3d6000fd5b5050505050505b50611af0565b600360009054906101000a900473ffffffffffffffffffffffffffffffffffffffff1673ffffffffffffffffffffffffffffffffffffffff1663d2cfb2178233876040518463ffffffff1660e01b8152600401611abd9392919061388b565b600060405180830381600087803b158015611ad757600080fd5b505af1158015611aeb573d6000803e3d6000fd5b505050505b6000841115611b7157611b108483600001546127c790919063ffffffff16565b8260000181905550428260020181905550611b70333086600d60009054906101000a900473ffffffffffffffffffffffffffffffffffffffff1673ffffffffffffffffffffffffffffffffffffffff166127dd909392919063ffffffff16565b5b611b9e600b54611b9060055485600001546126f690919063ffffffff16565b61270c90919063ffffffff16565b82600101819055503373ffffffffffffffffffffffffffffffffffffffff167fe1fffcc4923d04b559f4d29a8bfc6cda04eb5b0d3c460751c2402c5c5cc9109c85604051611bec9190612c93565b60405180910390a25050611bfe6127be565b5050565b611c0a612461565b611c146000612866565b565b611c1e612461565b8015611c305743600681905550611c38565b816006819055505b5050565b600360009054906101000a900473ffffffffffffffffffffffffffffffffffffffff1681565b600a5481565b60008060009054906101000a900473ffffffffffffffffffffffffffffffffffffffff16905090565b60105481565b60055481565b600460149054906101000a900460ff1681565b611cb8612461565b6007544310611cfc576040517f08c379a0000000000000000000000000000000000000000000000000000000008152600401611cf39061390e565b60405180910390fd5b808210611d3e576040517f08c379a0000000000000000000000000000000000000000000000000000000008152600401611d35906139a0565b60405180910390fd5b814310611d80576040517f08c379a0000000000000000000000000000000000000000000000000000000008152600401611d7790613a32565b60405180910390fd5b81600781905550806006819055506007546008819055507f7cd0ab87d19036f3dfadadb232c78aa4879dda3f0c994a9d637532410ee2ce068282604051611dc8929190613a52565b60405180910390a15050565b611ddc612461565b600460149054906101000a900460ff16611e2b576040517f08c379a0000000000000000000000000000000000000000000000000000000008152600401611e2290613ac7565b60405180910390fd5b8115611e81576009548111611e75576040517f08c379a0000000000000000000000000000000000000000000000000000000008152600401611e6c90613b33565b60405180910390fd5b80600981905550611ea4565b81600460146101000a81548160ff02191690831515021790555060006009819055505b7f241f67ee5f41b7a5cabf911367329be7215900f602ebfc47f89dce2a6bcd847c600954604051611ed59190612c93565b60405180910390a15050565b60085481565b60115481565b600e5481565b600260009054906101000a900473ffffffffffffffffffffffffffffffffffffffff1681565b611f21612461565b83600e8190555082600f81905550816010819055508060118190555050505050565b600d60009054906101000a900473ffffffffffffffffffffffffffffffffffffffff1681565b600b5481565b611f776126a7565b6000600360009054906101000a900473ffffffffffffffffffffffffffffffffffffffff1673ffffffffffffffffffffffffffffffffffffffff1663818d17ff336040518263ffffffff1660e01b8152600401611fd49190612fd3565b602060405180830381865afa158015611ff1573d6000803e3d6000fd5b505050506040513d601f19601f82011682018060405250810190612015919061321d565b90506000601360003373ffffffffffffffffffffffffffffffffffffffff1673ffffffffffffffffffffffffffffffffffffffff1681526020019081526020016000209050600081600001549050600082600001819055506000826001018190555060008111156120ce576120cd3382600d60009054906101000a900473ffffffffffffffffffffffffffffffffffffffff1673ffffffffffffffffffffffffffffffffffffffff166127389092919063ffffffff16565b5b600360009054906101000a900473ffffffffffffffffffffffffffffffffffffffff1673ffffffffffffffffffffffffffffffffffffffff16631d63dd32848360006040518463ffffffff1660e01b815260040161212e93929190613b8e565b600060405180830381600087803b15801561214857600080fd5b505af115801561215c573d6000803e3d6000fd5b505050503373ffffffffffffffffffffffffffffffffffffffff167f5fafa99d0643513820be26656b45130b01e1c03062e1266bf36f88cbd3bd9695826040516121a69190612c93565b60405180910390a25050506121b96127be565b565b6121c3612461565b600073ffffffffffffffffffffffffffffffffffffffff168173ffffffffffffffffffffffffffffffffffffffff1603612232576040517f08c379a000000000000000000000000000000000000000000000000000000000815260040161222990613c37565b60405180910390fd5b61223b81612866565b50565b600080601360008473ffffffffffffffffffffffffffffffffffffffff1673ffffffffffffffffffffffffffffffffffffffff16815260200190815260200160002090506000600d60009054906101000a900473ffffffffffffffffffffffffffffffffffffffff1673ffffffffffffffffffffffffffffffffffffffff166370a08231306040518263ffffffff1660e01b81526004016122df9190612fd3565b602060405180830381865afa1580156122fc573d6000803e3d6000fd5b505050506040513d601f19601f820116820180604052508101906123209190613c6c565b905060085443118015612334575060008114155b156123ee5760006123476008544361292a565b90506000612360600a54836126f690919063ffffffff16565b9050600061239f61238e85612380600b54866126f690919063ffffffff16565b61270c90919063ffffffff16565b6005546127c790919063ffffffff16565b90506123e285600101546123d4600b546123c6858a600001546126f690919063ffffffff16565b61270c90919063ffffffff16565b61272290919063ffffffff16565b95505050505050612436565b6124318260010154612423600b5461241560055487600001546126f690919063ffffffff16565b61270c90919063ffffffff16565b61272290919063ffffffff16565b925050505b919050565b600c60009054906101000a900473ffffffffffffffffffffffffffffffffffffffff1681565b61246961297f565b73ffffffffffffffffffffffffffffffffffffffff16612487611c68565b73ffffffffffffffffffffffffffffffffffffffff16146124dd576040517f08c379a00000000000000000000000000000000000000000000000000000000081526004016124d490613ce5565b60405180910390fd5b565b6008544311156126a5576000600d60009054906101000a900473ffffffffffffffffffffffffffffffffffffffff1673ffffffffffffffffffffffffffffffffffffffff166370a08231306040518263ffffffff1660e01b81526004016125469190612fd3565b602060405180830381865afa158015612563573d6000803e3d6000fd5b505050506040513d601f19601f820116820180604052508101906125879190613c6c565b90506000810361259e5743600881905550506126a5565b60006125ac6008544361292a565b905060006125c5600a54836126f690919063ffffffff16565b9050600c60009054906101000a900473ffffffffffffffffffffffffffffffffffffffff1673ffffffffffffffffffffffffffffffffffffffff1663d349948e308360026040518463ffffffff1660e01b815260040161262793929190613d7c565b600060405180830381600087803b15801561264157600080fd5b505af1158015612655573d6000803e3d6000fd5b5050505061269461268384612675600b54856126f690919063ffffffff16565b61270c90919063ffffffff16565b6005546127c790919063ffffffff16565b600581905550436008819055505050505b565b6002600154036126ec576040517f08c379a00000000000000000000000000000000000000000000000000000000081526004016126e390613dff565b60405180910390fd5b6002600181905550565b600081836127049190613e1f565b905092915050565b6000818361271a9190613e90565b905092915050565b600081836127309190613279565b905092915050565b6127b98363a9059cbb60e01b84846040516024016127579291906133bc565b604051602081830303815290604052907bffffffffffffffffffffffffffffffffffffffffffffffffffffffff19166020820180517bffffffffffffffffffffffffffffffffffffffffffffffffffffffff8381831617835250505050612987565b505050565b60018081905550565b600081836127d59190613ec1565b905092915050565b612860846323b872dd60e01b8585856040516024016127fe9392919061388b565b604051602081830303815290604052907bffffffffffffffffffffffffffffffffffffffffffffffffffffffff19166020820180517bffffffffffffffffffffffffffffffffffffffffffffffffffffffff8381831617835250505050612987565b50505050565b60008060009054906101000a900473ffffffffffffffffffffffffffffffffffffffff169050816000806101000a81548173ffffffffffffffffffffffffffffffffffffffff021916908373ffffffffffffffffffffffffffffffffffffffff1602179055508173ffffffffffffffffffffffffffffffffffffffff168173ffffffffffffffffffffffffffffffffffffffff167f8be0079c531659141344cd1fd0a4f28419497f9722a3daafe3b4186f6b6457e060405160405180910390a35050565b6000600654821161294f57612948838361272290919063ffffffff16565b9050612979565b60065483106129615760009050612979565b6129768360065461272290919063ffffffff16565b90505b92915050565b600033905090565b60006129e9826040518060400160405280602081526020017f5361666545524332303a206c6f772d6c6576656c2063616c6c206661696c65648152508573ffffffffffffffffffffffffffffffffffffffff16612a4f9092919063ffffffff16565b9050600081511480612a0b575080806020019051810190612a0a9190613536565b5b612a4a576040517f08c379a0000000000000000000000000000000000000000000000000000000008152600401612a4190613f67565b60405180910390fd5b505050565b6060612a5e8484600085612a67565b90509392505050565b606082471015612aac576040517f08c379a0000000000000000000000000000000000000000000000000000000008152600401612aa390613ff9565b60405180910390fd5b6000808673ffffffffffffffffffffffffffffffffffffffff168587604051612ad5919061408a565b60006040518083038185875af1925050503d8060008114612b12576040519150601f19603f3d011682016040523d82523d6000602084013e612b17565b606091505b5091509150612b2887838387612b34565b92505050949350505050565b60608315612b96576000835103612b8e57612b4e85612ba9565b612b8d576040517f08c379a0000000000000000000000000000000000000000000000000000000008152600401612b84906140ed565b60405180910390fd5b5b829050612ba1565b612ba08383612bcc565b5b949350505050565b6000808273ffffffffffffffffffffffffffffffffffffffff163b119050919050565b600082511115612bdf5781518083602001fd5b806040517f08c379a0000000000000000000000000000000000000000000000000000000008152600401612c139190614162565b60405180910390fd5b600080fd5b6000819050919050565b612c3481612c21565b8114612c3f57600080fd5b50565b600081359050612c5181612c2b565b92915050565b600060208284031215612c6d57612c6c612c1c565b5b6000612c7b84828501612c42565b91505092915050565b612c8d81612c21565b82525050565b6000602082019050612ca86000830184612c84565b92915050565b600073ffffffffffffffffffffffffffffffffffffffff82169050919050565b6000612cd982612cae565b9050919050565b612ce981612cce565b8114612cf457600080fd5b50565b600081359050612d0681612ce0565b92915050565b600060208284031215612d2257612d21612c1c565b5b6000612d3084828501612cf7565b91505092915050565b6000606082019050612d4e6000830186612c84565b612d5b6020830185612c84565b612d686040830184612c84565b949350505050565b60008115159050919050565b612d8581612d70565b82525050565b6000602082019050612da06000830184612d7c565b92915050565b60008060408385031215612dbd57612dbc612c1c565b5b6000612dcb85828601612cf7565b9250506020612ddc85828601612c42565b9150509250929050565b6000612df182612cce565b9050919050565b612e0181612de6565b8114612e0c57600080fd5b50565b600081359050612e1e81612df8565b92915050565b6000612e2f82612cce565b9050919050565b612e3f81612e24565b8114612e4a57600080fd5b50565b600081359050612e5c81612e36565b92915050565b600080600080600080600080610100898b031215612e8357612e82612c1c565b5b6000612e918b828c01612e0f565b9850506020612ea28b828c01612e4d565b9750506040612eb38b828c01612c42565b9650506060612ec48b828c01612c42565b9550506080612ed58b828c01612c42565b94505060a0612ee68b828c01612c42565b93505060c0612ef78b828c01612cf7565b92505060e0612f088b828c01612cf7565b9150509295985092959890939650565b60008060408385031215612f2f57612f2e612c1c565b5b6000612f3d85828601612c42565b9250506020612f4e85828601612cf7565b9150509250929050565b612f6181612d70565b8114612f6c57600080fd5b50565b600081359050612f7e81612f58565b92915050565b60008060408385031215612f9b57612f9a612c1c565b5b6000612fa985828601612c42565b9250506020612fba85828601612f6f565b9150509250929050565b612fcd81612cce565b82525050565b6000602082019050612fe86000830184612fc4565b92915050565b6000806040838503121561300557613004612c1c565b5b600061301385828601612c42565b925050602061302485828601612c42565b9150509250929050565b6000806040838503121561304557613044612c1c565b5b600061305385828601612f6f565b925050602061306485828601612c42565b9150509250929050565b6000806000806080858703121561308857613087612c1c565b5b600061309687828801612c42565b94505060206130a787828801612c42565b93505060406130b887828801612c42565b92505060606130c987828801612c42565b91505092959194509250565b6000819050919050565b60006130fa6130f56130f084612cae565b6130d5565b612cae565b9050919050565b600061310c826130df565b9050919050565b600061311e82613101565b9050919050565b61312e81613113565b82525050565b60006020820190506131496000830184613125565b92915050565b600061315a82613101565b9050919050565b61316a8161314f565b82525050565b60006020820190506131856000830184613161565b92915050565b600082825260208201905092915050565b7f416d6f756e7420746f20776974686472617720746f6f20686967680000000000600082015250565b60006131d2601b8361318b565b91506131dd8261319c565b602082019050919050565b60006020820190508181036000830152613201816131c5565b9050919050565b60008151905061321781612ce0565b92915050565b60006020828403121561323357613232612c1c565b5b600061324184828501613208565b91505092915050565b7f4e487b7100000000000000000000000000000000000000000000000000000000600052601160045260246000fd5b600061328482612c21565b915061328f83612c21565b92508282039050818111156132a7576132a661324a565b5b92915050565b60006060820190506132c26000830186612fc4565b6132cf6020830185612c84565b6132dc6040830184612c84565b949350505050565b7f43616e6e6f74206265207374616b656420746f6b656e00000000000000000000600082015250565b600061331a60168361318b565b9150613325826132e4565b602082019050919050565b600060208201905081810360008301526133498161330d565b9050919050565b7f43616e6e6f742062652072657761726420746f6b656e00000000000000000000600082015250565b600061338660168361318b565b915061339182613350565b602082019050919050565b600060208201905081810360008301526133b581613379565b9050919050565b60006040820190506133d16000830185612fc4565b6133de6020830184612c84565b9392505050565b7f416c726561647920696e697469616c697a656400000000000000000000000000600082015250565b600061341b60138361318b565b9150613426826133e5565b602082019050919050565b6000602082019050818103600083015261344a8161340e565b9050919050565b7f4e6f7420666163746f7279000000000000000000000000000000000000000000600082015250565b6000613487600b8361318b565b915061349282613451565b602082019050919050565b600060208201905081810360008301526134b68161347a565b9050919050565b6000819050919050565b60006134e26134dd6134d8846134bd565b6130d5565b612c21565b9050919050565b6134f2816134c7565b82525050565b600060408201905061350d6000830185612fc4565b61351a60208301846134e9565b9392505050565b60008151905061353081612f58565b92915050565b60006020828403121561354c5761354b612c1c565b5b600061355a84828501613521565b91505092915050565b600060ff82169050919050565b61357981613563565b811461358457600080fd5b50565b60008151905061359681613570565b92915050565b6000602082840312156135b2576135b1612c1c565b5b60006135c084828501613587565b91505092915050565b7f4d75737420626520696e666572696f7220746f20333000000000000000000000600082015250565b60006135ff60168361318b565b915061360a826135c9565b602082019050919050565b6000602082019050818103600083015261362e816135f2565b9050919050565b60008160011c9050919050565b6000808291508390505b600185111561368c578086048111156136685761366761324a565b5b60018516156136775780820291505b808102905061368585613635565b945061364c565b94509492505050565b6000826136a55760019050613761565b816136b35760009050613761565b81600181146136c957600281146136d357613702565b6001915050613761565b60ff8411156136e5576136e461324a565b5b8360020a9150848211156136fc576136fb61324a565b5b50613761565b5060208310610133831016604e8410600b84101617156137375782820a9050838111156137325761373161324a565b5b613761565b6137448484846001613642565b9250905081840481111561375b5761375a61324a565b5b81810290505b9392505050565b600061377382612c21565b915061377e83612c21565b92506137ab7fffffffffffffffffffffffffffffffffffffffffffffffffffffffffffffffff8484613695565b905092915050565b7f5374616b696e67506f6f6c3a206e6f7420726577617264730000000000000000600082015250565b60006137e960188361318b565b91506137f4826137b3565b602082019050919050565b60006020820190508181036000830152613818816137dc565b9050919050565b7f5573657220616d6f756e742061626f7665206c696d6974000000000000000000600082015250565b600061385560178361318b565b91506138608261381f565b602082019050919050565b6000602082019050818103600083015261388481613848565b9050919050565b60006060820190506138a06000830186612fc4565b6138ad6020830185612fc4565b6138ba6040830184612c84565b949350505050565b7f506f6f6c20686173207374617274656400000000000000000000000000000000600082015250565b60006138f860108361318b565b9150613903826138c2565b602082019050919050565b60006020820190508181036000830152613927816138eb565b9050919050565b7f4e6577207374617274426c6f636b206d757374206265206c6f7765722074686160008201527f6e206e657720656e64426c6f636b000000000000000000000000000000000000602082015250565b600061398a602e8361318b565b91506139958261392e565b604082019050919050565b600060208201905081810360008301526139b98161397d565b9050919050565b7f4e6577207374617274426c6f636b206d7573742062652068696768657220746860008201527f616e2063757272656e7420626c6f636b00000000000000000000000000000000602082015250565b6000613a1c60308361318b565b9150613a27826139c0565b604082019050919050565b60006020820190508181036000830152613a4b81613a0f565b9050919050565b6000604082019050613a676000830185612c84565b613a746020830184612c84565b9392505050565b7f4d75737420626520736574000000000000000000000000000000000000000000600082015250565b6000613ab1600b8361318b565b9150613abc82613a7b565b602082019050919050565b60006020820190508181036000830152613ae081613aa4565b9050919050565b7f4e6577206c696d6974206d757374206265206869676865720000000000000000600082015250565b6000613b1d60188361318b565b9150613b2882613ae7565b602082019050919050565b60006020820190508181036000830152613b4c81613b10565b9050919050565b6000819050919050565b6000613b78613b73613b6e84613b53565b6130d5565b612c21565b9050919050565b613b8881613b5d565b82525050565b6000606082019050613ba36000830186612fc4565b613bb06020830185612c84565b613bbd6040830184613b7f565b949350505050565b7f4f776e61626c653a206e6577206f776e657220697320746865207a65726f206160008201527f6464726573730000000000000000000000000000000000000000000000000000602082015250565b6000613c2160268361318b565b9150613c2c82613bc5565b604082019050919050565b60006020820190508181036000830152613c5081613c14565b9050919050565b600081519050613c6681612c2b565b92915050565b600060208284031215613c8257613c81612c1c565b5b6000613c9084828501613c57565b91505092915050565b7f4f776e61626c653a2063616c6c6572206973206e6f7420746865206f776e6572600082015250565b6000613ccf60208361318b565b9150613cda82613c99565b602082019050919050565b60006020820190508181036000830152613cfe81613cc2565b9050919050565b7f4e487b7100000000000000000000000000000000000000000000000000000000600052602160045260246000fd5b60088110613d4557613d44613d05565b5b50565b6000819050613d5682613d34565b919050565b6000613d6682613d48565b9050919050565b613d7681613d5b565b82525050565b6000606082019050613d916000830186612fc4565b613d9e6020830185612c84565b613dab6040830184613d6d565b949350505050565b7f5265656e7472616e637947756172643a207265656e7472616e742063616c6c00600082015250565b6000613de9601f8361318b565b9150613df482613db3565b602082019050919050565b60006020820190508181036000830152613e1881613ddc565b9050919050565b6000613e2a82612c21565b9150613e3583612c21565b9250828202613e4381612c21565b91508282048414831517613e5a57613e5961324a565b5b5092915050565b7f4e487b7100000000000000000000000000000000000000000000000000000000600052601260045260246000fd5b6000613e9b82612c21565b9150613ea683612c21565b925082613eb657613eb5613e61565b5b828204905092915050565b6000613ecc82612c21565b9150613ed783612c21565b9250828201905080821115613eef57613eee61324a565b5b92915050565b7f5361666545524332303a204552433230206f7065726174696f6e20646964206e60008201527f6f74207375636365656400000000000000000000000000000000000000000000602082015250565b6000613f51602a8361318b565b9150613f5c82613ef5565b604082019050919050565b60006020820190508181036000830152613f8081613f44565b9050919050565b7f416464726573733a20696e73756666696369656e742062616c616e636520666f60008201527f722063616c6c0000000000000000000000000000000000000000000000000000602082015250565b6000613fe360268361318b565b9150613fee82613f87565b604082019050919050565b6000602082019050818103600083015261401281613fd6565b9050919050565b600081519050919050565b600081905092915050565b60005b8381101561404d578082015181840152602081019050614032565b60008484015250505050565b600061406482614019565b61406e8185614024565b935061407e81856020860161402f565b80840191505092915050565b60006140968284614059565b915081905092915050565b7f416464726573733a2063616c6c20746f206e6f6e2d636f6e7472616374000000600082015250565b60006140d7601d8361318b565b91506140e2826140a1565b602082019050919050565b60006020820190508181036000830152614106816140ca565b9050919050565b600081519050919050565b6000601f19601f8301169050919050565b60006141348261410d565b61413e818561318b565b935061414e81856020860161402f565b61415781614118565b840191505092915050565b6000602082019050818103600083015261417c8184614129565b90509291505056fea26469706673582212201127f854ff9b867db5e0a3918edad337350a9480fff65c09a4f90a5e15a3cc8c64736f6c63430008110033a264697066735822122024e744fd20846978c27c4ddd2cee944bbf869737cda9fb9345620cfcf6015a5364736f6c63430008110033",
  "linkReferences": {},
  "deployedLinkReferences": {}
}