{
  "_format": "hh-sol-artifact-1",
  "contractName": "StakingFactory",
  "sourceName": "contracts/StakingFactory.sol",
  "abi": [
    {
      "anonymous": false,
      "inputs": [
        {
          "indexed": true,
          "internalType": "address",
          "name": "smartChef",
          "type": "address"
        }
      ],
      "name": "NewSmartChefContract",
      "type": "event"
    },
    {
      "anonymous": false,
      "inputs": [
        {
          "indexed": true,
          "internalType": "address",
          "name": "previousOwner",
          "type": "address"
        },
        {
          "indexed": true,
          "internalType": "address",
          "name": "newOwner",
          "type": "address"
        }
      ],
      "name": "OwnershipTransferred",
      "type": "event"
    },
    {
      "inputs": [
        {
          "internalType": "uint256",
          "name": "",
          "type": "uint256"
        }
      ],
      "name": "allPools",
      "outputs": [
        {
          "internalType": "address",
          "name": "",
          "type": "address"
        }
      ],
      "stateMutability": "view",
      "type": "function"
    },
    {
      "inputs": [],
      "name": "allPoolsLength",
      "outputs": [
        {
          "internalType": "uint256",
          "name": "",
          "type": "uint256"
        }
      ],
      "stateMutability": "view",
      "type": "function"
    },
    {
      "inputs": [
        {
          "internalType": "contract ERC20",
          "name": "_stakedToken",
          "type": "address"
        },
        {
          "internalType": "contract CanvaToken",
          "name": "_rewardToken",
          "type": "address"
        },
        {
          "internalType": "uint256",
          "name": "_rewardPerBlock",
          "type": "uint256"
        },
        {
          "internalType": "uint256",
          "name": "_startBlock",
          "type": "uint256"
        },
        {
          "internalType": "uint256",
          "name": "_bonusEndBlock",
          "type": "uint256"
        },
        {
          "internalType": "uint256",
          "name": "_poolLimitPerUser",
          "type": "uint256"
        },
        {
          "internalType": "address",
          "name": "_admin",
          "type": "address"
        },
        {
          "internalType": "address",
          "name": "_referralProgramAddress",
          "type": "address"
        }
      ],
      "name": "deployPool",
      "outputs": [],
      "stateMutability": "nonpayable",
      "type": "function"
    },
    {
      "inputs": [],
      "name": "owner",
      "outputs": [
        {
          "internalType": "address",
          "name": "",
          "type": "address"
        }
      ],
      "stateMutability": "view",
      "type": "function"
    },
    {
      "inputs": [],
      "name": "renounceOwnership",
      "outputs": [],
      "stateMutability": "nonpayable",
      "type": "function"
    },
    {
      "inputs": [
        {
          "internalType": "address",
          "name": "newOwner",
          "type": "address"
        }
      ],
      "name": "transferOwnership",
      "outputs": [],
      "stateMutability": "nonpayable",
      "type": "function"
    }
  ],
  "bytecode": "0x608060405234801561001057600080fd5b5061002d61002261003260201b60201c565b61003a60201b60201c565b6100fe565b600033905090565b60008060009054906101000a900473ffffffffffffffffffffffffffffffffffffffff169050816000806101000a81548173ffffffffffffffffffffffffffffffffffffffff021916908373ffffffffffffffffffffffffffffffffffffffff1602179055508173ffffffffffffffffffffffffffffffffffffffff168173ffffffffffffffffffffffffffffffffffffffff167f8be0079c531659141344cd1fd0a4f28419497f9722a3daafe3b4186f6b6457e060405160405180910390a35050565b614ba58061010d6000396000f3fe60806040523480156200001157600080fd5b50600436106200006a5760003560e01c806341d1de97146200006f57806367a264da14620000a5578063715018a614620000c55780638da5cb5b14620000d1578063efde4e6414620000f3578063f2fde38b1462000115575b600080fd5b6200008d60048036038101906200008791906200060f565b62000135565b6040516200009c919062000686565b60405180910390f35b620000c36004803603810190620000bd91906200075e565b62000175565b005b620000cf62000398565b005b620000db620003b0565b604051620000ea919062000686565b60405180910390f35b620000fd620003d9565b6040516200010c919062000838565b60405180910390f35b6200013360048036038101906200012d919062000855565b620003e6565b005b600181815481106200014657600080fd5b906000526020600020016000915054906101000a900473ffffffffffffffffffffffffffffffffffffffff1681565b6200017f62000470565b60008773ffffffffffffffffffffffffffffffffffffffff166318160ddd6040518163ffffffff1660e01b8152600401602060405180830381865afa158015620001cd573d6000803e3d6000fd5b505050506040513d601f19601f82011682018060405250810190620001f391906200089e565b1015620001ff57600080fd5b6000604051806020016200021390620005c1565b6020820181038252601f19601f82011660405250905060008989886040516020016200024293929190620009ce565b6040516020818303038152906040528051906020012090506000818351602085016000f590508073ffffffffffffffffffffffffffffffffffffffff1663493292ef8c8c8c8c8c8c8c8c6040518963ffffffff1660e01b8152600401620002b198979695949392919062000a33565b600060405180830381600087803b158015620002cc57600080fd5b505af1158015620002e1573d6000803e3d6000fd5b505050506001819080600181540180825580915050600190039060005260206000200160009091909190916101000a81548173ffffffffffffffffffffffffffffffffffffffff021916908373ffffffffffffffffffffffffffffffffffffffff1602179055508073ffffffffffffffffffffffffffffffffffffffff167fe0d103a92c6ff6c4aceb49d436f4028e0deb4884fdbcb9f32b03045eabb44a6c60405160405180910390a25050505050505050505050565b620003a262000470565b620003ae6000620004f5565b565b60008060009054906101000a900473ffffffffffffffffffffffffffffffffffffffff16905090565b6000600180549050905090565b620003f062000470565b600073ffffffffffffffffffffffffffffffffffffffff168173ffffffffffffffffffffffffffffffffffffffff160362000462576040517f08c379a0000000000000000000000000000000000000000000000000000000008152600401620004599062000b48565b60405180910390fd5b6200046d81620004f5565b50565b6200047a620005b9565b73ffffffffffffffffffffffffffffffffffffffff166200049a620003b0565b73ffffffffffffffffffffffffffffffffffffffff1614620004f3576040517f08c379a0000000000000000000000000000000000000000000000000000000008152600401620004ea9062000bba565b60405180910390fd5b565b60008060009054906101000a900473ffffffffffffffffffffffffffffffffffffffff169050816000806101000a81548173ffffffffffffffffffffffffffffffffffffffff021916908373ffffffffffffffffffffffffffffffffffffffff1602179055508173ffffffffffffffffffffffffffffffffffffffff168173ffffffffffffffffffffffffffffffffffffffff167f8be0079c531659141344cd1fd0a4f28419497f9722a3daafe3b4186f6b6457e060405160405180910390a35050565b600033905090565b613f938062000bdd83390190565b600080fd5b6000819050919050565b620005e981620005d4565b8114620005f557600080fd5b50565b6000813590506200060981620005de565b92915050565b600060208284031215620006285762000627620005cf565b5b60006200063884828501620005f8565b91505092915050565b600073ffffffffffffffffffffffffffffffffffffffff82169050919050565b60006200066e8262000641565b9050919050565b620006808162000661565b82525050565b60006020820190506200069d600083018462000675565b92915050565b6000620006b08262000661565b9050919050565b620006c281620006a3565b8114620006ce57600080fd5b50565b600081359050620006e281620006b7565b92915050565b6000620006f58262000661565b9050919050565b6200070781620006e8565b81146200071357600080fd5b50565b6000813590506200072781620006fc565b92915050565b620007388162000661565b81146200074457600080fd5b50565b60008135905062000758816200072d565b92915050565b600080600080600080600080610100898b031215620007825762000781620005cf565b5b6000620007928b828c01620006d1565b9850506020620007a58b828c0162000716565b9750506040620007b88b828c01620005f8565b9650506060620007cb8b828c01620005f8565b9550506080620007de8b828c01620005f8565b94505060a0620007f18b828c01620005f8565b93505060c0620008048b828c0162000747565b92505060e0620008178b828c0162000747565b9150509295985092959890939650565b6200083281620005d4565b82525050565b60006020820190506200084f600083018462000827565b92915050565b6000602082840312156200086e576200086d620005cf565b5b60006200087e8482850162000747565b91505092915050565b6000815190506200089881620005de565b92915050565b600060208284031215620008b757620008b6620005cf565b5b6000620008c78482850162000887565b91505092915050565b6000819050919050565b6000620008fb620008f5620008ef8462000641565b620008d0565b62000641565b9050919050565b60006200090f82620008da565b9050919050565b6000620009238262000902565b9050919050565b60008160601b9050919050565b600062000944826200092a565b9050919050565b6000620009588262000937565b9050919050565b620009746200096e8262000916565b6200094b565b82525050565b6000620009878262000902565b9050919050565b620009a36200099d826200097a565b6200094b565b82525050565b6000819050919050565b620009c8620009c282620005d4565b620009a9565b82525050565b6000620009dc82866200095f565b601482019150620009ee82856200098e565b60148201915062000a008284620009b3565b602082019150819050949350505050565b62000a1c8162000916565b82525050565b62000a2d816200097a565b82525050565b60006101008201905062000a4b600083018b62000a11565b62000a5a602083018a62000a22565b62000a69604083018962000827565b62000a78606083018862000827565b62000a87608083018762000827565b62000a9660a083018662000827565b62000aa560c083018562000675565b62000ab460e083018462000675565b9998505050505050505050565b600082825260208201905092915050565b7f4f776e61626c653a206e6577206f776e657220697320746865207a65726f206160008201527f6464726573730000000000000000000000000000000000000000000000000000602082015250565b600062000b3060268362000ac1565b915062000b3d8262000ad2565b604082019050919050565b6000602082019050818103600083015262000b638162000b21565b9050919050565b7f4f776e61626c653a2063616c6c6572206973206e6f7420746865206f776e6572600082015250565b600062000ba260208362000ac1565b915062000baf8262000b6a565b602082019050919050565b6000602082019050818103600083015262000bd58162000b93565b905091905056fe60806040526234bc00600e5562030d40600f55612710601055620186a06011553480156200002c57600080fd5b506200004d620000416200009b60201b60201c565b620000a360201b60201c565b6001808190555033600260006101000a81548173ffffffffffffffffffffffffffffffffffffffff021916908373ffffffffffffffffffffffffffffffffffffffff16021790555062000167565b600033905090565b60008060009054906101000a900473ffffffffffffffffffffffffffffffffffffffff169050816000806101000a81548173ffffffffffffffffffffffffffffffffffffffff021916908373ffffffffffffffffffffffffffffffffffffffff1602179055508173ffffffffffffffffffffffffffffffffffffffff168173ffffffffffffffffffffffffffffffffffffffff167f8be0079c531659141344cd1fd0a4f28419497f9722a3daafe3b4186f6b6457e060405160405180910390a35050565b613e1c80620001776000396000f3fe608060405234801561001057600080fd5b50600436106102065760003560e01c8063809c532b1161011a578063a9f8d181116100ad578063ccd34cd51161007c578063ccd34cd514610549578063db2e21bc14610567578063f2fde38b14610571578063f40f0f521461058d578063f7c618c1146105bd57610206565b8063a9f8d181146104d1578063bb2d16ce146104ef578063bd6171911461050d578063cc7a262e1461052b57610206565b80638f662915116100e95780638f6629151461045d57806392e8990e1461047b5780639513997f14610499578063a0b40905146104b557610206565b8063809c532b146103e55780638ae39cac146104035780638da5cb5b146104215780638ea97d261461043f57610206565b8063392e53cd1161019d5780635a34928e1161016c5780635a34928e1461037b57806366fe9f8a146103855780636e553f65146103a3578063715018a6146103bf578063800cb1b9146103c957610206565b8063392e53cd146103075780633f138d4b1461032557806348cd4cb114610341578063493292ef1461035f57610206565b80631aed6553116101d95780631aed65531461029557806322429085146102b35780632e1a7d4d146102cf5780633279beab146102eb57610206565b806301f8a9761461020b5780630711306d146102275780630f5a2a4d146102455780631959a00214610263575b600080fd5b610225600480360381019061022091906128cd565b6105db565b005b61022f61062c565b60405161023c9190612909565b60405180910390f35b61024d610632565b60405161025a9190612909565b60405180910390f35b61027d60048036038101906102789190612982565b610638565b60405161028c939291906129af565b60405180910390f35b61029d610662565b6040516102aa9190612909565b60405180910390f35b6102cd60048036038101906102c891906129e6565b610668565b005b6102e960048036038101906102e491906128cd565b61068a565b005b610305600480360381019061030091906128cd565b610b81565b005b61030f610bd9565b60405161031c9190612a54565b60405180910390f35b61033f600480360381019061033a9190612a6f565b610bec565b005b610349610d7c565b6040516103569190612909565b60405180910390f35b61037960048036038101906103749190612b2b565b610d82565b005b61038361116a565b005b61038d611454565b60405161039a9190612909565b60405180910390f35b6103bd60048036038101906103b89190612be1565b61145a565b005b6103c76118a8565b005b6103e360048036038101906103de9190612c4d565b6118bc565b005b6103ed6118e2565b6040516103fa9190612c9c565b60405180910390f35b61040b611908565b6040516104189190612909565b60405180910390f35b61042961190e565b6040516104369190612c9c565b60405180910390f35b610447611937565b6040516104549190612909565b60405180910390f35b61046561193d565b6040516104729190612909565b60405180910390f35b610483611943565b6040516104909190612a54565b60405180910390f35b6104b360048036038101906104ae9190612cb7565b611956565b005b6104cf60048036038101906104ca9190612cf7565b611a7a565b005b6104d9611b87565b6040516104e69190612909565b60405180910390f35b6104f7611b8d565b6040516105049190612909565b60405180910390f35b610515611b93565b6040516105229190612c9c565b60405180910390f35b610533611bb9565b6040516105409190612d96565b60405180910390f35b610551611bdf565b60405161055e9190612909565b60405180910390f35b61056f611be5565b005b61058b60048036038101906105869190612982565b611e31565b005b6105a760048036038101906105a29190612982565b611eb4565b6040516105b49190612909565b60405180910390f35b6105c56120b1565b6040516105d29190612dd2565b60405180910390f35b6105e36120d7565b6105eb612155565b80600a819055507f0c4d677eef92893ac7ec52faf8140fc6c851ab4736302b4f3a89dfb20696a0df816040516106219190612909565b60405180910390a150565b600f5481565b60115481565b60126020528060005260406000206000915090508060000154908060010154908060020154905083565b60065481565b6106706120d7565b82600e8190555081600f8190555080601081905550505050565b61069261231d565b6000601260003373ffffffffffffffffffffffffffffffffffffffff1673ffffffffffffffffffffffffffffffffffffffff16815260200190815260200160002090506000828260000154101561071e576040517f08c379a000000000000000000000000000000000000000000000000000000000815260040161071590612e4a565b60405180910390fd5b6000600360009054906101000a900473ffffffffffffffffffffffffffffffffffffffff1673ffffffffffffffffffffffffffffffffffffffff1663818d17ff336040518263ffffffff1660e01b815260040161077b9190612c9c565b602060405180830381865afa158015610798573d6000803e3d6000fd5b505050506040513d601f19601f820116820180604052508101906107bc9190612e7f565b90506107c6612155565b600061080b84600101546107fd600b546107ef600554896000015461236c90919063ffffffff16565b61238290919063ffffffff16565b61239890919063ffffffff16565b905060008511156109c95761082d85856000015461239890919063ffffffff16565b84600001819055506000600e5485600201544261084a9190612edb565b101561085857600f5461085c565b6010545b90506000610888620f424061087a848a61236c90919063ffffffff16565b61238290919063ffffffff16565b9050610967600c60009054906101000a900473ffffffffffffffffffffffffffffffffffffffff1673ffffffffffffffffffffffffffffffffffffffff166370d5ae056040518163ffffffff1660e01b8152600401602060405180830381865afa1580156108fa573d6000803e3d6000fd5b505050506040513d601f19601f8201168201806040525081019061091e9190612e7f565b82600d60009054906101000a900473ffffffffffffffffffffffffffffffffffffffff1673ffffffffffffffffffffffffffffffffffffffff166123ae9092919063ffffffff16565b6109c63361097e838a61239890919063ffffffff16565b600d60009054906101000a900473ffffffffffffffffffffffffffffffffffffffff1673ffffffffffffffffffffffffffffffffffffffff166123ae9092919063ffffffff16565b50505b6000811115610a5e576109fc620f42406109ee6011548461236c90919063ffffffff16565b61238290919063ffffffff16565b9250610a5d33610a15858461239890919063ffffffff16565b600c60009054906101000a900473ffffffffffffffffffffffffffffffffffffffff1673ffffffffffffffffffffffffffffffffffffffff166123ae9092919063ffffffff16565b5b600360009054906101000a900473ffffffffffffffffffffffffffffffffffffffff1673ffffffffffffffffffffffffffffffffffffffff16631d63dd328387866040518463ffffffff1660e01b8152600401610abd93929190612f0f565b600060405180830381600087803b158015610ad757600080fd5b505af1158015610aeb573d6000803e3d6000fd5b50505050610b1c600b54610b0e600554876000015461236c90919063ffffffff16565b61238290919063ffffffff16565b84600101819055503373ffffffffffffffffffffffffffffffffffffffff167f884edad9ce6fa2440d8a54cc123490eb96d2768479d49ff9c7366125a942436486604051610b6a9190612909565b60405180910390a250505050610b7e612434565b50565b610b896120d7565b610bd63382600c60009054906101000a900473ffffffffffffffffffffffffffffffffffffffff1673ffffffffffffffffffffffffffffffffffffffff166123ae9092919063ffffffff16565b50565b600460159054906101000a900460ff1681565b610bf46120d7565b600d60009054906101000a900473ffffffffffffffffffffffffffffffffffffffff1673ffffffffffffffffffffffffffffffffffffffff168273ffffffffffffffffffffffffffffffffffffffff1603610c84576040517f08c379a0000000000000000000000000000000000000000000000000000000008152600401610c7b90612f92565b60405180910390fd5b600c60009054906101000a900473ffffffffffffffffffffffffffffffffffffffff1673ffffffffffffffffffffffffffffffffffffffff168273ffffffffffffffffffffffffffffffffffffffff1603610d14576040517f08c379a0000000000000000000000000000000000000000000000000000000008152600401610d0b90612ffe565b60405180910390fd5b610d3f33828473ffffffffffffffffffffffffffffffffffffffff166123ae9092919063ffffffff16565b7f74545154aac348a3eac92596bd1971957ca94795f4e954ec5f613b55fab781298282604051610d7092919061301e565b60405180910390a15050565b60075481565b600460159054906101000a900460ff1615610dd2576040517f08c379a0000000000000000000000000000000000000000000000000000000008152600401610dc990613093565b60405180910390fd5b600260009054906101000a900473ffffffffffffffffffffffffffffffffffffffff1673ffffffffffffffffffffffffffffffffffffffff163373ffffffffffffffffffffffffffffffffffffffff1614610e62576040517f08c379a0000000000000000000000000000000000000000000000000000000008152600401610e59906130ff565b60405180910390fd5b8673ffffffffffffffffffffffffffffffffffffffff1663095ea7b3826a0e79c4e6a3023e818000006040518363ffffffff1660e01b8152600401610ea892919061315a565b6020604051808303816000875af1158015610ec7573d6000803e3d6000fd5b505050506040513d601f19601f82011682018060405250810190610eeb9190613198565b506001600460156101000a81548160ff02191690831515021790555087600d60006101000a81548173ffffffffffffffffffffffffffffffffffffffff021916908373ffffffffffffffffffffffffffffffffffffffff16021790555086600c60006101000a81548173ffffffffffffffffffffffffffffffffffffffff021916908373ffffffffffffffffffffffffffffffffffffffff16021790555085600a81905550846007819055508360068190555080600360006101000a81548173ffffffffffffffffffffffffffffffffffffffff021916908373ffffffffffffffffffffffffffffffffffffffff160217905550600083111561100b576001600460146101000a81548160ff021916908315150217905550826009819055505b6000600c60009054906101000a900473ffffffffffffffffffffffffffffffffffffffff1673ffffffffffffffffffffffffffffffffffffffff1663313ce5676040518163ffffffff1660e01b8152600401602060405180830381865afa15801561107a573d6000803e3d6000fd5b505050506040513d601f19601f8201168201806040525081019061109e91906131fe565b60ff169050601e81106110e6576040517f08c379a00000000000000000000000000000000000000000000000000000000081526004016110dd90613277565b60405180910390fd5b6110fa81601e61239890919063ffffffff16565b600a61110691906133ca565b600b8190555060075460088190555082600460006101000a81548173ffffffffffffffffffffffffffffffffffffffff021916908373ffffffffffffffffffffffffffffffffffffffff16021790555061115f83611e31565b505050505050505050565b61117261231d565b6000601260003373ffffffffffffffffffffffffffffffffffffffff1673ffffffffffffffffffffffffffffffffffffffff168152602001908152602001600020905060008160000154116111fc576040517f08c379a00000000000000000000000000000000000000000000000000000000081526004016111f390613461565b60405180910390fd5b6000600360009054906101000a900473ffffffffffffffffffffffffffffffffffffffff1673ffffffffffffffffffffffffffffffffffffffff1663818d17ff336040518263ffffffff1660e01b81526004016112599190612c9c565b602060405180830381865afa158015611276573d6000803e3d6000fd5b505050506040513d601f19601f8201168201806040525081019061129a9190612e7f565b90506112a4612155565b60006112e983600101546112db600b546112cd600554886000015461236c90919063ffffffff16565b61238290919063ffffffff16565b61239890919063ffffffff16565b90506000811115611383576000611320620f42406113126011548561236c90919063ffffffff16565b61238290919063ffffffff16565b905061138133611339838561239890919063ffffffff16565b600c60009054906101000a900473ffffffffffffffffffffffffffffffffffffffff1673ffffffffffffffffffffffffffffffffffffffff166123ae9092919063ffffffff16565b505b600360009054906101000a900473ffffffffffffffffffffffffffffffffffffffff1673ffffffffffffffffffffffffffffffffffffffff1663a475fb1383836040518363ffffffff1660e01b81526004016113e092919061301e565b600060405180830381600087803b1580156113fa57600080fd5b505af115801561140e573d6000803e3d6000fd5b5050505061143f600b54611431600554866000015461236c90919063ffffffff16565b61238290919063ffffffff16565b8360010181905550505050611452612434565b565b60095481565b61146261231d565b6000601260003373ffffffffffffffffffffffffffffffffffffffff1673ffffffffffffffffffffffffffffffffffffffff168152602001908152602001600020905060008073ffffffffffffffffffffffffffffffffffffffff168373ffffffffffffffffffffffffffffffffffffffff160361150457600460009054906101000a900473ffffffffffffffffffffffffffffffffffffffff169050611508565b8290505b600460149054906101000a900460ff16156115795760095461153783600001548661243d90919063ffffffff16565b1115611578576040517f08c379a000000000000000000000000000000000000000000000000000000000815260040161156f906134cd565b60405180910390fd5b5b611581612155565b6000826000015411156117045760006115d383600101546115c5600b546115b7600554886000015461236c90919063ffffffff16565b61238290919063ffffffff16565b61239890919063ffffffff16565b905060008111156116fe57600061160a620f42406115fc6011548561236c90919063ffffffff16565b61238290919063ffffffff16565b905061166b33611623838561239890919063ffffffff16565b600c60009054906101000a900473ffffffffffffffffffffffffffffffffffffffff1673ffffffffffffffffffffffffffffffffffffffff166123ae9092919063ffffffff16565b600360009054906101000a900473ffffffffffffffffffffffffffffffffffffffff1673ffffffffffffffffffffffffffffffffffffffff1663e8b613478488846040518463ffffffff1660e01b81526004016116ca93929190612f0f565b600060405180830381600087803b1580156116e457600080fd5b505af11580156116f8573d6000803e3d6000fd5b50505050505b50611796565b600360009054906101000a900473ffffffffffffffffffffffffffffffffffffffff1673ffffffffffffffffffffffffffffffffffffffff1663d2cfb2178233876040518463ffffffff1660e01b8152600401611763939291906134ed565b600060405180830381600087803b15801561177d57600080fd5b505af1158015611791573d6000803e3d6000fd5b505050505b6000841115611817576117b684836000015461243d90919063ffffffff16565b8260000181905550428260020181905550611816333086600d60009054906101000a900473ffffffffffffffffffffffffffffffffffffffff1673ffffffffffffffffffffffffffffffffffffffff16612453909392919063ffffffff16565b5b611844600b54611836600554856000015461236c90919063ffffffff16565b61238290919063ffffffff16565b82600101819055503373ffffffffffffffffffffffffffffffffffffffff167fe1fffcc4923d04b559f4d29a8bfc6cda04eb5b0d3c460751c2402c5c5cc9109c856040516118929190612909565b60405180910390a250506118a4612434565b5050565b6118b06120d7565b6118ba60006124dc565b565b6118c46120d7565b80156118d657436006819055506118de565b816006819055505b5050565b600360009054906101000a900473ffffffffffffffffffffffffffffffffffffffff1681565b600a5481565b60008060009054906101000a900473ffffffffffffffffffffffffffffffffffffffff16905090565b60105481565b60055481565b600460149054906101000a900460ff1681565b61195e6120d7565b60075443106119a2576040517f08c379a000000000000000000000000000000000000000000000000000000000815260040161199990613570565b60405180910390fd5b8082106119e4576040517f08c379a00000000000000000000000000000000000000000000000000000000081526004016119db90613602565b60405180910390fd5b814310611a26576040517f08c379a0000000000000000000000000000000000000000000000000000000008152600401611a1d90613694565b60405180910390fd5b81600781905550806006819055506007546008819055507f7cd0ab87d19036f3dfadadb232c78aa4879dda3f0c994a9d637532410ee2ce068282604051611a6e9291906136b4565b60405180910390a15050565b611a826120d7565b600460149054906101000a900460ff16611ad1576040517f08c379a0000000000000000000000000000000000000000000000000000000008152600401611ac890613729565b60405180910390fd5b8115611b27576009548111611b1b576040517f08c379a0000000000000000000000000000000000000000000000000000000008152600401611b1290613795565b60405180910390fd5b80600981905550611b4a565b81600460146101000a81548160ff02191690831515021790555060006009819055505b7f241f67ee5f41b7a5cabf911367329be7215900f602ebfc47f89dce2a6bcd847c600954604051611b7b9190612909565b60405180910390a15050565b60085481565b600e5481565b600260009054906101000a900473ffffffffffffffffffffffffffffffffffffffff1681565b600d60009054906101000a900473ffffffffffffffffffffffffffffffffffffffff1681565b600b5481565b611bed61231d565b6000600360009054906101000a900473ffffffffffffffffffffffffffffffffffffffff1673ffffffffffffffffffffffffffffffffffffffff1663818d17ff336040518263ffffffff1660e01b8152600401611c4a9190612c9c565b602060405180830381865afa158015611c67573d6000803e3d6000fd5b505050506040513d601f19601f82011682018060405250810190611c8b9190612e7f565b90506000601260003373ffffffffffffffffffffffffffffffffffffffff1673ffffffffffffffffffffffffffffffffffffffff168152602001908152602001600020905060008160000154905060008260000181905550600082600101819055506000811115611d4457611d433382600d60009054906101000a900473ffffffffffffffffffffffffffffffffffffffff1673ffffffffffffffffffffffffffffffffffffffff166123ae9092919063ffffffff16565b5b600360009054906101000a900473ffffffffffffffffffffffffffffffffffffffff1673ffffffffffffffffffffffffffffffffffffffff16631d63dd32848360006040518463ffffffff1660e01b8152600401611da4939291906137f0565b600060405180830381600087803b158015611dbe57600080fd5b505af1158015611dd2573d6000803e3d6000fd5b505050503373ffffffffffffffffffffffffffffffffffffffff167f5fafa99d0643513820be26656b45130b01e1c03062e1266bf36f88cbd3bd969582604051611e1c9190612909565b60405180910390a2505050611e2f612434565b565b611e396120d7565b600073ffffffffffffffffffffffffffffffffffffffff168173ffffffffffffffffffffffffffffffffffffffff1603611ea8576040517f08c379a0000000000000000000000000000000000000000000000000000000008152600401611e9f90613899565b60405180910390fd5b611eb1816124dc565b50565b600080601260008473ffffffffffffffffffffffffffffffffffffffff1673ffffffffffffffffffffffffffffffffffffffff16815260200190815260200160002090506000600d60009054906101000a900473ffffffffffffffffffffffffffffffffffffffff1673ffffffffffffffffffffffffffffffffffffffff166370a08231306040518263ffffffff1660e01b8152600401611f559190612c9c565b602060405180830381865afa158015611f72573d6000803e3d6000fd5b505050506040513d601f19601f82011682018060405250810190611f9691906138ce565b905060085443118015611faa575060008114155b15612064576000611fbd600854436125a0565b90506000611fd6600a548361236c90919063ffffffff16565b9050600061201561200485611ff6600b548661236c90919063ffffffff16565b61238290919063ffffffff16565b60055461243d90919063ffffffff16565b9050612058856001015461204a600b5461203c858a6000015461236c90919063ffffffff16565b61238290919063ffffffff16565b61239890919063ffffffff16565b955050505050506120ac565b6120a78260010154612099600b5461208b600554876000015461236c90919063ffffffff16565b61238290919063ffffffff16565b61239890919063ffffffff16565b925050505b919050565b600c60009054906101000a900473ffffffffffffffffffffffffffffffffffffffff1681565b6120df6125f5565b73ffffffffffffffffffffffffffffffffffffffff166120fd61190e565b73ffffffffffffffffffffffffffffffffffffffff1614612153576040517f08c379a000000000000000000000000000000000000000000000000000000000815260040161214a90613947565b60405180910390fd5b565b60085443111561231b576000600d60009054906101000a900473ffffffffffffffffffffffffffffffffffffffff1673ffffffffffffffffffffffffffffffffffffffff166370a08231306040518263ffffffff1660e01b81526004016121bc9190612c9c565b602060405180830381865afa1580156121d9573d6000803e3d6000fd5b505050506040513d601f19601f820116820180604052508101906121fd91906138ce565b90506000810361221457436008819055505061231b565b6000612222600854436125a0565b9050600061223b600a548361236c90919063ffffffff16565b9050600c60009054906101000a900473ffffffffffffffffffffffffffffffffffffffff1673ffffffffffffffffffffffffffffffffffffffff1663d349948e308360026040518463ffffffff1660e01b815260040161229d939291906139de565b600060405180830381600087803b1580156122b757600080fd5b505af11580156122cb573d6000803e3d6000fd5b5050505061230a6122f9846122eb600b548561236c90919063ffffffff16565b61238290919063ffffffff16565b60055461243d90919063ffffffff16565b600581905550436008819055505050505b565b600260015403612362576040517f08c379a000000000000000000000000000000000000000000000000000000000815260040161235990613a61565b60405180910390fd5b6002600181905550565b6000818361237a9190613a81565b905092915050565b600081836123909190613af2565b905092915050565b600081836123a69190612edb565b905092915050565b61242f8363a9059cbb60e01b84846040516024016123cd92919061301e565b604051602081830303815290604052907bffffffffffffffffffffffffffffffffffffffffffffffffffffffff19166020820180517bffffffffffffffffffffffffffffffffffffffffffffffffffffffff83818316178352505050506125fd565b505050565b60018081905550565b6000818361244b9190613b23565b905092915050565b6124d6846323b872dd60e01b858585604051602401612474939291906134ed565b604051602081830303815290604052907bffffffffffffffffffffffffffffffffffffffffffffffffffffffff19166020820180517bffffffffffffffffffffffffffffffffffffffffffffffffffffffff83818316178352505050506125fd565b50505050565b60008060009054906101000a900473ffffffffffffffffffffffffffffffffffffffff169050816000806101000a81548173ffffffffffffffffffffffffffffffffffffffff021916908373ffffffffffffffffffffffffffffffffffffffff1602179055508173ffffffffffffffffffffffffffffffffffffffff168173ffffffffffffffffffffffffffffffffffffffff167f8be0079c531659141344cd1fd0a4f28419497f9722a3daafe3b4186f6b6457e060405160405180910390a35050565b600060065482116125c5576125be838361239890919063ffffffff16565b90506125ef565b60065483106125d757600090506125ef565b6125ec8360065461239890919063ffffffff16565b90505b92915050565b600033905090565b600061265f826040518060400160405280602081526020017f5361666545524332303a206c6f772d6c6576656c2063616c6c206661696c65648152508573ffffffffffffffffffffffffffffffffffffffff166126c59092919063ffffffff16565b90506000815114806126815750808060200190518101906126809190613198565b5b6126c0576040517f08c379a00000000000000000000000000000000000000000000000000000000081526004016126b790613bc9565b60405180910390fd5b505050565b60606126d484846000856126dd565b90509392505050565b606082471015612722576040517f08c379a000000000000000000000000000000000000000000000000000000000815260040161271990613c5b565b60405180910390fd5b6000808673ffffffffffffffffffffffffffffffffffffffff16858760405161274b9190613cec565b60006040518083038185875af1925050503d8060008114612788576040519150601f19603f3d011682016040523d82523d6000602084013e61278d565b606091505b509150915061279e878383876127aa565b92505050949350505050565b6060831561280c576000835103612804576127c48561281f565b612803576040517f08c379a00000000000000000000000000000000000000000000000000000000081526004016127fa90613d4f565b60405180910390fd5b5b829050612817565b6128168383612842565b5b949350505050565b6000808273ffffffffffffffffffffffffffffffffffffffff163b119050919050565b6000825111156128555781518083602001fd5b806040517f08c379a00000000000000000000000000000000000000000000000000000000081526004016128899190613dc4565b60405180910390fd5b600080fd5b6000819050919050565b6128aa81612897565b81146128b557600080fd5b50565b6000813590506128c7816128a1565b92915050565b6000602082840312156128e3576128e2612892565b5b60006128f1848285016128b8565b91505092915050565b61290381612897565b82525050565b600060208201905061291e60008301846128fa565b92915050565b600073ffffffffffffffffffffffffffffffffffffffff82169050919050565b600061294f82612924565b9050919050565b61295f81612944565b811461296a57600080fd5b50565b60008135905061297c81612956565b92915050565b60006020828403121561299857612997612892565b5b60006129a68482850161296d565b91505092915050565b60006060820190506129c460008301866128fa565b6129d160208301856128fa565b6129de60408301846128fa565b949350505050565b6000806000606084860312156129ff576129fe612892565b5b6000612a0d868287016128b8565b9350506020612a1e868287016128b8565b9250506040612a2f868287016128b8565b9150509250925092565b60008115159050919050565b612a4e81612a39565b82525050565b6000602082019050612a696000830184612a45565b92915050565b60008060408385031215612a8657612a85612892565b5b6000612a948582860161296d565b9250506020612aa5858286016128b8565b9150509250929050565b6000612aba82612944565b9050919050565b612aca81612aaf565b8114612ad557600080fd5b50565b600081359050612ae781612ac1565b92915050565b6000612af882612944565b9050919050565b612b0881612aed565b8114612b1357600080fd5b50565b600081359050612b2581612aff565b92915050565b600080600080600080600080610100898b031215612b4c57612b4b612892565b5b6000612b5a8b828c01612ad8565b9850506020612b6b8b828c01612b16565b9750506040612b7c8b828c016128b8565b9650506060612b8d8b828c016128b8565b9550506080612b9e8b828c016128b8565b94505060a0612baf8b828c016128b8565b93505060c0612bc08b828c0161296d565b92505060e0612bd18b828c0161296d565b9150509295985092959890939650565b60008060408385031215612bf857612bf7612892565b5b6000612c06858286016128b8565b9250506020612c178582860161296d565b9150509250929050565b612c2a81612a39565b8114612c3557600080fd5b50565b600081359050612c4781612c21565b92915050565b60008060408385031215612c6457612c63612892565b5b6000612c72858286016128b8565b9250506020612c8385828601612c38565b9150509250929050565b612c9681612944565b82525050565b6000602082019050612cb16000830184612c8d565b92915050565b60008060408385031215612cce57612ccd612892565b5b6000612cdc858286016128b8565b9250506020612ced858286016128b8565b9150509250929050565b60008060408385031215612d0e57612d0d612892565b5b6000612d1c85828601612c38565b9250506020612d2d858286016128b8565b9150509250929050565b6000819050919050565b6000612d5c612d57612d5284612924565b612d37565b612924565b9050919050565b6000612d6e82612d41565b9050919050565b6000612d8082612d63565b9050919050565b612d9081612d75565b82525050565b6000602082019050612dab6000830184612d87565b92915050565b6000612dbc82612d63565b9050919050565b612dcc81612db1565b82525050565b6000602082019050612de76000830184612dc3565b92915050565b600082825260208201905092915050565b7f416d6f756e7420746f20776974686472617720746f6f20686967680000000000600082015250565b6000612e34601b83612ded565b9150612e3f82612dfe565b602082019050919050565b60006020820190508181036000830152612e6381612e27565b9050919050565b600081519050612e7981612956565b92915050565b600060208284031215612e9557612e94612892565b5b6000612ea384828501612e6a565b91505092915050565b7f4e487b7100000000000000000000000000000000000000000000000000000000600052601160045260246000fd5b6000612ee682612897565b9150612ef183612897565b9250828203905081811115612f0957612f08612eac565b5b92915050565b6000606082019050612f246000830186612c8d565b612f3160208301856128fa565b612f3e60408301846128fa565b949350505050565b7f43616e6e6f74206265207374616b656420746f6b656e00000000000000000000600082015250565b6000612f7c601683612ded565b9150612f8782612f46565b602082019050919050565b60006020820190508181036000830152612fab81612f6f565b9050919050565b7f43616e6e6f742062652072657761726420746f6b656e00000000000000000000600082015250565b6000612fe8601683612ded565b9150612ff382612fb2565b602082019050919050565b6000602082019050818103600083015261301781612fdb565b9050919050565b60006040820190506130336000830185612c8d565b61304060208301846128fa565b9392505050565b7f416c726561647920696e697469616c697a656400000000000000000000000000600082015250565b600061307d601383612ded565b915061308882613047565b602082019050919050565b600060208201905081810360008301526130ac81613070565b9050919050565b7f4e6f7420666163746f7279000000000000000000000000000000000000000000600082015250565b60006130e9600b83612ded565b91506130f4826130b3565b602082019050919050565b60006020820190508181036000830152613118816130dc565b9050919050565b6000819050919050565b600061314461313f61313a8461311f565b612d37565b612897565b9050919050565b61315481613129565b82525050565b600060408201905061316f6000830185612c8d565b61317c602083018461314b565b9392505050565b60008151905061319281612c21565b92915050565b6000602082840312156131ae576131ad612892565b5b60006131bc84828501613183565b91505092915050565b600060ff82169050919050565b6131db816131c5565b81146131e657600080fd5b50565b6000815190506131f8816131d2565b92915050565b60006020828403121561321457613213612892565b5b6000613222848285016131e9565b91505092915050565b7f4d75737420626520696e666572696f7220746f20333000000000000000000000600082015250565b6000613261601683612ded565b915061326c8261322b565b602082019050919050565b6000602082019050818103600083015261329081613254565b9050919050565b60008160011c9050919050565b6000808291508390505b60018511156132ee578086048111156132ca576132c9612eac565b5b60018516156132d95780820291505b80810290506132e785613297565b94506132ae565b94509492505050565b60008261330757600190506133c3565b8161331557600090506133c3565b816001811461332b576002811461333557613364565b60019150506133c3565b60ff84111561334757613346612eac565b5b8360020a91508482111561335e5761335d612eac565b5b506133c3565b5060208310610133831016604e8410600b84101617156133995782820a90508381111561339457613393612eac565b5b6133c3565b6133a684848460016132a4565b925090508184048111156133bd576133bc612eac565b5b81810290505b9392505050565b60006133d582612897565b91506133e083612897565b925061340d7fffffffffffffffffffffffffffffffffffffffffffffffffffffffffffffffff84846132f7565b905092915050565b7f5374616b696e67506f6f6c3a206e6f7420726577617264730000000000000000600082015250565b600061344b601883612ded565b915061345682613415565b602082019050919050565b6000602082019050818103600083015261347a8161343e565b9050919050565b7f5573657220616d6f756e742061626f7665206c696d6974000000000000000000600082015250565b60006134b7601783612ded565b91506134c282613481565b602082019050919050565b600060208201905081810360008301526134e6816134aa565b9050919050565b60006060820190506135026000830186612c8d565b61350f6020830185612c8d565b61351c60408301846128fa565b949350505050565b7f506f6f6c20686173207374617274656400000000000000000000000000000000600082015250565b600061355a601083612ded565b915061356582613524565b602082019050919050565b600060208201905081810360008301526135898161354d565b9050919050565b7f4e6577207374617274426c6f636b206d757374206265206c6f7765722074686160008201527f6e206e657720656e64426c6f636b000000000000000000000000000000000000602082015250565b60006135ec602e83612ded565b91506135f782613590565b604082019050919050565b6000602082019050818103600083015261361b816135df565b9050919050565b7f4e6577207374617274426c6f636b206d7573742062652068696768657220746860008201527f616e2063757272656e7420626c6f636b00000000000000000000000000000000602082015250565b600061367e603083612ded565b915061368982613622565b604082019050919050565b600060208201905081810360008301526136ad81613671565b9050919050565b60006040820190506136c960008301856128fa565b6136d660208301846128fa565b9392505050565b7f4d75737420626520736574000000000000000000000000000000000000000000600082015250565b6000613713600b83612ded565b915061371e826136dd565b602082019050919050565b6000602082019050818103600083015261374281613706565b9050919050565b7f4e6577206c696d6974206d757374206265206869676865720000000000000000600082015250565b600061377f601883612ded565b915061378a82613749565b602082019050919050565b600060208201905081810360008301526137ae81613772565b9050919050565b6000819050919050565b60006137da6137d56137d0846137b5565b612d37565b612897565b9050919050565b6137ea816137bf565b82525050565b60006060820190506138056000830186612c8d565b61381260208301856128fa565b61381f60408301846137e1565b949350505050565b7f4f776e61626c653a206e6577206f776e657220697320746865207a65726f206160008201527f6464726573730000000000000000000000000000000000000000000000000000602082015250565b6000613883602683612ded565b915061388e82613827565b604082019050919050565b600060208201905081810360008301526138b281613876565b9050919050565b6000815190506138c8816128a1565b92915050565b6000602082840312156138e4576138e3612892565b5b60006138f2848285016138b9565b91505092915050565b7f4f776e61626c653a2063616c6c6572206973206e6f7420746865206f776e6572600082015250565b6000613931602083612ded565b915061393c826138fb565b602082019050919050565b6000602082019050818103600083015261396081613924565b9050919050565b7f4e487b7100000000000000000000000000000000000000000000000000000000600052602160045260246000fd5b600881106139a7576139a6613967565b5b50565b60008190506139b882613996565b919050565b60006139c8826139aa565b9050919050565b6139d8816139bd565b82525050565b60006060820190506139f36000830186612c8d565b613a0060208301856128fa565b613a0d60408301846139cf565b949350505050565b7f5265656e7472616e637947756172643a207265656e7472616e742063616c6c00600082015250565b6000613a4b601f83612ded565b9150613a5682613a15565b602082019050919050565b60006020820190508181036000830152613a7a81613a3e565b9050919050565b6000613a8c82612897565b9150613a9783612897565b9250828202613aa581612897565b91508282048414831517613abc57613abb612eac565b5b5092915050565b7f4e487b7100000000000000000000000000000000000000000000000000000000600052601260045260246000fd5b6000613afd82612897565b9150613b0883612897565b925082613b1857613b17613ac3565b5b828204905092915050565b6000613b2e82612897565b9150613b3983612897565b9250828201905080821115613b5157613b50612eac565b5b92915050565b7f5361666545524332303a204552433230206f7065726174696f6e20646964206e60008201527f6f74207375636365656400000000000000000000000000000000000000000000602082015250565b6000613bb3602a83612ded565b9150613bbe82613b57565b604082019050919050565b60006020820190508181036000830152613be281613ba6565b9050919050565b7f416464726573733a20696e73756666696369656e742062616c616e636520666f60008201527f722063616c6c0000000000000000000000000000000000000000000000000000602082015250565b6000613c45602683612ded565b9150613c5082613be9565b604082019050919050565b60006020820190508181036000830152613c7481613c38565b9050919050565b600081519050919050565b600081905092915050565b60005b83811015613caf578082015181840152602081019050613c94565b60008484015250505050565b6000613cc682613c7b565b613cd08185613c86565b9350613ce0818560208601613c91565b80840191505092915050565b6000613cf88284613cbb565b915081905092915050565b7f416464726573733a2063616c6c20746f206e6f6e2d636f6e7472616374000000600082015250565b6000613d39601d83612ded565b9150613d4482613d03565b602082019050919050565b60006020820190508181036000830152613d6881613d2c565b9050919050565b600081519050919050565b6000601f19601f8301169050919050565b6000613d9682613d6f565b613da08185612ded565b9350613db0818560208601613c91565b613db981613d7a565b840191505092915050565b60006020820190508181036000830152613dde8184613d8b565b90509291505056fea2646970667358221220ec4fa2a10afbee674c075601714d5d829f817b725e66a9d0258c88840d2314a364736f6c63430008110033a2646970667358221220f1f4ce5fdf757543e0dff2426fe083a9bfd550c0cf60bba1cf77494f4fd63fee64736f6c63430008110033",
  "linkReferences": {},
  "deployedLinkReferences": {}
}